:020000040800F2
:10000000B8A20420D97D0108296101082B610108EB
:100010002D6101082F610108316101080000000015
:10002000000000000000000000000000FDC6000805
:100030003361010800000000A1C6000847C40008A1
:10004000098001080D800108118001081580010850
:10005000198001081D800108218001082580010800
:10006000298001082D8001083180010835800108B0
:10007000398001083D800108418001084580010860
:10008000498001084D800108518001085580010810
:10009000598001085D8001086180010865800108C0
:1000A000698001086D800108718001087580010870
:1000B000798001087D800108818001088580010820
:1000C000898001088D8001089180010895800108D0
:1000D000998001089D800108A1800108A580010880
:1000E000A9800108AD800108B1800108B580010830
:1000F000B980010835610108BD800108C18001088F
:10010000C5800108C9800108CD800108D18001089F
:10011000D5800108D9800108DD800108E18001084F
:10012000E5800108E9800108ED800108F1800108FF
:10013000F58001083F610108F9800108FD80010890
:10014000018101080581010809810108496101084F
:100150000D8101081181010815810108198101082B
:100160001D810108218101082581010829810108DB
:100170002D8101083181010835810108000000004E
:10018000398101083D81010841810108458101084B
:10019000498101084D8101085181010855810108FB
:1001A000598101085D8101086181010865810108AB
:1001B000698101086D81010871810108758101085B
:1001C000798101087D81010800000000818101081A
:1001D00085810108898101088D81010891810108CB
:1001E00095810108998101089D810108A18101087B
:1001F000A5810108A98101082DE9FE4F0500002D08
:1002000008D1DFF87C3C8322DFF8D417DFF8D4076D
:1002100001F03AFDDFF86C6C68683060688914287A
:1002200004DA280001F0B5FFBDE8F78FDFF8B877F2
:100230003968786902F0D0F9002804D1387D10F0CF
:10024000F000E02800D1ECE73068808902F0EAF99C
:1002500080B2000B81000800C0B2142805DB288999
:100260000A00D2B292B2904200D2DAE7DFF87C47BD
:100270000800C0B214382080DFF874870020C8F866
:10028000000068890A00D2B292B2904208D3208856
:10029000DFF860271080C9B2280001F02DFF46E08A
:1002A0002868002808D1DFF8D83BC222DFF84817B9
:1002B000DFF8300701F0E8FC1421280001F01CFFF2
:1002C000DFF8300769890180218804880C1B0188C8
:1002D000280001F011FF28684089210089B2884276
:1002E0009FD328684068C8F80000210089B22868B8
:1002F00001F002FF2889041B2C816889002808D09E
:10030000DFF87C3BDF22DFF8F416DFF8D80601F0D7
:10031000BBFC288929680989884208D0DFF8603B3E
:10032000E022DFF8DC16DFF8BC0601F0ADFC306837
:10033000008802F077F9316808803068408802F060
:1003400071F9316848803168486802F073F93168A2
:100350004860DFF84C1C08603168886802F06AF970
:1003600031688860DFF83C8CC8F800003068C089CC
:1003700002F058F93168C8813068808902F052F97A
:1003800010F03F00DFF87C160870DFF81C9C28890D
:10039000A9F80000DFF86C06007810F0030F0AD00F
:1003A000B9F80000401CA9F80000B9F8000029893C
:1003B0008842FFF436AF5FF0000BDFF8F0ABDAF8FD
:1003C000004001E0A346E468002C67D0207D0028AF
:1003D00008D1DFF8AC3AFB22DFF82C16DFF8040670
:1003E00001F052FC207D0A2808D1DFF8943AFC2263
:1003F000DFF81816DFF8EC0501F046FC207D012837
:1004000008D1DFF87C3AFD22DFF8A41BDFF8D40521
:1004100001F03AFC207A002809D0207A796891F816
:100420002C10491CC9B2884201D0A346CBE7208BCF
:10043000316809888842C5D1E08A31684988884294
:10044000C0D1606839698842BCD120687969884226
:10045000B8D1E068A04209D1DFF8243A40F20D1289
:10046000DFF8501BDFF87C0501F00EFCBBF1000F3C
:1004700007D0E068CBF80C00DAF80000E060CAF8BA
:100480000040E068A04209D1DFF8F43940F21512CB
:10049000DFF8C41BDFF84C0501F0F6FB002C71D12E
:1004A000DFF8B80B046808E0207A796891F82C101E
:1004B000491CC9B2884212D0E468002C28D0207DA3
:1004C0000A2809D0DFF8B83940F21F12DFF8901B74
:1004D000DFF8100501F0D8FB207A0028E4D1208B4A
:1004E000316809888842E7D1E08A316849888842C2
:1004F000E2D1606839698842DED120687969884232
:10050000DAD1200000F01BFA280001F042FE8BE651
:100510000022DFF8503B186806E0002823D001686D
:10052000002920D00200C06800281CD0017A0029D0
:100530000CD0017AD7F804C09CF82CC01CF1010C37
:100540005FFA8CFC614501D00200ECE7C18AD6F865
:1005500000C0BCF802C06145E4D10168D7F814C0FE
:100560006145DAD1FFE700280CD0002A04D0C16829
:10057000D1601968C160186000F043F9280001F0EB
:1005800008FE51E6002C00F0F080DFF88C7B0020A4
:100590003860288938817D603068F860DFF87C6BCE
:1005A00000203060DFF8788B002088F80000DFF84A
:1005B00074BB0020ABF80000DFF8480400780007A7
:1005C00003D5687B50F001006873A06F002813D03A
:1005D000200002F08AFD10F10D0F06D0A06F002858
:1005E0000AD0B9F80000002806D0608D002802D19A
:1005F000200003F0DDFFA9E0DFF82C5B2C60200079
:1006000000F006FA40B210F10D0F00F09F8098F84C
:100610000000000711D5D4F89000002805D07FF025
:100620000D012069D4F8902090472100504602F037
:1006300045FF200002F017F888E00020BBF800001A
:10064000002815D0BBF80020D4F88000002806D080
:1006500092B221002069D4F88030984700E0002051
:100660007FF00C0140B2884270D00020ABF800004F
:10067000200000F09BF8002868D13068002833D0B3
:10068000A06F002809D0DFF8F8374FF4F372DFF8D5
:100690009C1ADFF8500301F0F7FAA07EC00606D5D9
:1006A000306801F076FD200002F0E4F94EE0D4F865
:1006B0008400002807D00023326821002069D4F884
:1006C00084C0E04705E0002332682100002002F0EA
:1006D0009DFD01007FF00C0249B2914236D040B23C
:1006E000002801D03068A06798F80000800608D57F
:1006F000A06F00280DD0A06F407B50F02000A16FAC
:10070000487300202860200000F050F800281AD01C
:100710001CE0208DB0F5066F02D0208D401C208596
:10072000D4F88400002807D000230022210020698B
:10073000D4F884C0E04700E000207FF00C0140B214
:100740008842DED102E0200003F0C8FA0020DFF882
:10075000D8190860002030607868002825D07868B3
:1007600001F017FD002078601FE03068808901F0FB
:1007700059FF400716D430680088029030684088DE
:10078000019017F11000009017F11403DFF8100822
:100790000068B9F8001010FA81F2D8F800100020B3
:1007A00003F0BBFE280001F0F4FC3DE510B50400A9
:1007B000002C08D1DFF8C83640F25A22DFF8701951
:1007C000884801F061FADFF858090078C00616D5AC
:1007D000A07EC00609D4D4F89000002805D07FF090
:1007E0000E012069D4F8902090472100DFF8BC0763
:1007F00002F064FE200001F036FF012000E000203E
:1008000010BDFEB505007F4C2078400700F19680B2
:10081000002D08D1DFF8683640F28122DFF8141984
:10082000704801F031FA2078C0061BD56E48DFF819
:1008300054160A681288029209684988019110F1D9
:100840001001009110F11403DFF854070068DFF87D
:10085000581709884218DFF84C070168280003F090
:100860005CFE6BE02078800768D5687D02F088FD2B
:100870000400002C0CD1A869002806D05FF0FF32DC
:1008800000212869AB69984701E07FF00F0055E02F
:1008900055484169216000696060E88AE082DFF8BC
:1008A000E46530680088208303202075DFF8F07647
:1008B0003868401C6062606AE062200002F062FEFC
:1008C000A06520656064E0653868401E6065286941
:1008D0002061E567687A10F00C006072287A207257
:1008E000DFF8C8060168E160046003F0B6FF01208C
:1008F000DFF844180870200001F038F93068C0892A
:10090000A4F86000B4F86000A4F86200201D04F0B0
:1009100093F80100221D608E02F04EFE60861221C7
:10092000200003F017F940B2002804D00021200075
:1009300002F019F802E0200003F0D0F9F7BD3EB54F
:100940000400304D2878400748D4002C08D1DFF847
:10095000303540F2EE22DFF8E417224801F094F936
:100960002878800727D5DFF838160A68606A121AD7
:10097000002A27D40A68606A121A208D121A012AE6
:1009800020DA1948DFF8FC2413681B8802931268E8
:100990005288019210F11002009210F114030868BD
:1009A000DFF8041609884218DFF8F805016820000E
:1009B00003F0B3FD12E02878C00703D5DFF8800705
:1009C00000682062DFF8E0050088002806D0608B10
:1009D00050F002006083200003F080F937BD000072
:1009E000507A01082C6B0108D09C04209C9E0420A6
:1009F000609E04209E9E0420387D0108147F01081B
:100A000084720108AD9E0420546B01083067010810
:100A10007FB5050000240020002D09D1DFF86034E7
:100A20004FF44772DFF81C17DFF81C0701F02CF9B0
:100A3000DFF8246A3078400742D5287D022807D1A4
:100A4000DFF860050068296D884219D1012417E09C
:100A5000DFF84C1508686A6A904201D101240FE062
:100A60000A68686A121A002A0AD40968686A091AA8
:100A7000288D091A012903DA688B50F00200688377
:100A8000E4B2002C1AD0287D002809D1DFF8F03319
:100A90004FF44E72DFF8B416DFF8AC0601F0F4F84C
:100AA000DFF87C06017851F008010170698B4FF680
:100AB000FE70014069837FF00D006EE200206CE261
:100AC000307880070BD5287D022808D0287D0328A0
:100AD00005D0688B50F00200688300205DE2A87E9C
:100AE000C00603D4DFF8580600682862002085F8A5
:100AF0009B00002085F89A00280001F037F8287D37
:100B0000022814D0C0F04882042800F07081C0F0A0
:100B1000D280062800F0CD81C0F07881082800F04E
:100B2000F681C0F06481092800F0228234E2307836
:100B300010F01200122840F09680DFF86814086860
:100B40006A6C521C904240F08E80DFF854040268B8
:100B5000521C6A626A6AEA6209686964DFF82413EF
:100B60000968C989A5F86010B5F86010A5F8621089
:100B70000068401E686504202875281D03F05CFF8E
:100B800001002A1D688E02F017FD688641F21D10D3
:100B9000698E4900814202D3698E490001E041F229
:100BA0001C116A8E92008A4203D2688E80B2800045
:100BB00009E0698E4900814203D3688E80B240000B
:100BC00001E041F21C10A5F84800B5F866000028C5
:100BD00008D1AB4B4FF45B72DFF87415DFF8680592
:100BE00001F052F8B5F86600401EA5F866002C6FBB
:100BF000002C0ED1EC6E002C08D1A14B4FF45D728D
:100C0000DFF85015DFF8400501F03EF82068E8668F
:100C100001E020682867200002F0C8FA286F002849
:100C200003D15FF0FF30288604E0002028860020F2
:100C300085F84200D5F88800002807D00022290056
:100C40002869D5F888309847010000E000217FF03E
:100C50000C00020049B2914200F09F81688B50F075
:100C60000200688326E03078C00623D5DFF8E80468
:100C700084490A681288029209684988019110F132
:100C80001001009110F11403DFF814030068DFF87D
:100C9000181309884218DFF80C030168280003F0D4
:100CA0003CFC95F84200062804DA0020288628003B
:100CB00003F09AFA70E13078C00640F18B80B949B0
:100CC0000A68686C121A521E002A6BD40A68286DD2
:100CD000121A012A66DA04202875E86F002802D16A
:100CE0007FF005011AE0E86F8069002808D1644BA5
:100CF0004FF46A72DFF86414DFF84C0400F0C4FFAC
:100D0000E86F8069002807D0002229002869EB6F6E
:100D10009B699847010001E07FF00F01080040B295
:100D2000002809D049B211F10D0F02D0280001F0BE
:100D3000A1FE7FF00C0030E1280000F011FADFF88E
:100D4000E4130888002802D00888401E088041F279
:100D50001D10698E4900814202D3698E490001E06D
:100D600041F21C116A8E92008A4203D2688E80B2D0
:100D7000800009E0698E4900814203D3688E80B209
:100D8000400001E041F21C10A5F84800DFF8900394
:100D9000007880062AD5688B50F00200688307200F
:100DA000287523E0DFF8B003364A13681B880293E6
:100DB00012685288019210F11002009210F114038F
:100DC00077480068784A128882180968280003F07A
:100DD000A4FB0BE03078800708D571480068696A89
:100DE000491E884202D1280003F016FAD4E02800F8
:100DF00000F0B6F9DFF828030078800605D5688B87
:100E000050F00200688307202875C5E0280000F034
:100E1000A7F9C348007880063DD53078C00633D5A1
:100E200060480068296D88422ED1E86E00282BD1D9
:100E3000688B50F002006883280002F003FB5B48D7
:100E40000168A94203D10168C968016009E000682E
:100E500000E0C068002804D0C168A942F9D1E9685F
:100E6000C1600020E8600120B34908700A2028759D
:100E70007A480168E960056003F0EFFC18E000BF04
:100E8000445601085C9E0420688B50F00200688381
:100E9000082028750CE03078C00609D54148006864
:100EA000296D884204D1E86E002801D106202875FA
:100EB00072E0280000F054F999480078800625D5A2
:100EC000688B50F002006883280002F0BBFA3748B4
:100ED0000168A94203D10168C968016009E000689E
:100EE00000E0C068002804D0C168A942F9D1E968CF
:100EF000C1600020E86001208F4908700A20287531
:100F000056480168E960056003F0A7FC44E028004A
:100F100000F026F93078C00629D522480068296DEE
:100F2000884224D1E86E002821D1280002F08AFAF4
:100F30001E480168A94203D10168C968016009E03F
:100F4000006800E0C068002804D0C168A942F9D157
:100F5000E968C1600020E8600120774908700A2034
:100F600028753E480168E960056003F076FC13E0EF
:100F7000280000F0F5F83078C0060CD50948006864
:100F8000296D884207D1E86E002804D164480178B1
:100F900051F010010170FFE7002004B070BD0000A7
:100FA000649E0420689E0420A49E0420549E042075
:100FB0007C6B01085C67010838B505000C00002D4A
:100FC00008D1DFF8503C40F21F42DFF89C1B5E481E
:100FD00000F05AFEE868808901F024FBC00716D5AE
:100FE000200002F0DAF8002434E0E068808901F0A3
:100FF00019FBC00707D5012001F014FBE9688989B6
:101000000843E96888812000246802F0CFF8002CAA
:101010000BD0E0684168DFF8000C00682A8980186E
:10102000411A2089091A0029DFD5002C12D0E06866
:101030004168DFF8E40B02682B89D218511A0129A4
:1010400008DBE26851680068091A29812989686803
:1010500000F0B1FF2C6031BD88670108589E042064
:1010600044650108509E04202DE9F04106000C0063
:101070001D0033E027002468786801F0FDF8804601
:10108000B6F86600414689B2884208D2DFF8843B50
:1010900040F25742DFF8841B2B4800F0F5FDB6F80C
:1010A0006600B0EB0808A6F866801E490A883889F1
:1010B00082180A80380002F079F8B6F86600002835
:1010C0000CD0002C0AD1002D08D1DFF8483B40F2AB
:1010D0006242DFF84C1B1C4800F0D6FD002C17D0F4
:1010E000E168486801F0A6FA0700E068808901F02D
:1010F00099FA10F0030F01D0012100E000212089AE
:1011000038180918DFF81C0B0068091A0129B1DB2F
:101110002000BDE8F0810000649D04206C9E042046
:10112000AE9E0420A29E0420709E0420FC7701083D
:10113000A46B0108A4720108AA9E0420C4720108CD
:10114000489E0420187801082C6B0108E4720108FD
:10115000687A0108E87B0108D09C04200473010828
:101160002DE9F84306000024002E09D1DFF8A43A47
:1011700040F27B42DFF8B01ADFF8B00A00F084FDDD
:10118000307D042809DADFF88C3A40F27C42DFF83F
:10119000A01ADFF8980A00F077FDAF480078C00683
:1011A00040F19B81B6F86000B16D0918DFF8682A3C
:1011B000736D10681B1A002B18D4706D1368984259
:1011C00006D1B36DDFF85C0A00681B1A002B0DD442
:1011D000B06DDFF8503A1B6898421DD1B6F8600038
:1011E000DFF8503A1B68DB89984215D2DFF8440AD1
:1011F0000068C089A6F86000B6F86200B6F86030F2
:10120000984203D2B6F86000A6F8620010687065D4
:10121000DFF8100A0068B065DFF8085A2A68706CB9
:10122000121A012A46DADFF8100A008800283AD19B
:10123000B06DB6F860208018884234D1B6F930001D
:10124000002830D4706C296888422CD1012496F88B
:10125000430096F84310491CC9B2884204D296F85C
:101260004300401C86F8430096F84300042813DB33
:10127000B6F84810708E4118B6F8480089B281421D
:1012800006D3B6F84810708E4118A6F8481003E04F
:101290004FF6FF70A6F8480096F84300032802DBDB
:1012A000300003F003F8002C40F0EA80002086F8BC
:1012B0004300E5E02968706C091A491E002900F115
:1012C000DC802968306D091A012980F2D680B07E51
:1012D00040070BD5718B4FF6FB7001407183B6F858
:1012E0004A00A6F848000020A6F86A00002086F808
:1012F0004200B6F93C00C010B6F93E104018A6F8FE
:1013000040002868716C411A002086F84300286864
:101310007064307D04285EDBB6F84800B6F84A20D9
:10132000904225D2708B000501D5012200E00222F7
:101330000B001400E4B2708E44439BB2A4B2A342EB
:1013400003D3D2B2708E12FB00F1B6F84800081831
:10135000B6F8482080B2904205D3B6F84800091884
:10136000A6F8481003E04FF6FF70A6F8480032E0F8
:10137000B6F86A000818B6F86A2080B2904205D321
:10138000B6F86A000918A6F86A1003E04FF6FF7075
:10139000A6F86A00B6F86A00B6F8481088421AD370
:1013A000B6F86A10B6F84800091AA6F86A10B6F836
:1013B0004810708E4118B6F8480089B2814206D3B1
:1013C000B6F84810708E4118A6F8481003E04FF6A2
:1013D000FF70A6F84800F36EDFF86028316F300028
:1013E000FFF742FE3067336FDFF85428F16E3000AC
:1013F000FFF73AFEF066306F002803D15FF0FF3050
:10140000308601E00020308600203077F06E002822
:1014100002D10020A6F86800B6F86410DFF82408AE
:1014200000884118A6F86410708B000528D5306F2D
:10143000002813D1F06E002808D0F06EC16848680B
:1014400001F0F8F8F16C081A012819DA718B4FF2E3
:10145000FF700140718313E0AD9E0420306FC168BE
:10146000486801F0E7F8F16C081A012808DA718B76
:101470004FF2FF700140718302E0300003F098F8F2
:10148000706B002829D0B16B2868091A002924D56F
:10149000DFF8B4070168706B081A00B2B6F93C10A7
:1014A000B0EBE100B18F4118B187010009B200290A
:1014B00001D500B2404200B2B6F93E10B0EBA10037
:1014C000F18F4018F087B6F93C00C010B6F93E1015
:1014D0004018A6F8400000207063DFF85C87B8F879
:1014E0000000002800F00E83307D072880F20A8378
:1014F000DFF82477716A3868091A491E00295CD41C
:10150000716A3868091AB8F80000091A491C0129DB
:1015100053DADFF838476568706AD7F80090B0EBA7
:1015200009096068002809D1DFF8E83640F29452D2
:10153000DFF81C17DFF8F40600F0A6FB4FF6FF708B
:10154000814509D3DFF8CC3640F29552DFF8041715
:10155000DFF8D80600F098FB60680089494689B238
:10156000884209D2DFF8AC3640F29752DFF8E8162D
:10157000DFF8B80600F088FB2089B0EB0900208175
:1015800060680189B1EB090106E06889B9EB0009DF
:101590002981002068812D6868894A4692B290426C
:1015A000F3D31FFA89F94946280000F0A5FD706AB7
:1015B0003860E0683968416008E03968706A091A83
:1015C000002903D5708B50F0020070833968706A6F
:1015D000091A002900F192823968706A091A308D5F
:1015E000091A491C012980F28982706A3968884287
:1015F00040F09D81DFF85456E868808901F012F8C8
:1016000010F0030F01D0012000E0002029894018CC
:10161000A8F80000308DB8F80010884247D2E8687A
:10162000808900F0FFFFC00710D5E868808900F0CE
:10163000F9FFC0B210F03E0000F0F4FFE9688A89BB
:101640004CF2FF010A401043E9688881308D2881FF
:10165000E868808900F0E6FF800702D52889401EEF
:1016600028812989686800F0A6FCE868808900F074
:10167000D9FF10F0030F01D0012000E000202989DC
:101680004018A8F800003868B8F8001010FA81F087
:10169000716A328D8918884209D0DFF8783540F2B6
:1016A000CC52DFF8B815DFF8840500F0EDFA706F62
:1016B000002800F08680E868808900F0B3FFC0074A
:1016C00009D5706F00287CD0706F716F09687167E1
:1016D00001F06CFDF5E7746F25E000201BE0E06889
:1016E000808900F09FFFC00719D5E868808900F065
:1016F00099FF800713D4012000F094FFE9688989DD
:101700000843E9688881E868808900F08BFF10F061
:10171000030FE2D0012029894018A8F8000020001A
:10172000246801F043FD002C0BD0E0684168386864
:10173000B8F8002010FA82F0411A2089091A00290D
:10174000CDD5002C3CD0E16848683968B8F8002055
:1017500011FA82F1081A012832DBE0684168386822
:10176000091A2981E868808900F05CFF800702D5AA
:101770002889401E28812989686800F01CFCE868D7
:10178000808900F04FFF10F0030F01D0012000E02E
:10179000002029894018A8F80000E16848683968E5
:1017A000B8F8002011FA82F1814209D0DFF86434E0
:1017B00040F2FD52DFF8A814DFF8700400F064FA7C
:1017C00074673868B8F8001010FA81F07062308DD4
:1017D000B8F80010884209D2DFF8383440F20762C6
:1017E000DFF88014DFF8440400F04EFA318DB8F8C9
:1017F0000000091A3185300001F041F9686800895C
:10180000002805D06868DFF8601408600020686070
:10181000E868808900F006FFC00737D5DFF84C0480
:10182000017851F02001017030E06068106015E02F
:101830000021328D2089121A511A3185300001F0B1
:101840001EF96068008900280AD0DFF81C2410689F
:101850000028EAD06168106800F030FD0020606068
:10186000E068808900F0DEFEC0070AD5DFF8FC03DF
:10187000017851F020010170307D042801D107204A
:10188000307520687067200001F090FC706F0028B0
:101890003BD0706FC1684868716A884235D1746FF7
:1018A000706FC16848683860E068808900F0BAFEEF
:1018B00010F0030F01D0012000E00020716A22899E
:1018C000801841187162E068808900F0ABFE10F06A
:1018D000030F01D0012000E00020318D2289801803
:1018E000814209D2DFF82C3340F22C62DFF88013FA
:1018F000DFF8380300F0C8F9E068808900F092FE54
:1019000010F0030F94D0012193E7B07EC00709D5F2
:10191000718B4FF6FE7001407183708B50F00200A6
:10192000708303E0708B50F001007083FCE0706FF7
:10193000002805D1DFF8140301F047FC7067D9E0F7
:101940000024756F0AE02C002868002805D1E9689A
:1019500048683968081A01285ADA2D68002D00F005
:10196000C980E96848683968814211D0002C22D1C9
:10197000E96848683968081A0028E4D5B34801F0D6
:1019800024FC002803D070672900FFF715FBB1E0A5
:10199000AE482989028991420CD201F016FC002838
:1019A00007D0002C01D0206000E070672900FFF70D
:1019B00003FB9FE09EE0E16848683968081A401E12
:1019C0000028C0D4E96848683968081A401C012812
:1019D000B9DA9E4801F0F9FB8046B8F1000F16D045
:1019E000E1684868218941183868091A012908DB2B
:1019F000E16848683968081A20812189606800F028
:101A0000DAFAC4F8008029004046FFF7D5FA71E001
:101A1000E868808900F006FEC0076BD48B4801F0AF
:101A2000D4FB28602868002864D0E96848682989C0
:101A300041183868091A012908DBE96848683968DB
:101A4000081A28812989686800F0B5FAB8F80000FA
:101A5000396811FA80F1706A091A308D091A012962
:101A600048DB2868C068808900F0DCFDC00713D51A
:101A70002868C068808900F0D5FDC0B210F03E0033
:101A800000F0D0FD2968C9688A894CF2FF010A403C
:101A900010432968C9688881716A308D4118386897
:101AA000091A28680181286801892868406800F0BF
:101AB00082FA2868C068808900F0B4FD10F0030F36
:101AC00001D0012000E00020296809894018A8F809
:101AD00000003868B8F8001010FA81F0716A328D91
:101AE0008918884206D04B4B40F2F9625B494F4857
:101AF00000F0CAF8300002F05BFD15E0300002F0A3
:101B000057FD11E044490A68706A121A002A07D486
:101B10000968706A091A308D091A491C012903DB0A
:101B2000708B50F002007083BDE8F18310B451480F
:101B300001880288521C02804F4A1068002805D094
:101B40004E480B0004889BB2A34205D23948006876
:101B5000143089B2405C04E00088091A1068C9B2E8
:101B6000405C10BC70470000CC6B0108F8B5040065
:101B7000002C06D1274B40F27D7241492B4800F0E2
:101B800083F8404D288800283DD03A4E0020308010
:101B9000FFE730882988884235D2FFF7C7FFC0B2F7
:101BA00000280ED002280DD0F3D3FFF7BFFF0100AD
:101BB000C9B2022926DB3188C0B2801E41183180AB
:101BC000E7E720E0FFF7B2FF042804D12888318836
:101BD000891C884200DA16E0FFF7A8FF07003F02E1
:101BE000FFF7A4FF0743380080B240F21921884272
:101BF00003DA380080B2002802D14FF40677FFE7FD
:101C00006786C6E7FFE7F1BD1848017851F010017B
:101C10000170704744560108649E0420F46B01086B
:101C200024730108689E0420347801082C6B010895
:101C3000507801085C9E0420A49E0420B47F010813
:101C4000BC7F0108A29E0420489E0420649D0420BD
:101C5000487D0108587D0108687D0108B8600108C9
:101C6000245F0108447301086C9E0420AE9E04208A
:101C70001C6C0108A09E0420609E04209E9E0420EF
:101C80006C7801089C9E04200EB4C0B5024603A8DF
:101C900000210190009101AB0121044878440C30EF
:101CA00003F0A0F806BC5DF810FB00BF655E010004
:101CB00080B504F004F90021DFF86828117004F001
:101CC00007F9DFF8A008006800E0C068002805D028
:101CD000416F0029F9D001F01DFDFFE701BD80B57E
:101CE000FFF7E6FF01BD38B504F0E9F8DFF8344846
:101CF00025780121217004F0EBF8EDB2002D0CD114
:101D00000021DFF8640804F0A9F9002805D004F0E8
:101D1000D6F80021217004F0DBF831BD70B4BDF9B4
:101D20000C50049C002606604160028143810573CB
:101D30004473012181730021C17370BC70472DE988
:101D4000FC470E009046C0B20500404600B2012894
:101D500008D0412806D0B0F5C17F0ED0B0F5207F65
:101D60007BD0C8E0424612B2310089B2002000F0B8
:101D7000CEF804002000BDE8F68700245FF00009DB
:101D800037000B2004F024FA0600002E45D039005D
:101D90002A0092B2D21C4FF6FC700240D2F51472A7
:101DA00089B292B2914241D2BA4600200190404697
:101DB00000B2009053469BB23A0092B2280080B223
:101DC000304410F11001C91C890889003000FFF768
:101DD000A5FF307910F0030F09D0DFF8903740F2FB
:101DE0000112DFF88C17DFF88C07FFF74DFFADB25B
:101DF000ED1CAD08AD00D5F51475002D09D1DFF847
:101E00006C3740F20312DFF87017DFF86807FFF74E
:101E10003BFF002C16D1340016E0FFF764FF002CC6
:101E200002D0200000F0B5F90020A4E7AA461FFA6E
:101E30008AFA1AF1030A4FF6FC7010EA0A0ADAF578
:101E4000147AB2E7C9F80060B146B7EB0A0700257B
:101E5000380080B2002894D18CE7290089B2C91CCF
:101E60004FF6FC700140320092B2D21C4FF6FC706B
:101E70000240511811F1100089B2320092B2D21C06
:101E800092089200914208D3010089B2320092B2C6
:101E9000D21C92089200914201D200206BE780B2DE
:101EA00004F00AFC0400002C01D1002063E70020AC
:101EB00001900FFA88F8CDF8008033009BB2320011
:101EC00092B2ADB204EB050010F11001C91C8908F3
:101ED00089002000FFF722FF207910F0030F09D0BE
:101EE000DFF8883640F22312DFF89016DFF8840618
:101EF000FFF7CAFE3EE7DFF8743640F22712DFF83C
:101F00008016DFF87006FFF7BFFE002033E7FEB54E
:101F100005000E001700380000B241280DD038002F
:101F200000B2012809D0DFF844364FF4A572DFF87B
:101F30005416DFF84006FFF7A7FE0A2004F048F920
:101F40000400002C01D100200CE0002001903FB2E1
:101F5000009733009BB2320092B229002000FFF7B5
:101F6000DDFE2000FEBD3EB51C00079BC0B29BB24B
:101F70000500ADB2ED1CAD08AD0015FA81F5AB4220
:101F800001D2002016E0069B002B05D080B2C01CB9
:101F900080088000184400E000200223019312B260
:101FA00000920B009BB20A0092B201002000FFF7E2
:101FB000B5FE20003EBD70B504000D00002C09D117
:101FC000DFF8A8354FF4CC72DFF8BC15DFF8A405B4
:101FD000FFF75AFE2800218980B2884244D2268920
:101FE000761B11E060892D1A2089801B20812468CE
:101FF000002C09D1DFF8743540F2AF12DFF88C15F0
:10200000DFF87005FFF740FE6089290089B2884239
:10201000E8D3207B10F00F0F1BD12800618980B21C
:10202000884216D0607B800713D46168091B691849
:1020300089B2200004F075FA0400002C09D1DFF801
:102040002C3540F2BD12DFF84815DFF82805FFF700
:102050001BFE6581608920812068002802D02068ED
:1020600000F097F80020206070BD70B504000D00EE
:102070001600002C09D1DFF8F43440F2DF12DFF84B
:102080001415DFF8F004FFF7FFFD002C02D0B5F5C2
:10209000803F01D3012027E0002D01D1002023E063
:1020A0002900208940180A0080B292B2904201D2E1
:1020B000012019E0207B000608D560686D422844A5
:1020C00014F11002904207D201200DE0F6B2002E6A
:1020D0000BD060686D422844606060890818608198
:1020E000208909182181002070BD0120FCE780B5FE
:1020F0000022FFF7BAFF02BD38B504000D00002C26
:1021000009D1DFF8683440F24B22DFF88814DFF899
:102110006404FFF7B9FD002C02D0B5F5803F01D370
:10212000012020E0002D01D100201CE02900608961
:102130000A0092B290420BD2DFF8303440F25522BE
:10214000DFF85414DFF82C04FFF79EFD01200AE0AD
:1021500060686068284460606089401A60812089F6
:10216000411A2181002032BD80B50B001BB2002B2B
:1021700004D509B24942FFF7BFFF03E0D2B209B26A
:10218000FFF773FF02BD80B5012209B2FFF7ECFF34
:1021900002BDF8B50400002C0DD1002C09D1DFF8E8
:1021A000CC334FF43772DFF8EC13DFF8C803FFF7D6
:1021B0006BFD00205FE000250BE0DFF8B03340F25C
:1021C0000F32DFF8D813DFF8AC03FFF75DFD6D1CAD
:1021D0003400002C4DD003F072FE0700A07B0028D5
:1021E00009D1DFF8883340F2F122DFF8B413DFF8C9
:1021F0008403FFF749FDA07B401EA073A67B380037
:1022000003F066FEF6B2002E31D12668207B10F076
:102210000F00617B890711D527003869002809D193
:10222000DFF8483340F2FF22DFF87813DFF8440389
:10223000FFF72AFD200039698847C8E70100C9B2C5
:10224000022904D121000B2003F0EFFFBFE70100BA
:10225000C9B2012904D121000A2003F0E6FFB6E744
:10226000C0B20028A9D1200004F0E9F8AFE70024AB
:10227000AFE72800C0B2F2BD0100002001E0401C21
:1022800009680029FBD180B2704710B50400002C0A
:1022900013D003F014FEA17B491CA17303F018FEB8
:1022A000A07B002809D1DFF8C43240F24232DFF8C7
:1022B000F812DFF8C002FFF7E7FC10BD38B50400E4
:1022C0000D00002C01D0002D0AD1DFF8A03240F221
:1022D0005A32DFF8D812DFF89C02FFF7D5FC28E06D
:1022E00004E0218928894118218124682068002878
:1022F000F7D120896189884209D0DFF8703240F235
:102300006232DFF8AC12DFF86C02FFF7BDFC206828
:10231000002809D0DFF8543240F26332DFF894121B
:10232000DFF85002FFF7B0FC21892889411821818C
:10233000256031BD2DE9F84305000C00002600277B
:10234000002D05D0002C03D02889218988420CD289
:10235000DFF8183240F2CA32DFF85C12DFF81402FC
:10236000FFF792FC7FF00F0059E06889801B6189BC
:10237000C91B884204D3B4F80A80B8EB070803E00D
:10238000B5F80A80B8EB06084246606800EB070122
:10239000686800EB0609484604F08CFA18EB06065C
:1023A00018EB07076889B04209D2DFF8C03140F264
:1023B000D932DFF80812DFF8BC01FFF765FC60894D
:1023C000B84209D2DFF8A43140F2DA32DFF8F01176
:1023D000DFF8A001FFF758FC6089874201D300278E
:1023E00024686889864205D100262D68002D01D118
:1023F000002C16D1002C06D060892189884202D198
:10240000206800281AD1002D06D0688929898842C1
:1024100002D1286800281ED1002CA6D10020BDE8DA
:10242000F283DFF848314FF47972DFF89811DFF862
:102430004401FFF729FC7FF00F00F0E7DFF82C31B3
:1024400040F2EA32DFF88011DFF82801FFF71CFCC8
:102450007FF00500E3E7DFF8143140F2EF32DFF8F8
:102460006811DFF81001FFF70FFC7FF00500D6E7D9
:102470002DE9F04704000D00904600260027002CAF
:102480000BD1DFF8E83040F20A42DFF84011DFF804
:10249000E400FFF7F9FB002042E0002D0BD1DFF84C
:1024A000CC3040F20B42DFF82811DFF8C800FFF70C
:1024B000EBFB002034E02BE0B4F80A90B9EB030901
:1024C0004046494680B289B2884200D2C1464A4657
:1024D00092B260689BB200EB0301300080B205EB62
:1024E000000A504604F0E6F919EB070719EB060657
:1024F000B8EB090800230AE0180080B20028DBD0FE
:102500001800618980B28842D6D360891B1A24687A
:10251000404680B2002801D0002CEDD1380080B2B6
:10252000BDE8F087A89E042038B515000A0012B255
:102530002989C0B2FFF703FC0400002C01D1002060
:102540000EE029002000FFF7F5FE40B2002806D07B
:10255000064B40F224521F490648FFF795FB200026
:1025600032BD0000549E0420DF1C00087055010895
:1025700054640108EC6901086462010828660108D6
:1025800090760108847B0108787901089079010828
:10259000AC760108FC7E010804720108987B0108F2
:1025A000A8790108CC6E0108AC7B010848600108DD
:1025B00084640108C87C0108B4640108C07901087A
:1025C000C8760108D87C0108546601082472010805
:1025D000F06E0108C07B010810B40300C243002A5A
:1025E00001D0002801D101201AE091F8292092079A
:1025F00001D4002014E04A68904201D100200FE08D
:102600008A6813404C688A681440A34207D18A68DC
:1026100090438968C943884201D1012000E000202D
:1026200010BC70470100080080B2000A50EA012087
:1026300080B270470100080210F47F0050EA016088
:102640000A00120A12F47F42104350EA11607047E8
:1026500080B504F095F98004800CB0F58040DFF877
:102660001015088001BD10B50400207D012808D197
:10267000DFF80035D422DFF80015DFF80005FFF79A
:1026800003FB2100002003F0D0FD10BD10B50400B5
:10269000207D012808D1DFF8DC34DF22DFF8E014E8
:1026A000DFF8D804FFF7F0FA2100012003F0BDFDA8
:1026B00010BD80B500F0DAFCDFF8C8040178491CD1
:1026C00001700078C00701D500F076FA01BD38B579
:1026D00004000D00002D08D1DFF89834FF22DFF848
:1026E000A814DFF89804FFF7CFFA05E0E06FA842DE
:1026F00001D10020E067E468002CF7D131BD38B586
:102700000400002C09D1DFF86C3440F21112DFF81C
:102710007C14DFF86804FFF7B7FA207D012809D0A0
:10272000DFF850344FF48972DFF86414DFF84C049A
:10273000FFF7AAFA012508E02100DFF8580450F855
:1027400025000068FFF7C3FF6D1C042DF4D331BDD5
:102750003EB504000D00002C09D1DFF818344FF409
:10276000AF72DFF83414DFF81404FFF78DFAEDB21E
:10277000002D4ED0207D042802D0207D072848D18E
:10278000A06F002803D1208DB0F5066F41D0A07E48
:10279000C00609D4DFF8DC334FF4B272DFF8FC1363
:1027A000DFF8D803FFF770FA208B0290E08A0190DF
:1027B000201D00902300626A216D200001F0ADFE13
:1027C000200000F03FFEDFF8D8030168A14203D1EA
:1027D0000168C968016009E0006800E0C06800287D
:1027E00004D0C168A142F9D1E168C1600020E06075
:1027F0000120DFF8B0130870DFF8AC030068A042D6
:1028000002D1FFF701FA02E02000FFF72CFF0020C1
:1028100022E0207D002803D002282AD01DD335E0F5
:10282000E08A002814D0DFF884030168A14203D1B4
:102830000168C968016009E0006800E0C06800281C
:1028400004D0C168A142F9D1E168C1600020E06014
:102850002000FFF708FF00203EBD2000FFF74FFFDC
:102860002100DFF84C0300F029FE2000FFF70EFFE7
:10287000F1E72100DFF8280300F020FE0120DFF857
:10288000241308702000FFF7EEFEE4E7200000F0BC
:1028900001F8E1E738B50400002C09D1DFF8D432A3
:1028A0004FF4CE72DFF8E412DFF8D002FFF7ECF954
:1028B000207D032804D0042816D007281FD029E043
:1028C000200001F00EF90500280040B2002801D1D7
:1028D00005202075280040B200281DD1200001F0FD
:1028E000FDF9280040B232BD200001F0FAF80500E1
:1028F000280040B2002801D105202075EAE7200019
:1029000001F0EFF80500280040B2002801D10920AD
:102910002075DFE70020E6E728005FF0FF3140B2D6
:102920008842DED1608B50F0080060830020DAE737
:1029300080B500280CD1DFF83C324FF4F472DFF898
:102940007412DFF81807FFF79FF97FF00F0009E016
:10295000017D012903D0418B51F0100141830121F8
:10296000FFF7F6FE02BD2DE9FE4F04008B46002C5A
:102970000AD1DFF8003240F23D22DFF8E416DFF83A
:10298000FC01FFF781F973E0207D012809D1DFF810
:10299000E43140F24122DFF8CC16DFF8E001FFF726
:1029A00073F9207D0A2808D12100DFF8BC0600F069
:1029B00085FD2000FFF757FE5AE000250026276D11
:1029C000D4F82480D4F89090D4F810A0207D00286A
:1029D00018D1E08A002820D0DFF8D0010168A14298
:1029E00003D10168C968016009E0006800E0C068BF
:1029F000002804D0C168A142F9D1E168C16000207B
:102A0000E0600AE05D46E68A2100DFF8940100F00C
:102A100055FD0120DFF88C110870206F002802D0CE
:102A2000206F00F0BAFBE06E002802D0E06E00F0EC
:102A3000B4FB606F002802D0606F00F0AEFB002D89
:102A40000BD0208B0290B6B20196201D009023007F
:102A500042463900200001F060FD207D2000FFF794
:102A600002FE4846002803D07FF00C015046C847BC
:102A7000BDE8F78F80B50121FFF775FF01BD38B5BF
:102A80000400002C08D13B4B40F2A632DFF8E418DA
:102A9000DFF8C805FFF7F8F8606A218D4018618EED
:102AA00040F23142914202DB4FF4866100E0618ED8
:102AB000E26A821A511A002904D4218D6185E16AE3
:102AC000401A18E0616AE06A091A012902DB002055
:102AD00060850FE0E06A656A451BB5F5803F08D365
:102AE000244B40F2B632DFF89018DFF87005FFF79C
:102AF000CBF86585002032BD38B504000D00002CF0
:102B000009D11C4B40F2CF32DFF87018DFF84C05CA
:102B1000FFF7BAF82AE0207D012808D1154B40F2D2
:102B2000D332DFF81C19DFF83405FFF7ADF8208D3C
:102B30002D18280080B240F66101884204DA28008E
:102B4000218D80B2884203D24FF40660208500E0D8
:102B500025852000FFF793FFB0F5067F06D3608B35
:102B600050F002006083200001F0B8F831BD000091
:102B70001C03002090590108D47B0108146A010845
:102B8000E4760108AB9E04203C6A0108087F010836
:102B9000D8790108287D01084472010800770108EE
:102BA000549E0420AA9E0420709E04204C9E042063
:102BB000509E0420F07901082DE9FE4F0020DFF837
:102BC000F098D9F80000401CC9F80000DFF8E4A82C
:102BD0009AF80000401C8AF8000035E0DBF800009D
:102BE000A84209D0DFF8243A40F27152DFF8C81841
:102BF000DFF86804FFF748F8E868CBF80000F6B2A1
:102C0000002E0BD0288B0290E88A0190281D00909E
:102C10002B006A6A296D280001F07FFC2E69287D4F
:102C20002800ED68FFF71FFDDFF87C89002088F899
:102C300000003800002803D07FF00C013000B847B6
:102C400098F80000002807D00024DFF834B9DBF83A
:102C5000005001E02C00ED68002D00F0B681287DC9
:102C6000002809D1DFF8A43940F2BE42DFF83C1950
:102C7000DFF8E803FFF708F8287D012809D1DFF81D
:102C80008C3940F2BF42DFF82819DFF8D003FEF795
:102C9000FBFF287D0A2809D1DFF870394FF49862CC
:102CA000DFF81019DFF8B403FEF7EEFFA87F9AF8FB
:102CB00000108842CED09AF80000A877002700269E
:102CC000287D022805D195F84200062801DB7F1CEB
:102CD000CEE095F842000C2801DB7F1CC8E095F897
:102CE0009900002863D0286F002809D0DFF81C392C
:102CF00040F2D442DFF81819DFF86003FEF7C4FF92
:102D0000E86E002809D1DFF8043940F2D542DFF837
:102D10003C19DFF84803FEF7B7FF95F89A000C2836
:102D200001DB7F1CA4E0DFF8280995F8991008441E
:102D300010F8010C95F898100200D2B2914204D21A
:102D400095F89810491C85F8981095F89810C0B21D
:102D50008142C0F08D805FF00108B5F86000002866
:102D600007D1280001F0B8FC002810D05FF000085F
:102D70000DE0B5F86010280000F0B1FD002806D184
:102D8000280000F0ABFF002801D15FF00008B8F187
:102D9000000F6DD0002085F8980095F8990007285D
:102DA00066D295F89900401C85F8990060E0B5F965
:102DB0003000002808D4B5F9300047F6FF7188428A
:102DC00002D0288E401C2886B5F93000B5F9401095
:102DD00088424DDB280001F0A1F9002805D0286FBA
:102DE000002845D1E86E002842D0287D02281AD05C
:102DF00095F842000C2802D295F8420000E00C2021
:102E0000B5F93C10C910B5F93E208918DFF88C28B7
:102E1000C0B2105611FA00F047F6FF71884200DB8D
:102E20000800A5F8400000202886B5F84800B5F84D
:102E30006010884202D2B5F8480001E0B5F86000A1
:102E400080B24008A5F84A00B5F84A00698E4900EA
:102E500089B2884203D2688E4000A5F84A00688E85
:102E6000A5F848000020A5F86A00280001F0A1F9A3
:102E7000287D062809D1A87EC00606D5D9F80010FD
:102E8000286A091A292900D37F1C687A000734D5DB
:102E9000287D042802D0287D07282ED1D5F894104B
:102EA000DFF8FC0741184FF4FA70B1FBF0F1D9F8E4
:102EB0000020286A121A914202D27F1C761C1CE064
:102EC000D5F8941095F89B20DFF8D80700FB021185
:102ED0004FF4FA70B1FBF0F1D9F80020286A121A09
:102EE00091420AD2280001F0C1FB40B2002804D16F
:102EF00095F89B00401C85F89B00686F00280DD05A
:102F0000D9F80010286A091AB5F94000062210FB0A
:102F100002F0814202D3280000F0FCFB287D032848
:102F200006D1D9F80010286A091A292900D37F1C74
:102F3000287D092806D1D9F80010286A091AF12934
:102F400000D37F1CFFB2002F17D0D5F89070280057
:102F500000F078FA002C3FF441AEDBF80000854227
:102F600008D1DFF8A83640F26D52DFF83C173B4835
:102F7000FEF78AFEE868E06041E62C00ED68207FFD
:102F8000401C2077207F617F8842FFF465AE0020DF
:102F90002077DFF8146600203070D4F88C00002809
:102FA00006D021002069D4F88C209047010000E071
:102FB0000021307800287FF447AE49B200297FF421
:102FC0004BAE200000F08AFE46E60024264E35680F
:102FD00011E03068A84208D0DFF8303640F2B35232
:102FE000DFF8C8161D48FEF74FFEE868306028007D
:102FF000ED68FFF738FB002D2DD0287D0A2808D07A
:10300000DFF8083640F2A152DFF8A4161348FEF7A5
:103010003BFE0020D9F80020296A521AF12A00D379
:10302000401CC0B2002813D0280000F00BFA002C7E
:10303000CFD03068854208D1DFF8D03540F2AF52AA
:10304000DFF870160548FEF71FFEE868E060CEE77F
:103050002C00ED68CFE7BDE8F78F0000146A010887
:103060001C77010898620108589E0420F8B5DFF823
:1030700044542878401C287029E02878A077A07E46
:10308000C0070BD5608B50F002006083200000F079
:1030900025FE618B4FF6FC7001406183A07E000726
:1030A00007D5618B4FF6F770014061832000FFF771
:1030B000F1FBE668A06F00280DD0DFF8EC7400206B
:1030C0003870200000F011F83878002803D0DFF8BD
:1030D000E805046800E03400002C05D0A07F2978C2
:1030E0008842CAD1E468F7E7F1BDF8B50400002CC6
:1030F0000CD1DFF8183540F20962DFF8C015DFF8AF
:10310000C005FEF7C1FD7FF00F0045E0A06F467BD4
:10311000A56F0020A067D4F88400002807D0002302
:103120002A0021002069D4F88470B84705E0002304
:103130002A002100002000F069F8010049B20029AE
:103140001DD1B00627D5208DB0F5066F02D0208D99
:10315000401C2085D4F88400002808D000230022D9
:1031600021002069D4F88440A047010000E000213C
:103170007FF00C00020049B291420CD10CE07FF0CC
:103180000C010A0040B2904201D1080004E0A5679A
:103190007FF0040000E00020F2BD10B503E00468F9
:1031A00000F004F820000028F9D110BD10B504008B
:1031B000002C09D06068002802D06068FEF7E9FFA3
:1031C0002100022003F031F810BD70B50500002D7C
:1031D00009D1DFF8383440F28262DFF8E814DFF812
:1031E000E004FEF751FD022002F0F2FF0400002C83
:1031F00001D1002009E0102226002900300003F050
:1032000059FB6068FFF741F8200070BD10B5080059
:10321000140000280CD1DFF8B0344FF4D362DFF88B
:10322000AC14DFF89C04FEF72FFD7FF00F0008E0E0
:10323000002C07D02189FFF75FFC2000FEF7A9FFD3
:10324000002010BD5BB2002BFAD1FFF771FBF8E74D
:10325000000038B50100C9B2802901DB7F20FFE7FB
:103260000100C9B2002923D0441E00230020DFF84A
:103270004814096816E04A7D2500EDB2AA420AD337
:103280004A7D2500EDB2AA420BD1894A15680A6A27
:10329000AD1A9D4205D3864800680B6AC31A080020
:1032A0004C7DC9680029E6D1002801D0FFF7E2FB78
:1032B00031BD70B504002000C0B208280DD0200038
:1032C000C0B2092809D0DFF8003440F2DD62DFF82F
:1032D0000014DFF8EC03FEF7D7FC00230022DFF830
:1032E000D80300680FE0017D2500EDB2A94209D1A5
:1032F0006F4D2E68016A761A9E4203D32968036ACD
:10330000CB1A0200C0680028EDD1002A03D00021AA
:103310001000FFF728FB70BD38B500230020DFF850
:10332000B41309680AE0624C25680A6AAD1A9D4226
:1033300003D320680B6AC31A0800C9680029F2D1B8
:10334000002801D0FFF796FB31BD10B5DFF8680308
:1033500000680BE0C468817E090706D5428B4FF6F2
:10336000F7710A404283FFF795FA20000028F1D157
:1033700010BD0000146F010838770108087A0108B1
:1033800070B50500002002F023FF0400002C23D1BB
:10339000FFF7DBFFFFF7C0FF002002F019FF04007A
:1033A000002C19D10920FFF784FF002002F010FF44
:1033B0000400002C10D10820FFF77BFF002002F052
:1033C00007FF0400002C07D12800C0B2FFF741FF1F
:1033D000002002F0FDFE0400002C2FD09C210022D2
:1033E0002600300003F01EFB65754FF48660A4F8DC
:1033F00064004FF406616185618D2185FF21E172D2
:103400004FF4067161860621A4F840100621E18779
:103410005FF0FF3121860121A4F848102449096892
:10342000216224490978A177A4F84A00DFF8A802AC
:10343000C4F88400DFF8A402C4F89400200070BD32
:10344000646A010810B50400002C07D16F4B40F6E8
:103450005102A3499A48FEF717FC26E0207D002878
:1034600023D0207D0A2820D0207D01281DD0A06FE8
:10347000002804D0A06FFEF78CFE0020A067606FCC
:10348000002802D0200000F045F95FF0FF302086D0
:10349000E06EFFF782FE206FFFF77FFE0020E06600
:1034A000E06E20670020A4F8680010BD0000000056
:1034B000489E0420AC9E04200467010838B505002E
:1034C0000C00002C06D1804B40F6830285497C48D5
:1034D000FEF7DAFB002D06D17B4B40F684028249D1
:1034E0007748FEF7D1FB2868A04203D12868C0685E
:1034F000286009E0286800E0C068002804D0C1689E
:10350000A142F9D1E168C1600020E0602000FFF72E
:1035100099FF207D0A280CD0207D012809D0A07EAB
:10352000C00706D5608B50F002006083200000F0D9
:10353000D5FB207D01281DD0E06E002806D0624B0F
:1035400040F6930269495E48FEF79EFB206F002813
:1035500006D05D4B40F6940265495948FEF794FB4E
:10356000606F002806D0584B40F6960261495448D7
:10357000FEF78AFB002020750020E08231BD0000AC
:10358000549E042080B5002806D14F4B40F6AF0270
:1035900059494B48FEF778FB58490A685848006873
:1035A00082180A60086802BDAA9E0420806601088D
:1035B000AC660108E464010838B505000C00002A77
:1035C00006D1414B40F6C5024E493D48FEF75CFB33
:1035D000002C02D1280080B217E0218C080080B2B4
:1035E000002810D0282002000B0092B29BB29A4211
:1035F00001D2081A00E000202900020089B292B22C
:10360000914200D30500280080B232BD90590108D4
:10361000CC62010870B505000C00002D06D12A4BC4
:103620004FF4106238492648FEF72EFB04E0E668A6
:103630002000FFF71FFA3400002C05D0206829680D
:103640008842F4D0E468F7E770BD000080600108AC
:10365000AC7F010838B504000D00002C1DD0206897
:1036600000281AD0144801682000FFF7D3FF27482C
:1036700001682000FFF7CEFF002D0ED0286800283B
:103680000BD02348006806E001682268914201D10E
:1036900029680160C0680028F6D131BD187D010895
:1036A000B84C0A00F8240100D8660108B46A010881
:1036B000146501088C6A0108549E0420DC6A010824
:1036C000146A0108547701089059010870770108BD
:1036D000087D0108589E04200D32000800DD6D00B1
:1036E0008C770108A877010864720108207A010824
:1036F000C4770108387A0108E07701080C0000203F
:10370000489E0420046B0108006301084C9E0420BD
:10371000509E042010B50400606F002804D0606F34
:10372000FFF73BFD0020606710BDF0B40246106853
:1037300095681318506803EB5004C0071DD54D441D
:103740001BE013F8017B05F8017B491EF9D1A0B1FC
:10375000B60813F8011B06F00306032E08BF13F882
:10376000016B01EB06214942801C294405D011F868
:10377000016B05F8016B401EF9D1A3420ED013F87E
:10378000016B16F0030104BF13F8011BC91C3009BB
:103790000F28DAD113F8010B0F30D6E7F0BC02F195
:1037A0000C00704780B5002806D0017A002903D0AC
:1037B000007A03F0F6FA02E0100001F03DF902BDD4
:1037C0002DE9F04705000E0091469A46002D08D1DC
:1037D000DFF86C33A322DFF86C13DFF86C03FEF71D
:1037E00053FA002E08D1DFF85833A422DFF85C1317
:1037F000DFF85403FEF748FA089FF80702D55FF098
:10380000040801E05FF00008B80701D5002000E0DF
:103810000020390701D5002100E00021FA0601D57A
:10382000002200E0002210EB080811EB080812EB60
:103830000808022002F0CCFC0400002C04D1300067
:10384000FEF7A7FC002048E0A77200202060666019
:1038500030894146C9B289B2884208D2DFF8E032E5
:10386000B022DFF8EC12DFF8E002FEF70DFA318942
:103870004046C0B2091A218114213000FEF737FCFE
:10388000002804D02000FFF791FC002025E06068AC
:103890004068E060E88AFEF7C5FEE1680880288B92
:1038A000FEF7C0FEE16848805046FEF7C3FEE168BF
:1038B00048605FFA88F8042098FBF0F0401D5FFA3A
:1038C00089F959EA0039484680B2FEF7ABFEE16853
:1038D00088810020E16848822000BDE8F0872DE95A
:1038E000F84F06008846002400200020002E07D153
:1038F000934B40F24B32DFF83C1B9348FEF7C4F980
:10390000F76E002F02D15FF0FF306FE0404680B2CB
:1039100000280AD18A4B40F25332DFF81C1B8A4838
:10392000FEF7B2F97FF0050060E04046398980B2C9
:10393000884201D3002059E0708E414689B2884206
:1039400007D27F4B40F25B32DFF8F01A7E48FEF779
:103950009BF93889002807D1794B4FF45772DFF86B
:10396000E01A7948FEF790F997F80A905FEAC97073
:1039700002D55FF0040B01E05FF0000B5FEA897095
:1039800001D5002000E000205FEA097101D5002187
:1039900000E000215FEAC96201D5002200E00022B8
:1039A00010EB0B0B11EB0B0B12EB0B0BB7F808A08A
:1039B000BAEB080A4FF420725AFA8BF189B236201A
:1039C000FEF7BDF90500002D12D1002C07D05C4B8D
:1039D0004FF47672DFF8DC1A5B48FEF755F9002DDC
:1039E00002D02800FEF7D5FB5FF0FF30BDE8F28F74
:1039F000786800893B89C31A18EB03039BB25246CF
:103A000092B268685FFA8BFB00EB0B017868FEF7F7
:103A10002FFD514689B28842D7D1F8688089FEF7D8
:103A200001FE83461BF03F0B00245FEA0B7003D5B9
:103A30001BF0F70B54F008045FEACB7003D51BF0C2
:103A4000FE0B54F00104F9684868FEF7F3FD5FFAD5
:103A500089F9CDF8009010FA88F32200D2B229003B
:103A60003000FFF7ADFE0400002CAED07868FEF702
:103A700003FCB6F86610081AA6F866007868018993
:103A8000B1EB0A0189B27868FEF795FA3889B0EB94
:103A90000A0AA7F808A05FFA8BFB584680B2FEF727
:103AA000C1FDF96889890843F96888817868FEF75B
:103AB000E3FBB6F866104018A6F866006068FEF7EB
:103AC000DBFBB6F866104018A6F866003868206080
:103AD0003C602068002802D10020A6F86800002081
:103AE00084E738B50400002C07D1154B40F2EB32C7
:103AF000DFF8B81A1448FEF7C7F8E06E00281AD0AD
:103B0000E56E00E02D6828680028FBD1E868808910
:103B1000FEF788FD10F0070F0DD10120FEF782FDA2
:103B2000E96889890843E9688881608B50F0200042
:103B30006083002003E00121200000F00BF832BD7B
:103B40001857010864730108446C0108386F0108B4
:103B5000807A01082DE9FC4104000D0000260020B8
:103B600015F0030F09D1DFF8F83A40F21242DFF8FE
:103B7000F41ADFF8540BFEF787F8002C09D1DFF8B0
:103B8000E03A40F21342DFF8E01ADFF83C0BFEF7B0
:103B90007BF8A80700D50126F00701D5042700E02F
:103BA0000027B00701D5002000E00020310701D533
:103BB000002100E00021F20601D5002200E00022F1
:103BC000C719CF19D7194FF420723900C9B289B279
:103BD0003620FEF7B4F88046002806D1608B50F0FE
:103BE000800060835FF0FF3075E0B8F80A00FFB234
:103BF000BFB2B84209D2DFF8683A40F23A42DFF881
:103C0000CC1ADFF8C40AFEF73FF8F6B20096E36D6F
:103C10002A00D2B241462000FFF7D2FD060000285C
:103C200006D1608B50F0800060835FF0FF3052E07F
:103C3000307B10F0030F09D0DFF8243A40F2424203
:103C4000DFF88C1ADFF8800AFEF71EF830890028AA
:103C500009D0DFF80C3A40F24342DFF8781ADFF877
:103C6000680AFEF711F8E06E002801D1E66606E06A
:103C7000E16E00E0096808680028FBD10E600020B2
:103C8000A4F8680015F0030F02D0E06D401CE06559
:103C9000E80703D5608B50F0200060837068FEF762
:103CA000EBFAB4F866104018A4F86600B4F86600A1
:103CB00000280FD0206F00280CD1E06E002809D119
:103CC000DFF89C3940F26642DFF8F81ADFF8F809AD
:103CD000FDF7DAFF0020BDE8F68100002DE9F0478E
:103CE0000500002D09D1DFF8783940F2E142DFF814
:103CF000D81ADFF8D409FDF7C7FF287D012809D1BC
:103D0000DFF85C3940F2E442DFF8C01ADFF8B809A6
:103D1000FDF7BAFFDFF8B80A0068A84201D1002019
:103D2000F8E0B5F86000B5F84810884202D2B5F85E
:103D3000608001E0B5F84880EC6E002C07D1A87EC9
:103D4000800703D5280000F033FCE3E0DCE02A1D07
:103D500029002800FFF726FD0600002E02D17FF083
:103D60000300D7E0002D02D0286800280BD1002ED8
:103D700001D0301D00E00020002802D17FF00300B8
:103D8000C8E000682860E1684868FEF753FC696C89
:103D9000401A2189401880451BD2B5F86000804543
:103DA0000FD1286F00280CD195F89900002808D170
:103DB000002085F89800012085F89900002085F8FA
:103DC0009A00A87E800703D5280000F0F1FBA1E04F
:103DD0009AE0002085F899002F6F002F04D000E0B2
:103DE0003F6838680028FBD1002C00F08780E1682C
:103DF0004868FEF71FFC696C401A2189401880450D
:103E00007CD3E0688089FEF70DFC400709D5DFF818
:103E1000503840F23752DFF8BC19DFF8AC08FDF734
:103E200033FF286F002817D0A87E10F0440F13D15D
:103E3000E86E002808D0E86E006800280CD1E86E13
:103E40000089698E884207D2B5F86400002803D043
:103E5000B5F86600092801DB012000E000200028F9
:103E600003D1A87E10F0A00F48D0287D022807D0EB
:103E70001020FEF7D7FBE16889890843E168888153
:103E800032002900200000F09BF8010049B200290F
:103E900042D12068E866287D022804D0698B4FF65D
:103EA000FC7001406983E1684868FEF7C3FB814606
:103EB000E0688089FEF7B6FB10F0030F32D00121D5
:103EC000208919EB00000818296D091A002900D56E
:103ED0002865E0688089FEF7A5FB10F0030F23D06A
:103EE000012021894018002850D000202060286F30
:103EF00000281BD12C672700EC6E75E7E86E0028C0
:103F000002D10020A5F86800698B4FF67F70014050
:103F100069830020BDE8F087698B51F080016983D7
:103F200040B2F7E70021CBE70020DAE7E168486814
:103F3000FEF780FB8146F9684868FEF77BFBB9EB2A
:103F40000009B9F1000F1ED515F1700901E0D9F88B
:103F50000090D9F8000000280FD0D9F80000C168FF
:103F60004868FEF767FB8246E1684868FEF762FB37
:103F7000BAEB000ABAF1000FE9D4D9F800002060CA
:103F8000C9F80040B8E73C603F68B5E72000FFF79C
:103F90000DF9B1E710B50400002C09D1DFF8C036E7
:103FA00040F29A52DFF83018DFF81C07FDF76CFE7C
:103FB0006068807B012801D0012000E0002010BD56
:103FC000FEB504000D001600002C09D1DFF8903674
:103FD0004FF4B762DFF80418DFF8EC06FDF754FE83
:103FE000002D09D1DFF8783640F2B952DFF8F0172A
:103FF000DFF8D406FDF748FE002E09D1DFF8603661
:1040000040F2BA52DFF8DC17DFF8BC06FDF73CFEE1
:104010002000FFF7BFFF002801D000207DE0686A84
:10402000FEF708FBE1688860688DFEF7FBFAE1683F
:10403000C881686A698D4018E862E06810F1140769
:10404000A07AC0070CD52A1D31004FF40670FFF787
:10405000B3FA80B250F00170FEF7ECFA38603F1D01
:10406000B5F93000002801D500202886686B0028AB
:1040700008D1DFF8740700686863E1684868FEF7F4
:10408000D9FAA863E16860684068081A61684989DC
:10409000091A6268518161680989081A6168088192
:1040A000E068616848600020E1680882A07AC00783
:1040B00001D5042000E00020A17A890701D5002164
:1040C00000E00021A27A120701D5002200E00022C0
:1040D000A37ADB0601D5002300E00023D4F80CC04E
:1040E00060440844104418441430874209D0DFF873
:1040F000703540F21C62DFF8F416DFF8CC05FDF7EE
:10410000C3FD029606200190A87A0090EB7A2A1D42
:104110002900606800F0C8FD40B2FEBD70B5040023
:10412000002C09D1DFF8383540F26362DFF8C016A1
:10413000DFF89405FDF7A8FD206F002802D17FF07D
:10414000050035E0256F00E02D682868002807D0BD
:104150002800FFF71FFF0028F6D07FF0050027E0BA
:104160002800FFF717FF002802D07FF005001FE0AE
:10417000E06E2860206FE06600202067608B50F4BE
:1041800000606083E9684868FEF754FA0600E86852
:104190008089FEF747FA10F0030F01D0012000E0FC
:1041A0000020298971184018E06400206063002015
:1041B00070BD10B50400002C09D1DFF8A4344FF411
:1041C000D362DFF83016DFF80005FDF75DFD94F8E7
:1041D0004200FF2804D094F84200401C84F84200BA
:1041E0002000FFF77BFD10BD10B50400002C09D1A5
:1041F000DFF86C3440F2AD62DFF8FC15DFF8C8047C
:10420000FDF742FD2000FFF789FF002802D12000C2
:10421000FFF7CFFF10BD0000F8B50400002C09D156
:10422000DFF83C3440F2C162DFF8D015DFF89804C3
:10423000FDF72AFD206F002802D17FF0050033E052
:10424000256F2800FFF7A6FE002802D07FF00500AA
:104250002AE02868206714F16C0600E036683068B0
:1042600000280CD03068C1684868FEF7E3F9070001
:10427000E9684868FEF7DEF93F1A002FEED430688F
:10428000286035602868002802D10020A4F8680062
:1042900094F84200FF2804D094F84200401C84F8AF
:1042A0004200002060630020F2BD000010B5040051
:1042B000002C09D1DFF8A83340F2F962DFF840158D
:1042C000DFF80404FDF7E0FC206F002830D0A07E6A
:1042D00040072DD42000FFF79FFF002828D1B4F815
:1042E0004800B4F86010884202D2B4F8480001E0F7
:1042F000B4F86000022190FBF1F0A4F84A00B4F891
:104300004A00618EB0EB410F04D2608E80B2400053
:10431000A4F84A00B4F84A10628E032042435018B1
:10432000A4F84800608B50F00400608300202086D1
:1043300010BD00002DE9F84F8246884611009946CD
:104340004FF4207211EB0801143189B22220FDF7DD
:10435000F6FC0400002C41D06089414689B214313A
:10436000884208DABE4B40F22472DFF89814DFF876
:104370005803FDF789FC0D9D0C9E0B9F0A98D4F8FD
:1043800004B080B2FEF74EF9ABF80000380080B2FE
:10439000FEF748F9ABF80200CBF804905046FEF760
:1043A00049F9CBF808001FFA88F8042098FBF0F0D0
:1043B000401DF6B256EA0036300080B2FEF732F900
:1043C000ABF80C00280080B2FEF72CF9ABF80E0019
:1043D0000020ABF810000020ABF812002000BDE870
:1043E000F28FF8B584B004000D0016001F00002CF9
:1043F00007D19B4B40F24272DFF80C14B248FDF734
:1044000043FC608D039010200290208B0190E08A85
:1044100000903B00320092B2290089B2606AFFF737
:1044200089FF002803D0616A628D8918E16205B0B6
:10443000F0BD00005C6F0108806F0108787D010805
:10444000887D010870B50C0016000025002C07D1EE
:10445000834B40F25672DFF8B4139B48FDF714FC0F
:10446000616811F11400F20701D5042200E0002276
:10447000B30701D5002300E00023340701D5002451
:1044800000E00024F60601D5002600E00026ADB2CB
:1044900001EB85011144194421443144143188420F
:1044A00006D06F4B40F27572D0498748FDF7ECFBA0
:1044B00070BD0000207F0108FEB505000C0016004D
:1044C0001F00002C06D1664B40F28772D0497E480F
:1044D000FDF7DAFB3A0031002800FFF763F9002806
:1044E00002D17FF0030512E0002D02D0EB7AA97A09
:1044F00001E0FF230021029006200190C9B2009143
:10450000DBB23A003100200000F0CEFB05002000B5
:10451000FDF73FFE280040B2FEBD2DE9F84F84B004
:1045200080468A4691461C00002C06D14C4B40F236
:10453000C472B8496448FDF7A7FB0E9D002D06D153
:10454000474B40F2C572B4495F48FDF79DFB109E92
:104550000F9F50465FF0000A46F2080BFEF76AF81C
:104560001FFA8BFBCDF80CB014210291B6B2019664
:10457000BFB20097030000225146C9B289B2484633
:10458000FFF7D8FE0600002E0CD05346DBB2002207
:1045900031004046FFF756FF2B0022003100404615
:1045A000FFF78AFF05B0BDE8F08F000088780108AA
:1045B000F8B5040000260027002C06D1284B40F255
:1045C000EA7296494048FDF75FFBF00701D50425E4
:1045D00000E00025B00701D5002000E000203107F1
:1045E00001D5002100E00021F20601D5002200E003
:1045F000002245194D195519206DFEF71BF80300CF
:104600000022EDB2290089B22000FFF7EAFE050082
:10461000002D06D1608B50F0030060837FF0010015
:104620001CE03B00DBB23200D2B229002000FFF7D1
:1046300009FF231D220029002000FFF73DFF010094
:1046400049B2002904D0618B51F00301618304E079
:10465000628B4FF6FC710A40628340B2F2BD0000EB
:1046600018570108285D01088473010870B505001A
:104670000026002D06D16A4B40F6240269491248F3
:10468000FDF702FB286D401EFDF7D4FF030000225A
:104690003100C9B289B22800FFF7A3FE0400002C44
:1046A00002D15FF0FF300DE03300DBB200222100C9
:1046B0002800FFF7C7FE2B1D2A0021002800FFF766
:1046C000FBFE40B270BD0000446C0108605F010851
:1046D000987A0108B46701082DE9F84304005FF0F7
:1046E0000008002C06D14E4B40F64F024E494F4871
:1046F000FDF7CAFAE66E002E01D100205FE094F8C3
:104700009A00FF2804D094F89A00401C84F89A007C
:10471000F0688089FDF786FFC00704D5308900283E
:1047200001D1012700E000273800C0B2002801D0E5
:10473000002200E00122F068436892B24146C9B20B
:1047400089B22000FFF74DFE0500002D02D15FF079
:10475000FF3034E0D5F80490FFB2002F0BD01120C9
:10476000FDF760FFB9F80C204CF2FF010A4010433E
:10477000A9F80C000BE0686810F114017068038957
:1047800030891B1A9BB201227068FDF771FEF16837
:104790004868FDF74FFF401C216D091A002900D51C
:1047A00020654346DBB2002229002000FFF74AFEC5
:1047B000231D220029002000FFF77EFE40B2BDE845
:1047C000F28300006C6C0108B07A0108946C010857
:1047D000709E0420C87A0108BC6C0108A47301080B
:1047E000C4730108A46F0108489E0420FC7B0108E3
:1047F000C86F0108EC6F0108A4780108E07A01088D
:10480000E473010874650108E46C01080C6D01088B
:10481000E0670108C0780108DC7801080474010829
:1048200018570108F878010810700108446C010855
:1048300080B5FDF73EFF73480068002803D1724839
:104840000068002805D000227049FA2000F080F8A6
:1048500002E000206E49086001BD80B56C4908681F
:1048600000280ED167480068002803D16648006818
:10487000002806D00120086000226449FA2000F0D8
:1048800067F801BD70B504000D001600092001F0A5
:104890009FFC002808D1002805D15E4BBE225E494E
:1048A0005E48FDF7F1F927E0002101608560C660F0
:1048B00044605B4A1168002901D110601CE0436824
:1048C000116849685B1AB3F1004F03D311680160A6
:1048D000106011E0126800E01268002A0CD0116824
:1048E000002906D04368116849685B1AB3F1004F8C
:1048F000F2D311680160106070BD38B50400250066
:104900006868804702F0EEFC46490B682968CB18BE
:10491000191AB1F1004F06D3220043492B68181829
:10492000FFF7B0FF04E022003F491800FFF7AAFF9D
:1049300031BD10B5012408E03C4800EBC4023A49FF
:1049400050F8340000F004F8641C032CF4D310BDBC
:1049500070B504000D001600B4F1804F06D32D4B46
:1049600040F2291232492D48FDF78EF902F0BAFCC7
:104970002418320029002000FFF784FF70BD70B5B5
:1049800002F0B0FC040013E04A68A21AB2F1004F32
:1049900013D20A6802608D68CE684868214A1060A8
:1049A000092001F042FC2800002801D03000A8476F
:1049B0001B4801680029E7D1FFE770BD38B5184DE5
:1049C0002868002802D15FF0FF3018E002F08AFC6E
:1049D000040028684068001BB0F1004F01D300209C
:1049E0000DE028684068041BB4F1004F06D3094B62
:1049F0004FF4DC720F490948FDF746F9200032BD3B
:104A000000000000549E0420589E042031480008F5
:104A10008C9E0420044F0108E45E01085C6D0108CF
:104A2000849E0420889E0420FB480008F87A010830
:104A3000F0600108107C010810B4DFF884130968E5
:104A400008E091F82920920703D40268CB689A42C3
:104A500015D00968002914D091F8292012F0050218
:104A6000052AF6D14A68002AF3D003688A68134001
:104A70004C688A681440A342E3D1080019E008009A
:104A800017E0DFF84023116800290FD0116891F872
:104A9000291011F00501052908D11168496800297C
:104AA00004D0007800F0FF007F2801D1002000E052
:104AB000106810BC704780B5010091F82900C0074C
:104AC0000FD5486800280CD0DFF8FC0242694B681B
:104AD0009A4204D04069FDF77FFD002801D00120F3
:104AE00000E0002002BD2DE9F84305000E006F68CC
:104AF0003878C0B20009C0B2042804D02800FDF7FD
:104B000048FB0020CEE0387810F00F005FEA800804
:104B10005FFA88F87888FDF785FD04002000298970
:104B200080B2884204D2210089B22800FDF743FAFE
:104B30006889414689B2884207D32889A4B2A04235
:104B400003D3404680B2142804DA2800FDF721FB85
:104B50000020A7E03869DFF87092C9F81400F868FF
:104B6000C9F8100099F8140010F0F000E0280AD1FC
:104B700096F82900C00704D57068002801D03400D9
:104B80001CE000241AE03000FFF795FF002801D058
:104B9000340013E0002499F8140000F0FF007F288F
:104BA0000CD08748046800E02468002C06D0B4428A
:104BB000FAD02000FFF77FFF0028F5D03100D9F8A8
:104BC0001000FDF709FD002805D199F8100010F03C
:104BD000F000E02804D12800FDF7DBFA002061E0B6
:104BE000002C04D12800FDF7D4FA00205AE0F88800
:104BF0004FF63F71084208D0280002F090FD0500F2
:104C0000002D01D100204DE06F68C9F80040C9F8BF
:104C10000460C9F80870387810F00F008000C0B246
:104C2000A9F80C00414689B22800FDF765FA787AA8
:104C3000012806D0062809D131002800FBF7DCFA4C
:104C40001DE03100280003F003F818E02100D9F836
:104C50001400FDF7C1FC00280ED199F8140010F0E3
:104C6000F000E02808D0414609B22800FDF78BFA91
:104C70000221280003F0C3F82800FDF78AFA00207B
:104C8000C9F800000020C9F804000020C9F8080095
:104C90000020A9F80C000020C9F810000020C9F875
:104CA00014000020BDE8F2837FB50A9E0C00002AA4
:104CB00005D0002902D00968002900D1341D0999C6
:104CC000089D0296C9B20191EDB20095DBB22100B8
:104CD00000F002F804B070BD2DE9F84306000D00A5
:104CE00014009846B07B012806D0384B4FF455721B
:104CF00037493848FCF7C8FF002C42D05FF0140950
:104D000014213000FDF7F3F9002802D07FF00100F4
:104D100054E077687089142806D22C4B40F289320F
:104D20002D492C48FCF7B0FF0998089987F80880AE
:104D30007872206838611FFA89F9042099FBF0F035
:104D400050F04000387079703089FDF76BFC788046
:104D50000020F880DFF88480B8F80000FDF762FCDE
:104D6000B880B8F80000401CA8F80000002D03D15E
:104D70001B480068F86001E02868F860002078812E
:104D800009E07089142802DA7FF0010016E07068EB
:104D9000016900916C460A9B188C002809D0188C78
:104DA0003189884205D222001900300002F00FFE3E
:104DB00004E02200310018005B699847BDE8F283E7
:104DC000F89D0420FC9D0420D09C04202C4E01085A
:104DD000187E0108FC68010864630108989E04209D
:104DE000008001082DE9F04F0FF2A41CA1B0DCE90E
:104DF0000089CDE900892A9DDFF8109C04910024E8
:104E00008DF843500D944FF0FF38824616461F46EA
:104E10000FE0B3462C461BF8011B0498D04700282E
:104E2000049000F0A2800D98401C641E0D90F2D1F9
:104E300076193078252808D10021002207910892A0
:104E400009910A920B910C920DE06A464146304658
:104E500003F0A5F8050001D10D98A1E0D9D50125F1
:104E6000E6E741F0010116F8010F2028F9D02328C8
:104E70000CD02B2804D02D2805D0302809D076E07E
:104E800041F00201EFE741F00401ECE741F00801D5
:104E9000E9E741F01001E6E70F9209E00F98484575
:104EA00005DA00EB800402EB4402303A0F92761CE4
:104EB0003278A2F130000A28F0D330782E2818BFBB
:104EC000CDF8388022D116F8010F2A2807D138688A
:104ED0003860761C50F8042B38600E9216E02D28AE
:104EE0000CBF761C002000220E920AE040B90E9AF8
:104EF0004A4505DA02EB820403EB4403303B0E9390
:104F0000761C3378A3F130020A2AEFD3ADF84010B3
:104F100021A0317803F054F808B116F8010B8DF890
:104F200042009DF84200682804D1307868280AD1F0
:104F3000622105E06C2804BF30786C2803D1712110
:104F40008DF84210761C12A806903A4616F8013BDE
:104F500002A9504600F064F838B912AA02A95046D6
:104F600000F0CAF900287FF564AF404618E02A280F
:104F700092D13A683A6052F8040B3A6000280F90D8
:104F800003D540420F9041F00401761C95E70000E4
:104F90000000000000000000686A6C747A4C000099
:104FA00021B0BDE8F08F622820D0682811D06A288F
:104FB00003D06C2827D0712825D10868C01D20F0A7
:104FC00007000860D0E90023083008601946104641
:104FD0007047002A0A680A60106803D0121D0A6030
:104FE00000B217E0121D0A6080B217E0002A0A68BA
:104FF0000A60106803D0121D0A6040B20AE0121D58
:105000000A60C0B20AE0002A0A680A60106803D089
:10501000121D0A60C1177047121D0A6000217047F7
:105020007CB50D4611461C462E69B4F1250200F0F0
:1050300051811C3A00F08680121F022A40F28280C1
:105040000E3A00F00B81521F5AD0093A7AD0921EC4
:1050500016D0521E35D0521E022A73D9121F30D0DC
:10506000521F00F09A80521E4AD0521E00F0E48077
:10507000D21E00F00181921E42D0D21E40D02FE1FC
:1050800095F83A406C2C09D06869421C6A610A683C
:105090000A6052F8043B0A6033542BE10A680A6044
:1050A00052F8043B0A600093002201924FF0FF3354
:1050B0002B636A46294600F09AF9002840F11A81CC
:1050C00005E195F83A000122FFF76DFFC5E90001FF
:1050D0000023994204DA6869411C69612D220DE0C0
:1050E000288F810704D56869411C69612B2205E07E
:1050F000C00722D56869411C6961202232541CE036
:1051000095F83A000022FFF74EFFC5E9000195F837
:105110003800010711D5D5E900230020834208BFDC
:1051200082420AD044F02000782806D168693021F4
:105130003154401C421C6A61345421466869304431
:10514000E86087E00868C01D20F007000860D0E92B
:10515000002308300860C5E90023D5E90001C80F25
:1051600004D06869411C69612D220DE0288F8107F8
:1051700004D56869411C69612B2205E0C00704D58C
:105180006869411C69612022325468693044E860D2
:105190002146284600F03AFAACE005F13A02507890
:1051A00020B14FF0FF340FF6343074E010786228ED
:1051B00008D0682824D06A2812D06C282ED07128F4
:1051C0000ED02BE00A680A6052F8040B0A6020B97E
:1051D0004FF0FF340FF61C305DE0E96A017089E0A2
:1051E0000A680A6052F8040B0A6020B94FF0FF34D5
:1051F0000FF600304FE0EA6AD317C0E9002379E0E8
:105200000A680A6052F8040B0A6020B94FF0FF34B4
:105210000FF6E0203FE0E96A01806BE00A680A606F
:1052200052F8040B0A6020B94FF0FF340FF6C42087
:1052300031E0E96A01605DE00A680A6052F8040B37
:105240000A60002120F0000221F0FF33C5E90023AD
:10525000EE607821284600F02DF94BE06C2285F8AD
:105260003A200B680B6053F8042B0B6052BB4FF0D5
:10527000FF340FF6B4200EE095F83A206C2AF0D0F7
:105280000868086050F8044B0860EC603CB94FF0C7
:10529000FF340FF6782002F0A3FE201A76BD2E6BA5
:1052A000002E04D5204602F0BBFE044608E032463C
:1052B0000021204602F0D0FE002814BF041B344613
:1052C000AC6117E0294600F092F8002812D54FF0A3
:1052D000FF3076BD6869411C69612522325409E0BE
:1052E0006969481C686125227254210002D0431C60
:1052F0006B613454002076BD2DE9F0410E46054621
:105300009046726B7069316AB46A121AB069521AA7
:10531000716A121AF069521A121A96F83800141BA0
:1053200041070DD4002C0BDD2746B0682021A8478B
:105330000028B06057D0F06A401C7F1EF062F4D1A4
:10534000736942463146284600F0B0FC00284AD135
:10535000376A002F0ADDB0683021A8470028B06006
:1053600041D0F06A401C7F1EF062F4D1B369F2684C
:105370003146284600F09AFCA8BB776A002F09DD69
:10538000B0683021A847B06068B3F06A401C7F1E47
:10539000F062F5D1F068B169F369421831462846E8
:1053A00000F084FCF8B9B76A002F09DDB06830213D
:1053B000A847B060B8B1F06A401C7F1EF062F5D11A
:1053C00096F8380041070BD5002C09DDB068202184
:1053D000A847B06038B1F06A401C641EF062F5D195
:1053E0000020BDE8F0814FF0FF30BDE8F0812DE9ED
:1053F000F8470D46A3B02F6B002F0646904648BFD6
:105400006FF000470FF63C1402F052FED4E900237F
:10541000696B4018CDE90123812828BF4FF0FF3088
:1054200042D20024002F33DDD8F8001001AA6846CC
:1054300002F0BDFD8146B9F1000F38D4D8F8000064
:1054400010B9B9F1010932D44F4521DB68694844EC
:1054500081280AD30021696303AA29463046FFF751
:105460004BFF040014D40020686103ABD5F814A0EE
:105470004A46694603EB0A0001F01CFACA44C5F823
:1054800014A058F8040B002818BFA7EB0907C9D1CE
:105490004CB903AA29463046FFF72EFF044614B93B
:1054A000002068616863204624B0BDE8F0874FF0B3
:1054B000FF34F8E72DE9FC4707468C463E69BCF10E
:1054C0006F0F08BF082405D04CF02000782814BFC7
:1054D0000A2410243C25D7E90023BCF1640F18BF2F
:1054E000BCF1690F9046994606D100218B4203DA40
:1054F000D8F1000869EB49094FF0000AD14508BF0F
:10550000D0451FD1386BE8B9082C4BD197F838003B
:10551000010747D530203B2586F83B0042E00028B4
:105520000ED597F8380000F01400102808D17B6BD6
:105530007969386A5B1A1B1A9A1A002AC8BF3A623C
:10554000BDE8F3878DF800C0404649462246E31780
:1055500002F0B4FD3032D0B26D1E3A28019504DB62
:105560009DF80000A0F151018A1872554046494645
:105570002246E31702F0A2FD89468046D14508BFC6
:10558000D04503D0F86871198842DDD3082C09D1C1
:1055900097F83800010705D5705D302802D06D1EE0
:1055A00030207055C5F13C02BA617119F960386B51
:1055B0008242B4DA821A3A624FF6EF70398F0140B4
:1055C0003987BDE8F3872DE9D04306460F461446D8
:1055D0004FF00008DFF8389412E0E00707D54246A4
:1055E0004B463046394602F081FE06460F4640469D
:1055F000494642464B4602F079FE64108046894691
:10560000002CEAD130463946BDE8D0832DE9F34F6E
:10561000054641F020048DB0D5E90089612C02AE29
:1056200009D0286B002848BF062003D408BF672C88
:1056300001D101202863D5E9002358004015401C02
:105640000ED119030CD00320A8619DF838106139E0
:105650001A2902D20FF2F46111E00FF2F4610EE0A8
:1056600059004915491C0FD118030DD10320A86119
:105670009DF8381061391A2914D30FF2DC61E868FB
:10568000032201F017F9D3E1194621F00043B3F5E5
:10569000801F10460DD20027BB4208BFBA420197B7
:1056A00003D111E00FF2AC61E9E701AA02F034FE88
:1056B0000AE0DFF8607307EB1352DFF85C33019206
:1056C0001940DFF858331943C5E90001612C0ED1A8
:1056D000E86830210170821CEA609DF83810612969
:1056E0000CBF7821582141706869801C6861D5E938
:1056F00000AB2BF0004300202AF00002834204BFDD
:105700008242002300F05B81612C40F0AA80286B6C
:10571000002847BF21210091401C0090009F7F1C62
:10572000404649460022002302F02EFED946019948
:105730008DF8082038BF89F00049091F002FD04696
:1057400001910DF1090040F34981B349DFF8D0B26E
:105750000C910646404649460022002302F02CFEEA
:1057600080F03B814800400D00F11C0211D0002A5E
:105770000FDD40F2FF70824205DB09F0004040EA95
:105780000B01002013E00C98014041EA0251404611
:105790000DE029F00043002028F00002834208BFFA
:1057A00082420FBF40461C22404602F01DFE80464A
:1057B000894602F09BFEFF1F002F044609DD02F020
:1057C0009CFE02460B464046494602F09DFE80463E
:1057D0008946F01D072104E004F00F0200F8012DB6
:1057E0002411002C01DD491EF6D5491E5CBF0022A4
:1057F00000F8012DF9D5ECE00020194602AA0A4470
:1058000000E05B1E12F80149491E8442F9D00F28BE
:1058100004D10DF10900425C521C4254002904D508
:105820000198001D02AE5B1C0190591E12D49DF818
:1058300038007218A0F13A07147804F130085FFAC2
:1058400088F43A2CA8BFB844491E02F80189F3D560
:105850008DF83800286B002840F1B080591E29636C
:10586000ACE0404649460022002302F08DFD01993C
:1058700038BF89F0004947F297504143694A91FB8C
:10588000F2F20192D2F1070204DD40464946FFF7E9
:105890009AFE0AE0524200206349FFF794FE024656
:1058A0000B464046494602F038FE8046662C286B7F
:1058B000DFF878B106BF019F0A3706273F18142F7B
:1058C000C8BF142730208DF8080089460DF1090063
:1058D00000E03046002F34DD06464046494602F0DF
:1058E00025FE01460A4606F1080304200A26B2FBFB
:1058F000F6F606EB860EA2EB4E02303203F8012CD0
:105900000A22B6FBF2F202EB820EA6EB4E0630360E
:10591000401E03F8026DE9D1083F002F03F108068D
:10592000D7DD084602F009FE02460B4640464946CE
:1059300002F0EAFD00225B4602F0D8FC8046894670
:10594000CBE70DF10901401A0DF1090604E00199B8
:10595000491E401E0191761C31783029F7D0662C03
:1059600002D10199491C03E0652C0CBF01210021E3
:105970002B6BCB189842B8BF431E002B1ED483421A
:1059800004DAF05C3528A8BF392000DA3020194647
:10599000721E02EB010800E05B1E18F80199491E17
:1059A0008145F9D0392802D1705C401C705400291F
:1059B00004D50198401C16465B1C0190019800B26A
:1059C00000901BB29DF838103246284600F034F89B
:1059D0002EE0C61D002F3FF7BDAE30460DF1090188
:1059E000401A009903468842C8BF0B46002B0DF1B0
:1059F00009063FF52FAF8342BFF6FEAE0DF1090059
:105A0000C15C07297FF7F8AE0F20F6E6CBCCCC0CB3
:105A10000000244002FCFFFFFFFF0F800000E03F7A
:105A20000000F07FA08601000000F03F84D797417E
:105A30000FB0BDE8F08F00002DE9F84783B00646AF
:105A40008A461746984602F0B4FAB8F1000F406A49
:105A5000356B90F8009002DC4FF00108BFA74AF0C8
:105A60002000BDF93040662808BF641C15D06728A7
:105A700040F0848014F1040FC0F28680AC4280F2C2
:105A8000838096F83800641C010702D4A845B8BF8B
:105A9000454620B22D1A48BF00250FFA84FAF06857
:105AA000B169BAF1000F25DC4A1C30234354002DA4
:105AB00003DC96F83800010703D5F06800F802907F
:105AC000521C15EB0A0FB8BF6C4220B24419414278
:105AD0004445B8BFA046B26171620FFA88F5F5611E
