:020000040800F2
:1000000008D904209D4E02085D4C02085F4C02088E
:10001000614C0208634C0208654C020800000000B5
:100020000000000000000000000000003136010860
:10003000674C020800000000D5350108952D010825
:100040006D4F0208714F0208754F0208794F020880
:100050007D4F0208814F0208854F0208894F020830
:100060008D4F0208914F0208954F0208994F0208E0
:100070009D4F0208A14F0208A54F0208A94F020890
:10008000AD4F0208694C0208B14F0208B54F020893
:100090006F4C0208B94F0208BD4F0208C14F020859
:1000A000C54F0208C94F0208CD4F0208D14F0208C0
:1000B000D54F0208D94F0208DD4F0208E14F020870
:1000C000E54F0208E94F0208ED4F0208F14F020820
:1000D000F54F0208F94F0208FD4F0208754C02085F
:1000E0000150020805500208095002080D5002088C
:1000F000115002087B4C02081550020819500208E2
:100100001D500208215002082550020829500208FB
:100110002D500208315002083550020839500208AB
:100120003D5002084150020845500208495002085B
:100130004D500208814C02085150020855500208E7
:10014000595002085D50020861500208874C0208AD
:1001500065500208695002086D500208715002088B
:1001600075500208795002087D500208815002083B
:1001700085500208895002088D50020800000000D6
:100180009150020895500208995002088D4C0208BF
:100190009D500208A1500208A5500208A95002086B
:1001A000AD500208B1500208B5500208B95002081B
:1001B000BD500208C1500208C5500208C9500208CB
:1001C000CD500208D150020800000000D5500208AE
:1001D000D9500208DD500208E1500208E55002083B
:1001E000E9500208ED500208F1500208F5500208EB
:1001F000F9500208FD5002082DE9F04F2DED108B4B
:10020000ADF23C6DDFF86CE3B0EE61FA9FEDD39A8E
:100210000693B8AB02900DF545781F469DF8A836B9
:100220000E91D2AD29930DF55F799DF8AC360DF5A1
:100230001A7C08920DF5247B0993F0EE40FADDF864
:10024000D4A6F0EE60CA8DED2C2AB0EE440BF7EE8A
:10025000009AB0EE41CAF7EEC08BBEE80F000FC7A0
:10026000BEE80F000FC7BEE80F0074460EF1380657
:1002700028EE899A0FC754F8043B01930FCCA8E8E5
:100280000F000FCCA8E80F00019B3B600EF1A00708
:100290000FCCA8E80F0023680EF16C04C8F80030FA
:1002A0000FCE0FC50FCE0FC50FCE0FC533680EF1A1
:1002B000C8062B600EF1F0050FCCA9E80F000FCC9B
:1002C000A9E80F000FCCA9E80F002368AEACC9F86D
:1002D00000300FCFACE80F000FCFACE80F0097E86D
:1002E00003000EF58C770EF59A7E8CE803000FCE96
:1002F000ABE80F000FCEABE80F0096E80300002636
:100300008BE803000FCD0FC40FCD0FC495E8030099
:100310005FAD84E803000FCFDDF8C8460FC597E84E
:10032000070085E80700BEE80F00267066ACDDF820
:10033000CC560E9F2E70DDF8D0562E705CAD089E08
:10034000D7ED017AD6ED01AA0E9F27EEA75A2AEE25
:10035000AA6A96ED00BA97ED007A0E9FA7EE075AAB
:1003600096ED02AAABEE0B6AD7ED021ACDED5A7AE2
:100370008DED597ACDED5B1AA1EEA15AAAEE0A6A6B
:100380008DED0C4B0FC4B7EEC55A0AF58C63B7EE72
:10039000C66AB1EEC54BB1EEC62B9EE8070084E8F5
:1003A000070096E8070085E8070012930AF517741E
:1003B0006B4B9AF8CD588DED2A3BB7EEC44B89EEC6
:1003C000845A83ED004AB7EEC28BC9EE886A65EEA7
:1003D000277A27EE057A25EE215ACDED417A8DED6B
:1003E000407A8DED425A66EEAAAA26EE8BBA2AEE24
:1003F00026AA6AEEA7DACDED44AA8DED43BA8DEDBB
:1004000045AAEBEE07DAE5EE0ADA002D00F07D856D
:1004100049AB0AF20C4707930AF5757313930AF276
:10042000044314930AF5816301930AF582631593DB
:100430000AF2144316930AF5836317930AF21C43D6
:100440001D930AF224431E930AF585631F930AF253
:100450002C4320930AF5866318930AF234430F93D2
:100460000AF5876321930AF23C4310930AF58863E7
:1004700011930AF244430A930AF5896319930AF225
:100480004C430B930AF698031B930AF284439FEDA7
:10049000354A129A6BEE45BAD3ED005A0AF59E63BF
:1004A000DFED314A0AF2644665EE845AD2ED006A05
:1004B0000AF2CC429FED2D6AD3ED003AE7EE0ABA7C
:1004C000E6EEA45A92ED003ADFED296A2AEEC77AE9
:1004D0000AF58E610AF274402E960AF59165A7EE30
:1004E0008B7A119E0AF58D630AF26C42E3EE065A8E
:1004F000319132900AF29C4102986AEE679A2F93EA
:100500000AF59A6C30920AF2F44E3391E5EE2A9A8B
:10051000E3EEA65A0AF28C480AF2D4490AF5926B25
:100520009DED0C3B0FC88AED0E3B86ED009AB0EEB8
:10053000479ACAEDF85AD5ED007A0AF58F652E9ED6
:1005400067EE847ADCED003A96ED007A0AF5A16C4C
:100550009EED003A0AF2E4460EE000BF0AD7A33C43
:1005600004930420CDCCCCBDCDCC4CBECDCCCC3D69
:10057000CDCC4C3E08460208E7EE247A22952BEEBD
:10058000AB7A079D3F96CDF8E0C00AF27C4CA9EE0D
:10059000A97AE3EE867AF7EE003A85E80F00A9EE35
:1005A000097A2F9BE3EE267A309ACDF88CC00AF5B3
:1005B0009D6C0AF59460CDF8D8C00AF20C5C3490BA
:1005C000CDF8E4C00AF2A44CCAEDF97A67EEA77A36
:1005D000D8ED002A93ED005A0AF59F63E5EEA57A5F
:1005E00099ED002A62EE842AD3ED001ACDF8D4C02A
:1005F0000AF5906C0AF58063E5EE242ACDF890C0E8
:100600000AF2EC4CB0EE673AB7EEC77ACDF8DCC030
:100610000AF5A26CB1EEC75BCDF8E8C00AF50E7C16
:100620006146CDF8B4C0F0EE627A0AF5057CCDF8EB
:10063000F8C06046E2EE067AE1EEA67ACAEDFA7AF2
:10064000A7EEA73A9BED007AD2ED007A0AF59B62FD
:1006500027EE047AD2ED001A0AF2FC42A7EEA47A41
:10066000D2ED002A0AF29442B7EEC55BB0EE472AFB
:10067000B7EEC37AC3EE855AB1EEC7EBB0EE427A5D
:10068000A1EE867A69EEA59A6BEEA5BAA2EEA67ADD
:1006900029EE259A69EECA5AEBEE095A8AEDFB7AE1
:1006A000D2ED007A319A67EE847AD2ED003A0AF2FE
:1006B000DC42B0EE652ACDED265AE3EEA47A92ED47
:1006C000005A69EE6A5A0AF5A062D2ED003AEAEEE3
:1006D0002B5AE44AE5EE067AB7EECEEBF0EE651A59
:1006E000CDED255A6BEECB5A82ED00EAE3EEA67A09
:1006F0000AF59362EAEEA95ACDED275AB0EE651AD3
:10070000CAEDFC7A67EEA77AD2ED005A329AE7EE8C
:10071000077A339D65EE845AD2ED003A0AF59C6261
:1007200092ED005A0AF20452B0EE677AF0EE657A62
:10073000D2ED005A7FAAE3EEA47AE5EE067AE5EE62
:10074000A67ACAEDFD7AA7EEA77AD5ED003A229DEA
:1007500063EE843AD6ED002AD5ED007A389DE7EEB7
:10076000A43AC04EB7EEC77A95ED003A349DB1EE8B
:10077000C75BB0EE637AA2EE867AA3EE267A8AEDA4
:10078000FE7AD5ED007A239D67EE847AD5ED003AA6
:10079000369DE3EEA47A95ED003A399DD5ED003A09
:1007A000359DE3EE067AB7EEC5DB1DEE10CAE3EE2B
:1007B000A67A46F804CF3D96CAEDFF7A67EEA77A8F
:1007C000D5ED005A249DE7EE077A25EE844AD5ED53
:1007D000005A379D95ED005A3A9DB0EE677AF0EEDB
:1007E000447AE5EEA47AD5ED005A149DE5EE067A3A
:1007F000E5EEA67AA7EEA77AC3ED007A019B85ED18
:1008000000EA83ED00DA974BB7EEC77AB1EEC76B1B
:10081000F7EEC6EB1EEE905AC7ED00EACAED8E1A4F
:100820008AED912A8AED941A8AED90BACAED93AABC
:100830008AED96AACAED8F9ACAED92BA8AED959A78
:1008400043F8085F1C9303F037FA7FA84DA903F023
:10085000F9FBAAF5AE705346D3F8AC230C3BD3F8A2
:10086000BC13C3F8C423D3F8C023C3F8C813C3F818
:10087000CC239842F0D1F7EE007ADDED4D6A9DED84
:100880004E7A04F5AE7176EEA66A46AD87EE8F5AC3
:10089000DDED4F7A04F10C062046DFED735A9FED33
:1008A000736A3C9437EE077A77EEA77A66EE856A2C
:1008B00027EE057A67EE857ACAED976A8AED987A0F
:1008C000CAED997AD0ED006A0346F0EE667A0C33F1
:1008D00093ED007A994277EE877AF8D127EEA57AE0
:1008E000024676EEC76A66EEA66A0C32D2ED007A50
:1008F00077EEC77A9A42E7EEA76AF6D1043066EE41
:10090000866A0431B042E5EC016ADBD19DED476AAD
:100910000AF572739DED465A0DF2F449B7EEC66AB8
:100920009DED484AB7EEC55A2893B7EEC44A504BDE
:10093000B1EEC67B0DF56C781A94CDF8D4A6B1EE65
:10094000C56BB1EEC45BF3EC014A93ED00FACDED5B
:100950003B4AB7EEC77B8DED477A27EE077AF7EE75
:10096000C66BA6EEA67ACDED466AF7EEC57BCDED59
:10097000487AA7EEA77AB7EEC77AB1EEC76BB7EEA3
:10098000C66B8AEDF16A48460DF2AF311A9A01231F
:1009900001F8013F013352F80C4B1F2B40F8044B78
:1009A000F6D11E22012191A803F00CFC99ED007AEA
:1009B000D9ED017AB4EEE77AF1EE10FA03D94FF4EB
:1009C0008173A8F8003099ED027AD9ED037AB4EE7C
:1009D000E77AF1EE10FA03D94FF44173A8F8023028
:1009E00099ED047AD9ED057AB4EEE77AF1EE10FAD2
:1009F00003D940F20653A8F8043099ED067AD9EDF0
:100A0000077AB4EEE77AF1EE10FA03D94FF4E16316
:100A1000A8F8063099ED087AD9ED097AB4EEE77AAC
:100A2000F1EE10FA03D940F60A13A8F8083099ED50
:100A30000A7AD9ED0B7AB4EEE77AF1EE10FA03D91F
:100A400040F60C33A8F80A3099ED0C7AD9ED0D7AFE
:100A5000B4EEE77AF1EE10FA10D940F60E53A8F88A
:100A60000C300BE0089304208988083DCB3D0D3DF8
:100A7000F08E04203333333FCDCC4C3F99ED0E7ACA
:100A8000D9ED0F7AB4EEE77AF1EE10FA03D94FF40C
:100A90007163A8F80E3099ED107AD9ED117AB4EEA1
:100AA000E77AF1EE10FA03D941F21213A8F81030E8
:100AB00099ED127AD9ED137AB4EEE77AF1EE10FAE5
:100AC00003D941F21433A8F8123099ED147AD9ED14
:100AD000157AB4EEE77AF1EE10FA03D941F2165323
:100AE000A8F8143099ED167AD9ED177AB4EEE77AB2
:100AF000F1EE10FA03D941F21873A8F8163099ED07
:100B0000187AD9ED197AB4EEE77AF1EE10FA03D932
:100B100041F61A13A8F8183099ED1A7AD9ED1B7A14
:100B2000B4EEE77AF1EE10FA03D941F61C33A8F8D7
:100B30001A3099ED1C7AD9ED1D7AB4EEE77AF1EE10
:100B400010FA03D941F61E53A8F81C30042305936C
:100B500002230393039A531C52001F2B0193049208
:100B600051D001230293029B049AD7181F2FA8BFCC
:100B70001F27A7EB030ABAF1000F3EDD1D46019EB9
:100B8000012408E0013691ABBE421A5400F0868180
:100B90000134A2452ADB05F1FF3C711E601E18F9E5
:100BA0000C3018F9012009EB830B09EB820E1BEDC9
:100BB000017A5EED017AB4EEE77AF1EE10FAE1D84F
:100BC00091AA01351354019B9D42E1D191ABBE42E4
:100BD000A7EB0602414403EB0400D9DA3C4403F0DE
:100BE000FBFAA41B3E460134A245D4DA029B5246CE
:100BF00091A9581E404403F0EFFA039B3B441E2B7F
:100C0000CDE90137AFDD049B0393059B013B0593C1
:100C1000A0D198F90E2098F90F3009EB820209EB68
:100C2000830352ED017A13ED017AF5EEC07AF1EE0D
:100C300010FAB5EEC07A4CBF01220022F1EE10FA94
:100C40004CBF012300239A4200F03A8177EE877A65
:100C5000B6EE007A67EE877A1A9A289B0432E3ECA4
:100C6000017A1A92139A28939A427FF48CAEDDF897
:100C7000D4A6F1EE006A1E9BB6EE007ADAEDF37AA6
:100C80009AEDF26A6FEEA64A67EEA77A9AEDF45AE9
:100C90005FED885A5FED883AE6EE067A6EEEA55A69
:100CA000EDEE075AB0EE676ACEEE247AA5EE056A3D
:100CB0006CEEA64A2CEE265A65EEA35ACDEE242AF7
:100CC000B7EEC66A8EEE853AC3ED007A1F9BB1EE91
:100CD000C64BF5EE006A77EEA27AC3ED002A209BA0
:100CE00073EE277A83ED003A189BF7EEC4EB2EEEF5
:100CF000877A77EE277A83ED007A0F9B67EEA67AE4
:100D0000C3ED007A179BC3ED005A9AF8CE38002B3A
:100D100000F094820AF6C4030AF6C8040AF50C62CD
:100D20000AF6BC010AF6B80093ED006A84ED006A89
:100D300092ED004A9AED0A7B83ED004AD1ED003A2C
:100D4000F7EEC76B1D9B9AED087BC2ED003AD0ED24
:100D5000004AB7EEC75B9AED067BC1ED004AB7EEDD
:100D6000C7FB9AED047B2FEE23FAC0ED005AA5EEE7
:100D700004FAB7EEC75B9AED027BA4EE85FAB7EEF4
:100D8000C77BA6EE86FAA5EE87FA9DED0C7BB5EE45
:100D9000C07B83ED00FAF1EE10FA40F25883B0EE1A
:100DA000476BB7EE007BB4EE476BF1EE10FA40F004
:100DB0009582DDEDB87AB4EEE7FAF1EE10FA42F37F
:100DC000C881DDEDC47AF4EECF7AF1EE10FA02F3C9
:100DD000A583DDEDD17A9DEDD27A0A9BB4EECF7A70
:100DE000C3ED007AF1EE10FA42F1C1819DEDDE7A99
:100DF000B4EECF7AF1EE10FA40F323830D240220F3
:100E000001216FF0404563180DF5C7665B085A195C
:100E100006EB8202A2F53C7292ED007AB4EECF7A34
:100E2000F1EE10FA42F26C83CA1898424FEA52026D
:100E300014D254190DF5C76606EB8404A4F53C746E
:100E400094ED007AB4EEC7FAF1EE10FA82F256830E
:100E50001346CA1898424FEA5202EAD30B466FF083
:100E600040429900DFA81A44D2AB0B4492000144DF
:100E700093ED006AD2ABD1ED006A1344024493EDC6
:100E8000007A3FEE475A36EE476A92ED007A76EEE8
:100E9000C76AC5EE065AA5EEA67AD4E2019B91A9CF
:100EA0009D4201EB0400A3EB050208EB0C01BFF629
:100EB0006FAE03F091F9019B1C44641B1D4667E66D
:100EC000DDED3B6AF4EE667AF1EE10FA3FF4BEAE69
:100ED000F4EE4F7AF1EE10FAB4EE667A0CBF01230D
:100EE0000023F1EE10FA08BF0123002B7FF4AEAE11
:100EF000B4EE4F7AF1EE10FA3FF4A8AE37EE677A0F
:100F0000F6EE006AE7EE267AA6E60AF1440C012125
:100F10004FF48070002649AFCAF844508AF8CD18C3
:100F20003022AAF8300029460AF16400BE60079713
:100F30004FF07E5B49960AF244474A960DF5F278E7
:100F40004C960DF5F8798AED0E0BCCE90155CCE9FC
:100F50000455CCF81850CAED189ACAED149ACAED87
:100F6000109A03F02FF9DA4B2946CAF89460CAF8B0
:100F700098604FF4A272CAF89C600AF1B800CAF8EF
:100F8000AC304FF00136CAED2C9A0025CAED2D9AEF
:100F900003F018F90AF2044CCE4B2946CDF850C0A4
:100FA0000AF5826CCAF8B8304FF4B472CDF854C068
:100FB0000AF2144CCAF8E0302046CDF858C00AF5C1
:100FC000836CCAF80831CDF85CC00AF5856CCAF8A4
:100FD0003031CDF87CC00AF22C4CCAF85831CAF82E
:100FE0008031CAF8A831CAF8D031CAF8F8310AF20B
:100FF0001C43CDF880C00AF5866CCAF8FC61CAF8BB
:101000000062CAF804620AF575761D930AF2244359
:10101000CDF860C00AF2344C1E93CAF818521396E9
:10102000CAF81C52CAF82052CAF82852CAF82C52E0
:10103000CAF83052CAF83C52CAF834B2CAF824B2DC
:10104000CAF814B2CAF84052CDF83CC00AF5876C11
:101050000A970AF58967CDF884C00AF23C4C1997C3
:10106000CDF840C00AF5886C129FCDF844C00AF252
:101070004C4CCAF84452CDF82CC007F5876CCAF81E
:101080004C520AF20C47CAF85052CAF85452CAF8E5
:1010900058B2CAF848B2CAF838B2CDF86CC003F0FA
:1010A00091F89FED8D7A0AF58163139EF0EE007A38
:1010B000CAF8D4530AF5846C8AEDF17A4FF0320EF7
:1010C0008AEDF27A8AEDF37A8AEDF47A7560B5608A
:1010D000149E019376ABCAF8E053CAF8E453CAF8F9
:1010E000E853CAF8EC53CAF8F053CAF8F453CAF8F4
:1010F000F853CAF8FC53CAF80054019986ED007AF7
:10110000159E81ED007A87ED007A86ED007A169EB5
:101110001D9986ED007A179E86ED007A81ED007AA2
:10112000CCED007A1E9981ED007A1F9981ED007A4D
:10113000209981ED007A189981ED007A0F9981ED5F
:10114000007A219981ED007A1099C1F800B01199C7
:1011500081ED009A0A9981ED007A1999C1F800B0E1
:101160000B9981ED007A0E99CAF85054CAF854547C
:10117000CAF85C54CAF858E407C983E8070008991C
:10118000D3F800B0D3ED017A019E07C988E80700C3
:101190000699D3F80880D3F80CE0D3F810C05D6945
:1011A00007C989E80700129A9869D969DDF86C9037
:1011B0001B6AC2F800B0243242ED087A42F81C8C57
:1011C00042F818EC42F814CC42F8105C42F80C0CCF
:1011D00042F8081C42F8043C4A45EAD1DDF8B4362E
:1011E0000AF69C0101961A680AF698039DED425A88
:1011F0001A600AF50A62DDF8B436DDED417A586806
:1012000000239DED407A08604FF47A71DDF8B40652
:101210009DED43BA8068DDED44AA10609DED45AABE
:101220008AF8A438CAF8A6388AF8AD388AF8AE38F1
:10123000CAF8B038AAF8AA18FFF727B99AED066BD2
:101240009AED047B9AED084BB7EE003B012437EE94
:10125000067B0AF6B8008AF8CE480AF6BC010AF501
:101260000C620AF6C40337EE044B0AF6C804C0ED5C
:10127000005A9AED0A6B9AED027BC1ED005A34EEEA
:10128000064BC2ED005AC3ED005AC4ED005A34EECD
:10129000074B9AED042B83EE047B9AED081B9AED25
:1012A000023B9AED064B26EE076B23EE073B22EE40
:1012B000072B24EE074B21EE077B8AED0A6B8AEDA4
:1012C000023B8AED042B8AED064B8AED087B2BE569
:1012D0006666663F0000A040000000009DEDB96A10
:1012E000DDEDD37A26EE286A9DEDBA4A67EEA87A3C
:1012F000DDEDD44A9DEDBB5A24EE284ADDEDD55AEA
:1013000064EEA84A8DEDB96A25EE285A9DEDBC6AB7
:1013100065EEA85ACDEDD37ADDEDD67A26EE286AB1
:10132000DDEDB86A67EEA87A9DEDD27A8DEDBA4A06
:1013300068EEA66A9DEDBD4A28EE877ACDEDD44AC7
:101340008DEDBB5A24EE284ADDEDD74AB4EEE6FA1D
:101350009DEDBE5ACDEDD55A64EEA84ADDEDD85AC2
:1013600025EE285A8DEDBC6AF1EE10FA9DEDBF6AAC
:1013700065EEA85ACDEDD67ADDEDD97A26EE286A4B
:10138000CDEDD74A67EEA87ACDEDD85A8DEDBF6A7C
:10139000CDEDB86ACDEDD97A8DEDD27A8DEDBD4A1D
:1013A0008DEDBE5A9DEDC05ADDEDDA5A9DEDC16A54
:1013B00025EE285ADDEDDB7A65EEA85ADDEDC24A4E
:1013C00026EE286A67EEA87A8DEDC05A64EEA84A28
:1013D0009DEDDC5ACDEDDA5A8DEDC16A25EE285A25
:1013E000DDEDC35A9DEDDD6ACDEDDB7A65EEA85AE1
:1013F000DDEDC47A26EE286ACDEDC24ADDEDDE4A87
:1014000068EEA77A8DEDDC5A68EEA48ACDEDC35A5A
:101410008DEDDD6ACDEDC47ACDEDDE8A01F39D86DA
:10142000DDEDC57AB4EEC7FA0A9BC3ED007AF1EEA2
:1014300010FA41F39C86F4EECF8AF1EE10FA02F333
:1014400024809DEDEB7A0B9B83ED007A09E0B7EEEB
:10145000007A0A9BF0EE477A83ED007A0B9B83EDCE
:10146000007AD54B9AED2D7AD3ED008A199B38EE90
:10147000C77ADDF8C826C3ED007ADFF850B3B0EEC6
:10148000C77A9FEDCB6BB7EEC77ABBFE477BFDEE0D
:10149000C77B17EE903A13709AED2D7ADAED2B7A1E
:1014A00038EEC77A219B7DEEE77AB0EEC77AF0EE90
:1014B000E77A8BED007A77EE877AB7EEE75AC3EDDD
:1014C000007AB4EEC65BF1EE10FA41F3D9829FEDDB
:1014D000BB7AF0EE086A77EEC77AB1EE007A67EE73
:1014E000A67AF4EEC77AF1EE10FA01F3CD82B7EEE8
:1014F000007A77EE877AB7EEE77AB7EE006A109B4C
:10150000B6EE005B0AF1400038EEC66A0590B0EE18
:10151000C66AB7EEC66A36EE456B86FE077BB7EE47
:10152000C77B83ED007A9AF83130002B61D09AF8AE
:101530003030002B5DD1F6EE007ADDED2C6A0F9B8A
:1015400066EEA77A93ED007AB4EEE77AF1EE10FA40
:101550004FD5DDED257A8AED12BACAED107ADDEDB0
:10156000267A0799CAED137ADDED277ACAED15AA16
:10157000CAED167A8AED18AACAED119ACAED14BA04
:101580008AED179A02F05EFDDFED8D7ACAED2BDA57
:10159000B4EE678AF1EE10FA42F12E82DFED897A1D
:1015A000B4EE678AF1EE10FA42F326828AED2C8AB5
:1015B0004FF4A27200210AF1B80002F003FE824B40
:1015C00000210122CAF8B830CAF8E030CAF8083160
:1015D000CAF83031CAF85831CAF88031CAF8A8318F
:1015E000CAF8D031CAF8F831DDF8D0368AF83110AF
:1015F0001A70079BD3ED007A0023F5EE407AF1EEE6
:1016000010FA10D1079AD2ED017A1146F5EE407A20
:10161000F1EE10FA07D1D2ED027AF5EE407AF1EE52
:1016200010FA01F03F859DED2A7BB5EE407BF1EE8F
:1016300010FA46D0DDED2C7A0F9B77EEA77A93ED6A
:10164000007AB4EEE77AF1EE10FA3AD5DDED257ABC
:101650000799CAED107ADDED267A8AED12BACAED45
:10166000137ADDED277ACAED15AA05988AED18AA36
:10167000CAED119ACAED14BA8AED179ACAED167A14
:1016800002F0E0FC00230122DDF8D0160A70CAED5A
:101690002BDACAED2D8ACAF8B830CAF8BC30CAF8BD
:1016A000C030CAF8DC30CAF8E030CAF8E430CAF812
:1016B0000031CAF80431CAF80831CAF8A831CAF8AA
:1016C000F831002305990798CAF89430CAF8983081
:1016D000CAF89C3002F086FDB7EE007ADAED2B7A7C
:1016E0009AED121AA7EEE77A9AED150ADAED180AC2
:1016F00067EE814A27EE806ADAED101A67EEA06A7B
:101700009AED132ADAED162A9DED593AB7EEC77A0B
:10171000DDED5A3A9DED5B4ACAED22DAB1EEC75BC8
:101720009DED5D7ADDED5E7A8AED238ACAED248A2D
:1017300037EE407A77EEE07A8AED1D7A9DED5C7A9D
:10174000CAED1E7A37EE417ADAED2C7A9FED1C1A3B
:101750008AED1C7AF4EE417AF1EE10FAB7EEC57B11
:10176000F0EE645AA7EE026AE7EE215AE7EE226A2B
:101770008AED836A33EE655ACAED825AB0EE667A14
:1017800073EEC65A74EE666A8AED195A8AED847A47
:10179000CAED1A5ACAED1B6A22D59FED0A7AF4EEF9
:1017A000477AF1EE10FA1DDC1AE000BFAFF30080BB
:1017B0009A9999999999B93F04930420CDCCCC3D3D
:1017C0009A99993FCDCC4C3F0000A040149304203F
:1017D000000000008988083D000048420AD7233CE9
:1017E000F7EE007A78EE677A159B9DED9A7AF0EE27
:1017F000E77AC3ED007A77EE8D7A169BF4EEC77A1E
:10180000C3ED007AF1EE10FA41F334819DEDA37A35
:10181000F4EEC77AF1EE10FA01F111859DEDAD8A73
:10182000DDEDB78A189B9DED5F7AD3ED007AF4EE7B
:10183000C77AF1EE10FA41F341819DED657AF4EE3D
:10184000C77AF1EE10FA41F1F68407210224012251
:101850006FF040450FE058190DF5C76606EB8000A4
:10186000A0F2BC4090ED007AF4EEC77AF1EE10FAE7
:1018700081F2DD8419468B18A1424FEA5303EAD85E
:101880006FF04043910066A813445FAA0A449B008E
:101890000144D2ED006A5FAA91ED007A1A44034434
:1018A00092ED006A93ED009A77EEC67A76EEC66AFC
:1018B00037EE497A87EEA66AA6EE079A5FED3C7A84
:1018C000129CF0EE676A3C9BB0EE676A2646F0EE2B
:1018D000675A1B9ACAEDF57ACAEDF67ACAEDF77A1D
:1018E000D4ED067A243493ED007A0C3377EEC77A80
:1018F00075EEA75ACAEDF55A54ED027A13ED027A45
:1019000077EEC77A36EE276A8AEDF66A54ED017AE9
:10191000A24213ED017A77EEC77A76EEA76ACAED96
:10192000F76ADDD15FED557A0AF50563109865EE2B
:10193000A75A26EE276A66EEA76ACAEDF55A8AED1F
:10194000F66ACAEDF76A1A68243B996A9A64DA6AF9
:10195000D9641A65196B5A6B59659A65996BDA6B7C
:10196000D9651A66196C5A6C59669A669842EAD11A
:101970000E9AF4EECEFA129913683098F1EE10FA3E
:101980000B60F4EECDCA0899229DC8BF01270B68F1
:10199000D8BF0027F1EE10FA036007F001070698A0
:1019A000D8BF002703682B602E9D53682B60319DA4
:1019B0004B682B60239D43682B6093682F9A1360BC
:1019C000329A8B681360249A83681360099B022BF8
:1019D00001F0F281002F41F07D80099A0023002A56
:1019E00041F0D0811146DAF8A830DAF8A420CAF81C
:1019F0008430CAF880209AF83030DAF8A020AAF8AB
:101A000002128AF80412CAF85C14CAF87C20002B6F
:101A100001F0458388AD8AF830105FED917AF4EEDD
:101A2000E78AF1EE10FAC1F216800023AAF802321A
:101A30008AF80432CAF85834DDF8A036F7EE007A96
:101A4000F0EE005A0A9993ED087A93ED066A78EE63
:101A5000277AD3ED076A26EE286A93ED004A66EEF0
:101A6000A86AD3ED014A67EE288ADDF8A02683ED47
:101A7000066A85EEA73AC3ED076AC3ED088A109B94
:101A8000D1ED007AD3ED003AD2ED056A63EEA73AC4
:101A900092ED025AD2ED035A92ED046A24EE234AE3
:101AA000D2ED097A1FEDB37A77EEA77A82ED004A7C
:101AB0000A4693ED004AD1ED003A67EE887ADDF8E8
:101AC000A01683FE077A24EE234A64EE844AC1ED11
:101AD000014A93ED004AD2ED004A0B9B64EE844A22
:101AE00025EE245A81ED025A93ED005A65EE855A8F
:101AF000C1ED035AD3ED005A26EE256A81ED046A42
:101B000093ED006AC1ED097A66EE867ADDF8A436B7
:101B1000C1ED057AD3ED067A67EE877AC3ED067AD2
:101B2000D1ED0A7ADDF8A43677EEA77A67EE887AE7
:101B3000C1ED0A7AD3ED077A67EE877AC3ED077AAB
:101B4000199BD1ED0B7AD3ED006A299B67EEA67A3B
:101B5000C1ED0B7ACBB3D1ED037ADDF8A43667EE95
:101B6000887AC1ED037AD3ED007A67EE877AC3ED08
:101B7000007AD1ED047ADDF8A43667EE887AC1EDFB
:101B8000047AD3ED017A67EE877AC3ED017AD1ED5D
:101B9000057ADDF8A43667EE887AC1ED057AD3EDD3
:101BA000027A67EE877AC3ED027AD1ED0A7ADDF820
:101BB000A43677EEA77A27EE888A81ED0A8AD3EDDC
:101BC000077A27EE877A83ED077ADDF8A436DAED17
:101BD0002E7A93ED007ADAED383AE7EE077ADDF8FF
:101BE000A4269AED424ADAED4C4A9AED565ADAEDBD
:101BF000605A9AED6A6ACAED2E7AD3ED017A002313
:101C0000DAED746AE7EEA73A9DED5B3ADDED5A7ABC
:101C1000F1EE432A9AED7E7AC5ED067AF1EE677A07
:101C20002B60C5ED032ACAED383AD2ED023AA3EE95
:101C3000A34A8AED424A92ED034AE4EE044ACAED11
:101C40004C4AD2ED044AA4EEA45A8AED565A92EDBB
:101C5000055AE5EE055ACAED605AD2ED065AA5EED0
:101C6000A56A8AED6A6A92ED076AE6EE066ACAED2F
:101C7000746AD2ED086ADDF8B026A6EEA67ADDED2C
:101C8000595A9DED5E6ADDED5D6AF1EE653AB1EEA1
:101C9000464A2B61F1EE664A2B6291938AED7E7A79
:101CA00012789DED5C7A8AF8FC21DDF8B026B1EE61
:101CB000475A9593127899938AF8FD21DDF8B0265A
:101CC00085ED013A1278C5ED027A8AF8FE21DDF839
:101CD000B026C5ED055A52788AF8FF21DDF8B02606
:101CE00052788AF80022DDF8B02652788AF801226C
:101CF000C5ED073A299B8DED926A8DED944ACDEDA5
:101D0000976ACDED934A8DED967A8DED985AABB1E9
:101D1000DDF8B0365B788BB1169BF7EE007A93ED69
:101D2000007AB4EEE77AF1EE10FAD4BF0123002373
:101D30008AF8FF318AF800328AF80132119BD3ED1C
:101D4000007AF4EE4F7AF1EE10FA07DB9DED0C7B92
:101D5000B5EE407BF1EE10FA00F3A58601238AF878
:101D600005328AF80732DAED247A9FED457AF4EEEF
:101D7000C77AF1EE10FA06D4B0EE087AF4EE477A9C
:101D8000F1EE10FA08DD0023AAF8FC318AF8FE31E2
:101D90008AF805328AF80732DDF8A036F7EE005AE5
:101DA0009FED385A93ED007AB7EEC76A37EEE57AC1
:101DB000B0EEC77AB7EEC77A87FE067BB7EEC77B71
:101DC00083ED007A83ED017A83ED027ADAED237AEE
:101DD000F4EEC57AF1EE10FA07D4B0EE007AF4EE24
:101DE000477AF1EE10FA41F3EE8100238AF8FF31D1
:101DF0008AF800328AF801328AF805328AF8063207
:101E0000F6EE007A9BED007AB4EEE77AF1EE10FA86
:101E100040F30E86F7EE007ADDF8A026F0EE085AC1
:101E2000002377EE277AAAF8FC31B4EEE57A8AF837
:101E3000FE3192ED096A77EEA77AD2ED0B6AF1EEE8
:101E400010FA26EE276A66EEA77A82ED096AC2EDDD
:101E50000B7A03DD8AF805328AF807329AF8AE3831
:101E60000E2B02D805338AF8AE38019591AB0027C6
:101E7000DFED058AB7EE008ADFF810B027E000BF7B
:101E8000CDCC4C3ECDCCCC3E00000000CDCCCCCC5B
:101E900053ED036A93ED007AD3ED037A0AEB070062
:101EA00076EEA66A37EE077A77EEA77A90F8FC21ED
:101EB000CDED7F6A8DED807ACDED817A4ABB019AB6
:101EC0000137043304320C2F019200F09A84022F60
:101ED000CDED7F8ACDED808ACDED818ACDED828AF0
:101EE000CDED838ACDED848ACDED858ACDED868AD0
:101EF000CDED878A40F35684052FC9DD7FAA0AEB12
:101F0000070002EB870202ED038A90F8FC21002A09
:101F1000D5D076AD0AF1B802DDED7FDA0AF1DC0446
:101F2000164629469DED805ADDED815A9DED826A67
:101F3000DDED83EA9DED84EA9DED85FADDED86FA1F
:101F4000DDED876A0892C5ED008AC5ED018AC5ED11
:101F5000028AC5ED038AC5ED048AC5ED058AC5ED83
:101F6000068AC5ED078AC5ED088AB2EC017AF1EC64
:101F7000017AB5EE407AF1EE10FA06D0F5EE40DACD
:101F8000F1EE10FA18BFEDEE877A92ED087AB5EE11
:101F9000407AF1EE10FA06D0B5EE405AF1EE10FAA2
:101FA00018BFE5EE077A92ED117AB5EE407AF1EEC0
:101FB00010FA06D0F5EE405AF1EE10FA18BFE5EE31
:101FC000877A92ED1A7AB5EE407AF1EE10FA06D0E1
:101FD000B5EE406AF1EE10FA18BFE6EE077A92ED20
:101FE000237AB5EE407AF1EE10FA06D0F5EE40EA2B
:101FF000F1EE10FA18BFEEEE877A92ED2C7AB5EE7C
:10200000407AF1EE10FA06D0B5EE40EAF1EE10FAA1
:1020100018BFEEEE077A92ED357AB5EE407AF1EE22
:1020200010FA06D0B5EE40FAF1EE10FA18BFEFEE56
:10203000077A92ED3E7AB5EE407AF1EE10FA06D0CC
:10204000F5EE40FAF1EE10FA18BFEFEE877A92ED56
:10205000477AB5EE407AF1EE10FA06D0F5EE406A16
:10206000F1EE10FA18BFE6EE877A944241ED017A5C
:102070007FF47BAFF5EE40DA95ED00DAF1EE10FA81
:1020800000F0BC83B5EE40DAF1EE10FA00F0B68352
:102090006DEE8D7AB5EE405AD5ED01CAF1EE10FA2B
:1020A00006D0F5EE40CAF1EE10FA18BFE5EE2C7A34
:1020B000F5EE405A95ED02CAF1EE10FA06D0B5EEF3
:1020C00040CAF1EE10FA18BFECEE257AB5EE406A80
:1020D000D5ED03BAF1EE10FA06D0F5EE40BAF1EE06
:1020E00010FA18BFEBEE867AF5EE40EA95ED04BAE9
:1020F000F1EE10FA06D0B5EE40BAF1EE10FA18BFC4
:10210000EEEE8B7AB5EE40EAD5ED05AAF1EE10FAC7
:1021100006D0F5EE40AAF1EE10FA18BFEEEE2A7ADC
:10212000B5EE40FA95ED06AAF1EE10FA06D0B5EE3E
:1021300040AAF1EE10FA18BFEFEE0A7AF5EE40FA77
:10214000D5ED079AF1EE10FA06D0F5EE409AF1EED1
:1021500010FA18BFEFEEA97AF5EE406A95ED087A0D
:10216000F1EE10FA06D0B5EE407AF1EE10FA18BF93
:10217000E6EE877ADDF8A02607EB4701052F02EB94
:102180008702D2ED004A00EB0102E4EEA47A069247
:1021900088EE279A29EE0DDA69EE2CCA29EE0CCAD0
:1021A0006BEE89BA8DED6DDA29EE0BBACDED6ECA04
:1021B00069EE2AAA8DED6FCA29EE0AAACDED70BA92
:1021C00069EE299A8DED71BA29EE079ACDED72AAC2
:1021D0008DED73AACDED749A8DED759A40F38780DD
:1021E000F5EE40DA92ED197AF1EE10FA00F0A983DB
:1021F000DAED257AF5EE407AF1EE10FA00F0A183DF
:1022000067EEAD7AB5EE405AF1EE10FA08D0DAED8D
:10221000264AF5EE404AF1EE10FA18BFE4EE857A50
:10222000F5EE405AF1EE10FA08D0DAED274AF5EE55
:10223000404AF1EE10FA18BFE4EEA57AB5EE406A16
:10224000F1EE10FA08D0DAED284AF5EE404AF1EE48
:1022500010FA18BFE4EE867AF5EE40EAF1EE10FAD5
:1022600008D0DAED294AF5EE404AF1EE10FA18BF2F
:10227000E4EEAE7AB5EE40EAF1EE10FA08D0DAED0F
:102280002A4AF5EE404AF1EE10FA18BFE4EE8E7AD3
:10229000B5EE40FAF1EE10FA08D0DAED2B4AF5EE81
:1022A000404AF1EE10FA18BFE4EE8F7AF5EE40FAEC
:1022B000F1EE10FA08D0DAED2C4AF5EE404AF1EED4
:1022C00010FA18BFE4EEAF7AF5EE406AF1EE10FABC
:1022D00008D0DAED2D4AF5EE404AF1EE10FA18BFBB
:1022E000E4EEA67A77EE677A069AC2ED197A4FF491
:1022F000A272002140460F93CDED096A8DED046A6C
:10230000CDED035A8DED025A01F05CFF9DED025AAE
:102310006DA8DDED035A4146B5EE405A9DED046AC5
:10232000DDED096ACDF8D4A6F1EE10FA0C97F5EEC2
:10233000405A14BF4FF0010E4FF0000EF1EE10FAAC
:10234000B5EE406A744614BF4FF0010C4FF0000C1C
:10235000F1EE10FAF5EE406ACDF810C014BF01227C
:102360000022F1EE10FAF5EE40FA924614BF012376
:102370000023F1EE10FAB5EE40FA0E93DDF838E0E6
:1023800014BF01230023F1EE10FAF5EE40EA0B939F
:1023900014BF01230023F1EE10FAB5EE40EA0A93D0
:1023A00014BF01230023F1EE10FAF5EE40DA039397
:1023B00014BF01230023F1EE10FA029314BF01238E
:1023C000002309930F9BDDE90A7C0A96099ECDF84C
:1023D0002480F0EC017AF5EE407AF1EE10FA14BFA9
:1023E0000123002316B1002B40F0018234B12BB140
:1023F00091ED097AA7EE857A81ED097A049A12B1F6
:10240000002B40F0ED81BAF1000F06D02BB191ED19
:102410001B7AA7EE867A81ED1B7A039A32B12BB133
:1024200091ED247AA7EEAE7A81ED247A029A12B168
:10243000002B40F0C78117B1002B40F0CA81BCF1DE
:10244000000F02D0002B40F0B681BEF1000F06D085
:102450002BB191ED487AA7EEA67A81ED487AA84291
:1024600001F10401B5D10C9F40460F9B0021DDF81E
:10247000D4A6DDE90946ABFB01C2D0ED007A0430F9
:10248000D20838EE677AF1EE677A02EB8202B1EB9E
:10249000420F01F101010CBF00ED017A40ED017A1C
:1024A0005129E8D14FF4A27208994846029301F0ED
:1024B00093FE08984FF4A272002101F083FE08F108
:1024C000240C0DF5C760029BF4EC013A4A463146F4
:1024D00094ED084AD4ED114A94ED1A5AD4ED235ADA
:1024E00094ED2C6AD4ED356A94ED3E7AD4ED477ABA
:1024F000F5EE403AF1EE10FA0CD092ED003AB5EE5E
:10250000403AF1EE10FA05D0D1ED002AE3EE832A2D
:10251000C1ED002AB5EE404AF1EE10FA0CD092ED72
:10252000013AB5EE403AF1EE10FA05D0D1ED002AAD
:10253000E4EE032AC1ED002AF5EE404AF1EE10FA6E
:102540000CD092ED023AB5EE403AF1EE10FA05D019
:10255000D1ED002AE4EE832AC1ED002AB5EE405AFF
:10256000F1EE10FA0CD092ED033AB5EE403AF1EEEE
:1025700010FA05D0D1ED002AE5EE032AC1ED002ABC
:10258000F5EE405AF1EE10FA0CD092ED043AB5EEA9
:10259000403AF1EE10FA05D0D1ED002AE5EE832A9B
:1025A000C1ED002AB5EE406AF1EE10FA0CD092EDC2
:1025B000053AB5EE403AF1EE10FA05D0D1ED002A19
:1025C000E6EE032AC1ED002AF5EE406AF1EE10FABC
:1025D0000CD092ED063AB5EE403AF1EE10FA05D085
:1025E000D1ED002AE6EE832AC1ED002AB5EE407A4D
:1025F000F1EE10FA0CD092ED073AB5EE403AF1EE5A
:1026000010FA05D0D1ED002AE7EE032AC1ED002A29
:10261000F5EE407AF1EE10FA0CD092ED083AB5EEF4
:10262000403AF1EE10FA05D0D1ED002AE7EE832A08
:10263000C1ED002A2432243182427FF459AF64452F
:1026400006F104067FF440AF069AD2ED197AF5EE52
:10265000407AF1EE10FAB5EE40DA14BF0122002202
:10266000F1EE10FA02D0002A40F06E81B0EE68DA86
:10267000F5EE40CA85ED00DAF1EE10FA02D0002A3C
:1026800040F0CA81F0EE68CAB5EE40CAC5ED01CA95
:10269000F1EE10FA02D0002A40F0C181B0EE68CA13
:1026A000F5EE40BA85ED02CAF1EE10FA02D0002A2A
:1026B00040F04D81F0EE68BAB5EE40BAC5ED03BA10
:1026C000F1EE10FA02D0002A40F04481B0EE68BA70
:1026D000F5EE40AA85ED04BAF1EE10FA02D0002A18
:1026E00040F03B81F0EE68AAB5EE40AAC5ED05AA20
:1026F000F1EE10FA02D0002A40F03281B0EE68AA62
:10270000F5EE409A85ED06AAF1EE10FA02D0002A05
:1027100040F08881F0EE689AB5EE409AC5ED079AD0
:10272000F1EE10FA02D0002A40F07F81F0EE687AD4
:102730009AED256ADAED266A9AED277A36EE0DDAF9
:1027400076EEACCA9AED286ADAED296A37EE0CCA41
:102750009AED2A7A76EE2BBA36EE8BBA9AED2B6A80
:10276000DAED2C6A77EE2AAA9AED2D7A36EE0AAACD
:1027700076EEA99AC5ED087A77EE277A8AED25DA02
:10278000CAED26CA8AED27CACAED28BA8AED29BA47
:10279000CAED2AAA8AED2BAACAED2C9ACAED2D7A87
:1027A000FFF78DBB019AD2ED006A92ED037AD2ED6C
:1027B000067AFFF773BB91ED3F7AA7EEAF7A81ED12
:1027C0003F7A42E691ED2D7AA7EE8E7A81ED2D7A51
:1027D00031E691ED367AA7EE8F7A81ED367A2EE6E4
:1027E00091ED127AA7EEA57A81ED127A0BE691EDC2
:1027F000007AA7EEAD7A81ED007AF7E5DFEDB17AE8
:1028000048E4DAED268AF7EE007A9AED259A68EE2A
:10281000A86A9AED278AE9EE096AE8EE086AF4EEFA
:10282000E76AF1EE10FA00F133819FEDA60ABAF8DB
:102830003030002B00F0978007994FF07E52DDF882
:10284000BC060023CA60C2600A460B6003604B608E
:10285000436093608360079C0AF5167605992046CD
:1028600001F0C0FCD4ED015A94ED005AF7EE003AA5
:1028700025EEA57A94ED026AD4ED036A2246DDF8CE
:10288000B876A5EE057A2D9C3E9DA6EE067AA6EEBC
:10289000A67AB7EEC77AB1EEC74BB7EEC44BC3EE1C
:1028A000847A25EE275A65EEA75A26EE276A66EE49
:1028B000A76A82ED005AC2ED015A82ED026AC2EDAA
:1028C000036A0FCA87E80F002068103454F80C1C04
:1028D000103554F8082C54F8043CB44245F8100C58
:1028E00045F80C1C45F8082C45F8043CECD123684D
:1028F0002B60DDF8C426DAF894301360DAF89830EB
:102900005360DAF89C309360DAF8A030D360DAF8DC
:10291000A4301361DAF8A8305361DAF8AC3093616F
:10292000DAF8B030D361DAF8B4301362149BDDF812
:10293000C0261B6813600DF23C6DBDEC108BBDE82A
:10294000F08FDFED607A5DE427EE8DDA90E667EEDA
:10295000ABBAB1E627EE8BBABAE667EEAAAAC3E62F
:1029600027EE8AAACCE6B0EE667ADDF8B036F7EE4E
:10297000005A9C78B1EE499AA0EE007A079BF1EEDE
:10298000688AB1EE488A1A681D46586899684D925F
:10299000B7EEC77ADB68B1EEC76BB7EEC66BC5EEB4
:1029A000867A29EE27BA68EEA7AA28EE27AA60EE53
:1029B000279A002C75D02A4651AC4E904F9155A8BD
:1029C0004DA950938DED559ACDED568A8DED578AD0
:1029D0008DED580A01F072FC8DED51BACDED52AA81
:1029E0008DED53AACDED549A8DED559ACDED568AC5
:1029F0008DED578A8DED580A8DED4D9ACDED4E8AAD
:102A00008DED4F8A8DED500A0FCCDDF8BC4620606D
:102A10006160A260E3601EE767EEACCA34E627EEB1
:102A20008CCA3DE667EEA99A76E667EE897A7FE67C
:102A30009AF8AE28002A00F0AF830023013AAAF8E2
:102A4000FC318AF8AE288AF8FE318AF805328AF815
:102A50000732FFF70ABADAF85834312B3EF7ECAFF9
:102A600000220133AAF80222CAF858348AF8042254
:102A7000FEF7E2BF9DEDA48ADDEDAE8AFEF7D2BE81
:102A8000B7EE007BFEF739BDB1EE047BFEF735BD36
:102A900077EEE67AB7EEE75AB1EEC50BB7EEC00BAC
:102AA000C5E6079A88E70023AAF8FC318AF8FE31C8
:102AB0008AF805328AF80732FFF755B99DED669A14
:102AC000FEF7FCBE00000000CDCC4C3E9A99993F29
:102AD0004260E53B1C9BD3ED007AB4EEE7CAF1EE11
:102AE00010FA7EF77AAF069B5FED097A93ED007AD4
:102AF000B0EEC77AB4EEE77AF1EE10FA7EF56DAF7C
:102B000093ED017AB0EEC77AB4EEE77AF1EE10FAFF
:102B10007EF563AF93ED027AB0EEC77AB4EEE77A52
:102B2000F1EE10FA7EF559AF089B5FED187A93ED40
:102B3000007AB0EEC77AB4EEE77AF1EE10FA7EF5DD
:102B40004CAF93ED017AB0EEC77AB4EEE77AF1EECE
:102B500010FA7EF542AF93ED027AB0EEC77AB4EE8A
:102B6000E77AF1EE10FA7EF538AFDAF850240AF57C
:102B700098632299092A93ED006A3F9A339BD2ED1C
:102B8000006AD3ED005ACCBF0A230523389A91ED91
:102B9000005A92ED007A052BC5FE857AC5FEC55A0E
:102BA000C6FE277A86FE656AC6FEA77AC6FEC66A94
:102BB000C7FE277A87FE667A29D00AF22C540AF5D6
:102BC000AA600AF274510AF5B362D4ED005A0A2BD6
:102BD00090ED006AD1ED006AC5FEA77AC5FEC75A1E
:102BE00092ED007AC6FE277A86FE656AC6FEA77A4F
:102BF000C6FEC66AC7FE277A87FE667A07D10AF242
:102C0000BC52D2ED006AC7FEA67A87FE667A77EEDE
:102C1000C77A1FED517AF4EEC77AF1EE10FA3EF75B
:102C2000DCAE0AF2C4422399052BD1ED005A92ED95
:102C3000006A3499369A91ED007AD2ED006A399A99
:102C4000C7FE257AC7FE655AC6FE277A92ED007A3E
:102C5000C6FEA77A86FE656AC6FEC66AC7FE277AE2
:102C600087FE667A29D00AF5A6640AF254500AF55E
:102C7000AF610AF29C52D4ED005A0A2B90ED006A23
:102C8000D1ED006AC5FEA77AC5FEC75A92ED007A5B
:102C9000C6FE277A86FE656AC6FEA77AC6FEC66AA3
:102CA000C7FE277A87FE667A07D10AF5B862D2EDA9
:102CB000006AC7FEA67A87FE667A77EEC77A1FEDAE
:102CC0007C7AF4EEC77AF1EE10FA3EF786AE0AF59A
:102CD00099622499052B91ED007AD2ED005A35992D
:102CE000379AD1ED006A92ED006A3A9AC7FE267AC9
:102CF00087FE667AC5FEA77AD2ED006A87FE657AFE
:102D0000C7FE867A87FE467AC6FEA77A87FE667A6F
:102D100029D00AF234540AF5AB600AF27C510AF564
:102D2000B46294ED006A0A2BD0ED006AD1ED005A2E
:102D3000C7FE867A86FE476A92ED007AC7FEA67ABB
:102D4000C6FEC66AC7FEA57AC6FEE56AC7FE277A32
:102D500086FEC77A07D10AF2C453D3ED006AC7FED4
:102D6000A67A87FE667A77EEC77A1FEDA77AF4EE29
:102D7000C77AF1EE10FA3EF730AE099A0123002A25
:102D80003EF430AE02F0FD02012A40F05D84002BDB
:102D900000F05A84DAF850340A2B00F0158400222F
:102DA000013388ADCAF85034AAF802228AF8042206
:102DB000CAF85C24FEF731BE0AF678030AF68402EC
:102DC0000AF67401B7EE004AD3ED001A0AF508635B
:102DD00092ED003A0AF67C0221EEA16AD3ED002AB8
:102DE00023EE037A91ED002A0AF68803D2ED004A19
:102DF000A2EE026A88ADA2EEA27AD3ED003AE04BD1
:102E00007FAA28462D99A4EEA46AA3EEA37AB7EE72
:102E1000C66AB7EEC77AB1EEC65BB1EEC76BB7EE66
:102E2000C55BC4EE057AB7EEC66B84EE067A83ED19
:102E3000006A67EEA45A27EE822A27EEA16A67EE9F
:102E4000222A27EE033A67EE233A62EEE56AC5EDE1
:102E5000022A22EE437A85ED053A66EE637AC5EDE5
:102E6000083AE3EE826AA6EE227AE5EE837AF0EE85
:102E7000664AB0EE475A26EEA67AF0EE675AA7EEFB
:102E8000A77AA5EE057AB7EEC77AB1EEC76BB7EEB3
:102E9000C66B84EE067A64EE876A65EE877A25EE65
:102EA000077A62EEE65AC5ED046A27EEE35AC5EDED
:102EB000017A23EE476A85ED077AA7EE225AB0EE33
:102EC000657AA7EE837AF0EE467A85ED035AE3EE53
:102ED000A67A85ED067AC5ED007A00F0EDFE4DA9E3
:102EE0007FA801F0AFF8DFEDA77A4D9BB0EE677ACF
:102EF0004E99F0EE676A4F9A5193509B52915392BC
:102F0000549396ED065A243656ED025A16ED016A90
:102F1000B44276EE856A37EE257A77EE867AF0D17E
:102F20009FED996A66EE866A27EE067A67EE867AE4
:102F3000CDED406A8DED417ACDED427A002F7FF4E0
:102F4000C9AD012340F20112B4EE007A8AF80432CE
:102F5000119BAAF80222D3ED007A67EE877AF4EE8D
:102F6000CF7AF1EE10FAC0F25782DDF8A0269AF877
:102F7000A438D2ED066A92ED077AD2ED087A002BDA
:102F800000F0A885B6EE006A66EE866A27EE067A3D
:102F900067EE867AC2ED066A82ED077AC2ED087A9C
:102FA000BAF8A6380133B3F5803F00F08D85312B98
:102FB000AAF8A63818D99AF8A438ABB9DDF8A03623
:102FC0009FED726AD3ED066A93ED077AD3ED087A26
:102FD00066EE866A27EE067A67EE867AC3ED066AA3
:102FE00083ED077AC3ED087ADAF8A43823F47F4337
:102FF000B3F58C0F00F0AB85B3F5C80F40F0288215
:10300000DAF8A00001230AF698010AF69C028AF871
:10301000A4380AF50A630860DAF8A400DAF8A81000
:1030200010601960DDED527A9DED517A77EEA77A46
:10303000DDED535A37EE077A75EEA55A67EEA77A9B
:103040009FED4D6BE7EE077AB0EE677AA5EEA57AB5
:10305000B7EEC77AB1EEC75BB7EEC57BB7EEC77AFE
:10306000B4EEC67BF1EE10FA40F123859DED2A7B8C
:10307000B5EE407BF1EE10FA40F01885DAF85034E6
:10308000322B00F0D18400220133AAF80222CAF8C0
:1030900050348AF80422CAF85C24FEF7BEBC88AD1E
:1030A000FEF7BBBCD2ED037AF5EE407AF1EE10FAF2
:1030B0007EF4B9AA4FF07E54CAF84430CAF84830BA
:1030C000CAF84C300598CAF85430CAF85830CAF8D3
:1030D0005C30CAF84040CAF85040CAF8604000F07E
:1030E000B1FFCAF89430CAF898304FF4A272CAF807
:1030F0009C300021DDF8B4360AF1B8001B68CAF82C
:10310000A030DDF8B4365B68CAF8A430DDF8B43618
:103110009D681F4BCAF8A850CAF8AC30CAF8B04036
:10312000CAF8B44001F04EF81A4BCAF8B830CAF8E1
:10313000E030CAF80831CAF83031CAF85831CAF854
:103140008031CAF8A831CAF8D031CAF8F831FEF790
:103150006ABADDEDC57AFDF73EBEF4EECF7AF1EE48
:1031600010FA00F3FD84DDEDD17AFEF75BB99DED39
:10317000DF7AFEF768B900BF7B14AE47E17A743F8F
:1031800004930420000000008988083D9A99193FA3
:103190006666663F0000A040DAF8B028002A00F01A
:1031A000F980179B93ED007A9FEDD96BB7EEC77A44
:1031B000B4EEC67BF1EE10FA40F3EC80013ACAF8A7
:1031C000B028FEF752BE77EEE57A93ED0A6A93EDEA
:1031D000037AB7EEC64A27EE075AB0EEE76A67EE03
:1031E000A77AB7EEC66AF4EE457A86FE046BB7EEB0
:1031F000C66BF1EE10FA83ED0A6A7EF701AEF4EECB
:10320000657AF1EE10FA7EF7FBAD93ED046A27EED6
:10321000877AD3ED056A26EE276A66EEA77A83EDF4
:10322000037A83ED046AC3ED057AFEF7E9BD5C1C01
:103230001A46FEF720BB9DED6C9AFEF73FBB0A24B1
:10324000022001216FF040450B190DF5C7665B08A0
:103250005A1906EB8202A2F5747292ED007AF4EE2E
:10326000C77AF1EE10FA80F28F80CA1898424FEABE
:10327000520213D254190DF5C76606EB8404A4F567
:10328000747494ED007AF4EEC77AF1EE10FA79DAFC
:103290001346CA1898424FEA5202EBD30B469900E4
:1032A0009AA86FF040450A224418A4A82B44014470
:1032B0009AA89B00D4ED006AA4AC91ED007A184462
:1032C0000121234490ED006A022093ED008A77EEFD
:1032D000C65A76EEC66A37EE487A85EEA66AA6EE3C
:1032E000078A8B180DF5C7665B085C1906EB84042A
:1032F000A4F5747494ED007AF4EEC77AF1EE10FA46
:103300003BDACC1898424FEA540413D262190DF5F7
:10331000C76606EB8202A2F5747292ED007AF4EEB3
:10332000C77AF1EE10FA26DA2346CC1898424FEA13
:103330005404EBD30B466FF040429900AEA81A44F8
:103340009AAB0B4492000144D3ED006A9AAB91ED25
:10335000007A1344024493ED006AD2ED008A77EEBE
:10336000C67A76EEC66A37EE687A87EEA66AE6EE29
:10337000078AFEF757BA1A462346581C1946904248
:10338000AFD3D8E71C461346581C1946A042FFF499
:103390005BAF84E7B7EEEC7A3D9BB7EE085B93ED4D
:1033A000006A27EE057BB7EEC66AB4EEC76BF1EE96
:1033B00010FA7EF55AADB7EECC7A1C9B93ED006AFD
:1033C00027EE057BB7EEC66AB4EEC76BF1EE10FAD6
:1033D0007EF54BAD504BB7EEEF7A93ED006A37EECA
:1033E000077B9AF8AD38B7EEC66AB4EEC76BF1EE5C
:1033F00010FA40F32E8400220E2BAAF8FC218AF842
:10340000FE218AF805228AF8072200F21D84033380
:103410008AF8AD38FEF729BDDDF8A036D3ED066A8F
:1034200093ED077AD3ED087A002F40F0658366EEBE
:10343000896A002327EE097A69EE277ADDF8A0264B
:10344000C2ED066A82ED077AC2ED087AAAF8A638BC
:103450009AF8A438002B7FF4E5AD9AF830203AB101
:10346000F0EE007AF4EE67EAF1EE10FA00F1CE83A6
:10347000DAF854341E2B00F0018101330022CAF81F
:103480005434CAF85C24FEF7C8BA0D240220012186
:103490006FF0404563180DF5C7665B085A1906EBD7
:1034A0008202A2F53C7292ED007AB4EECF7AF1EE90
:1034B00010FA1DD9CA1898424FEA5202BDF4CEAC98
:1034C00054190DF5C76606EB8404A4F53C7494ED1D
:1034D000007AB4EEC7FAF1EE10FA07DA1346CA180A
:1034E00098424FEA5202EBD3FDF7B8BC1C46134694
:1034F000581C1946A042CDD3FDF7B1BC1C4613465B
:10350000581C1946A042FDF47EACFDF7A8BC00BFD4
:10351000333333333333D33F089304200D24022055
:1035200001216FF0404563180DF5C7665B085A1915
:1035300006EB8202A2F55672D2ED007AB4EEE7FAFB
:10354000F1EE10FA3BDACA1898424FEA520213D24F
:1035500054190DF5C76606EB8404A4F55674D4ED32
:10356000007AB4EEE7FAF1EE10FA26DA1346CA183A
:1035700098424FEA5202EBD30B466FF0404299005B
:10358000C5A81A44B8AB0B4492000144D3ED006ABD
:10359000B8AB91ED007A13440244D3ED007A7FEE8C
:1035A000675A76EEE76AD2ED007A37EE677A85EEF3
:1035B000A66AE6EE077AFDF70EBC1C461346581CB9
:1035C0001946A042AFD3D8E70123069940F2011271
:1035D0008AF80432AAF802220A68CAF87C204A68EB
:1035E000CAF880208A68CAF88420DDF8CC261370D7
:1035F000DAF85C349AF830200133CAF85C3472B1DE
:10360000DAF880200021DAF87C00CAF8A420DAF881
:103610008420CAF8A0008AF83010CAF8A8201E2B0F
:103620007FF43DADDAF8A0000AF69803DAF8A410AA
:103630000AF69C0218600AF50A63116088ADDAF890
:10364000A8201A60FEF7E9B9099B022B00F0A481BB
:10365000042B38D00023DAF8A410DAF8A82088ADBB
:10366000CAF85034CAF85C34DAF8A030CAF88010CE
:10367000CAF88420CAF87C30FEF7CFB9BAF8A63869
:10368000272B00F28C81DAF8DC230123DAF8D81337
:10369000CAF88420DAF8D423CAF88010CAF87C204B
:1036A000DDF8CC261370BAF8A83801214FF6FF7266
:1036B0000B44CAF85C14B3F5803F08BF1346AAF860
:1036C000A838FEF7AAB9D249089B91F8380893EDBB
:1036D000001AD3ED010A042893ED022A069B93ED0C
:1036E000003AD3ED012A93ED024A40F2678101F6D8
:1036F0003C029FEDC86A01F67803DFEDC77A92EDD0
:10370000067A01F6B400D2ED076A01F50C6127EEE6
:10371000065AD2ED033A66EE864AD2ED045AC2ED5D
:10372000003AA3EEA75AD3ED063A546AE5EEA74A4B
:10373000C2ED046A63EE866AC2ED015AD3ED035A04
:10374000C3ED033AD3ED073AE5EEA76A93ED049A89
:103750009461C3ED043A63EE863A946A92ED080AE6
:10376000C3ED005AD3ED085AD461D46AD2ED051ADC
:1037700082ED037A20EE067A82ED050A25EE866A4E
:1037800093ED050AC3ED055AF0EE635A1462A1EEFB
:10379000A77A5C6AA0EE276AE9EE275AC2ED021A00
:1037A00083ED019ADFED9D1A83ED020A9C619C6A0C
:1037B000F0EE467A92ED0D9A92ED0C0AE9EE214A6E
:1037C000DFED973AA0EE215A92ED0E6AC2ED0D0A96
:1037D000A6EE217A82ED0B6A82ED0C1ADC61E0EE36
:1037E000A34AD3ED0D0AA1EE235A93ED0C1AE0EE95
:1037F000A15ADC6AA2EE237A82ED0A9AE1EE216AEE
:103800001C6282ED090A24EEA46AC0ED014A80ED33
:10381000005AE2EEA35AD3ED0E4AA5EE056A80EDFA
:10382000027AE3EE236A82ED0E2AE4EEA17AC3ED7A
:103830000A0AC3ED0D2A83ED091AC1ED015AA7EE5C
:10384000076A83ED0C3A25EEA57AC1ED006AE4EE35
:10385000237AC3ED0B4A83ED0E4AA6EEA67AB7EEA5
:10386000C66AC1ED027AB1EEC65BA7EEA77AB7EEE3
:10387000C77AB1EEC76BB7EEC55BF4EE45CAF1EEA1
:1038800010FA7FF70CACB7EEC66BB4EE46CAF1EE99
:1038900010FA7FF704AC069BF3EE097A93ED007AF9
:1038A000B0EEC77AB4EEE77AF1EE10FA7FF5F7AB37
:1038B000069B93ED017AB0EEC77AB4EEE77AF1EEAB
:1038C00010FA7FF5ECAB069B93ED027AB0EEC77A67
:1038D000B4EEE77AF1EE10FA7FF5E1AB089B93EDD9
:1038E000007AB0EEC77A9FED486BB7EEC77AB4EEB8
:1038F000C67BF1EE10FA7FF5D2AB089B93ED017A0F
:10390000B0EEC77AB7EEC77AB4EEC67BF1EE10FA26
:103910007FF5C5AB089B93ED027AB0EEC77A9FEDB9
:103920003A6BB7EEC77AB4EEC67BF1EE10FA7FF5CC
:10393000B6ABDAF850340A2B7FF431AA012306998A
:1039400040F201128AF80432AAF802220A68CAF880
:103950007C204A68CAF880208A68CAF88420DDF88A
:10396000CC261370DAF85C349AF830200133CAF8A8
:103970005C34002A3FF453AEDAF884200021DAF8F0
:103980008000CAF8A820DAF87C20CAF8A4008AF8D7
:103990003010CAF8A02042E688ADFFF7D2BA0699E7
:1039A00001230A68CAF87C204A68CAF880208A681D
:1039B000CAF88420DDF8CC26137074E60C2401F6D6
:1039C000780301F63C02002504FB00F40130234497
:1039D000224481F8380883ED003AC3ED012A83EDD3
:1039E000024ADDF8CC3682ED001AC2ED010A82ED02
:1039F000022A1D70FEF79FBF4FF07E53CAF8B03009
:103A0000FDF7D6BDAFF30080666666666666F63F74
:103A1000E08A0420CDCCCCBDCDCC4CBECDCCCC3DB1
:103A2000CDCC4C3EABAAAA3EDDF8A0361FED047A01
:103A3000D3ED067A0123DDF8A00667EE877ADAF87F
:103A40005C24B2F57A7F02EB0301C0ED067A8AF8B6
:103A50000232D0ED077A67EE877AC0ED077A8AF8EE
:103A60000332D0ED087A67EE877AC0ED087A8AF8DB
:103A700004320ED1DAF8A0400AF69803DAF8A4006E
:103A80000AF69C021C600AF50A631060DAF8A820A6
:103A90001A604098419A429BCAF85C14CAF8A00088
:103AA000CAF8A420CAF8A830FDF7B7BF0023FFF773
:103AB000EABA0023CAF85034AAF802328AF804326B
:103AC000CAF85C34FDF7A9BF4FF6FF73AAF8A63811
:103AD000FFF771BA1FED2D6ADDF8A03666EE866A33
:103AE00027EE067A67EE867AC3ED066A83ED077ADB
:103AF000C3ED087AFFF754BAF6EE005A1C9B93ED1B
:103B0000005AF4EE65EAF1EE10FA7FF590ACB4EEEF
:103B100045CAF1EE10FA7FF78AAC8EEE2F6A8DEE71
:103B20002C4AC5EE0C4AB7EE085A36EE046A36EE59
:103B3000246AB4EEC56AF1EE10FA7FF578AC66EE51
:103B4000A56A002327EE257A67EEA57A76E44FF082
:103B50007E53CAF83031CAF85831CAF8803177E458
:103B60000D24022001216FF040450B190DF5C766A9
:103B70005B085A1906EB8202A2F55672D2ED007A62
:103B8000F4EECF7AF1EE10FA3BD9CA1898424FEA18
:103B9000520213D254190DF5C76606EB8404A4F53E
:103BA0005674D4ED007AB4EEE7FAF1EE10FA26DAA4
:103BB0001346CA1898424FEA5202EBD30B466FF0F5
:103BC00040429900C5A81A44B8AB0B449200014486
:103BD00093ED006AB8ABD1ED006A13440244D3ED13
:103BE000007A3FEE675A36EE676AD2ED007A76EEDB
:103BF000E76AC5EE065AE5EEA67AFDF713BC1C4649
:103C00001346581C1946A042AFD3D8E7F1EE007A0C
:103C10009AEDF17AB4EEE77AF1EE10FA7FF528AC7E
:103C2000DAF8DC130122DAF8D803CAF88410DAF8DB
:103C3000D413CAF88000CAF87C10DDF8CC160A70DC
:103C40008AF83030FDF7E9BE6423CAF8B038FEF7D1
:103C50000CB96BB10022013BAAF8FC218AF8AD38FF
:103C60008AF8FE218AF805228AF80722FEF7FDB8B5
:103C70004AB1AAF8FC318AF8FE318AF805328AF88E
:103C80000732FEF7F2B8DDF8A036B1EE006AD3EDE8
:103C9000006A93ED017AD3ED027A66EE866A27EE2A
:103CA000067A67EE867AC3ED006A83ED017AC3ED8A
:103CB000027AFEF7DAB800BF2DE9F04F2DED028B46
:103CC00099B006460D4614460DF13C0E074600F12C
:103CD00020083868103757F80C1CF44657F8082CA1
:103CE0000EF1100E57F8043C4745ACE80F00F0D138
:103CF000D6ED007A96ED017AF0EEE77A3868B0EE0C
:103D0000C77ACEF80000F4EEC77AF1EE10FA00F1AF
:103D1000798104274FF00009B0EE677A07234FF04E
:103D2000060E3A4648464FF0030C4FF0010A039343
:103D3000D6ED027AF0EEE77AF4EEC77AF1EE10FAF9
:103D400000F36E81082305214FF002083244064437
:103D50004FEA8A0096ED007A18AE4FEA880BD2ED52
:103D6000006A06440590C6EE877A4FEA89020296F9
:103D700018AE0B929B0006EB0B00B21801904FEAB5
:103D80008C000892BA000C90301806920DF1600C6D
:103D90000990880031464FEA8E060490114418AA13
:103DA0000CEB060E0D961018039A18AE9C44920068
:103DB00016440792019A0A96029E46ED097A089ED9
:103DC00052ED096A16ED097A029EC6EE877A42ED37
:103DD000097A099A56ED096A12ED097A51ED097AC4
:103DE000019EE6EEC77A41ED097A12ED097A56EDA9
:103DF000096A50ED097AE6EEC77A40ED097A029A2F
:103E00001EED097A52ED096A0A9A52ED097AE6EE38
:103E1000C77A42ED097A019A1EED097A52ED096AD4
:103E20005CED097AE6EEC77A4CED097A50ED097A35
:103E300011ED097AB0EEE76AF0EEC76AB4EEE66A11
:103E4000F1EE10FA13DC4246F0EE476A0498D046D1
:103E50009246039AB0EE677ACDF814B0F0EE667A27
:103E60004FEA880BCDE90603BB000493930087EE6D
:103E7000276A18A9069A0DF1600C0B4404980A44AD
:103E800060441646079A0290B7EE001A0A44174695
:103E90000A460B995A44AB4401926A1892ED007A93
:103EA000624606ED096A57ED097A511853ED095A31
:103EB0000D9AE6EE657A84ED007A96460C9ADBED73
:103EC000006AE644944618AA039147ED097A94449F
:103ED000019F9346059AC1EE274A57ED091A93446C
:103EE00056ED092A029EA8181BED092A05EB890246
:103EF000F1EE618A16ED096AB1EE428A13ED093AD4
:103F000081EE065A039B5EED093A114653ED097A9C
:103F100005EB88091CED094A05EB8A080492E8EED6
:103F2000876AB1EE620AF1EE430AC1EE275AC4ED88
:103F3000016A90ED006AB1EE631AA8EE076AF1EE2D
:103F4000447AA0EE266A26EE246AE0EE866A84EDC4
:103F5000026AA1EE067A66EE856AA7EEA67AC4ED3D
:103F6000016A27EE257A84ED007A91ED037A84EDDB
:103F7000037AD9ED036AE8EE876AC4ED046A98ED26
:103F8000036AA8EE076AA0EE266A26EE246AE0EE2F
:103F9000866A84ED056AA1EE067A66EE856AA7EE6A
:103FA000A67AC4ED046A27EE257A84ED037A91EDB2
:103FB000067AB1EE476A84ED067AD9ED067AE6EE26
:103FC000217AC4ED077AD8ED066AE6EE026AE7EEDA
:103FD000E26A66EEA44AF1EE646AC4ED084AE6EECF
:103FE000837AA6EEA37A67EE857AA7EEC47AC4ED4B
:103FF000077A27EE257A84ED067A19B0BDEC028B9C
:10400000BDE8F08F4FF0040C4FF0000A06234FF08C
:10401000070E60465246039303274FF0010987E6D7
:1040200007224FF0080E04270623039270463A46F3
:1040300003214FF0050C4FF002094FF000084FF03C
:10404000010A83E690ED007AFFEE007A90ED046AB3
:10405000D0ED086A37EE467A37EE667AB4EEE77A44
:10406000F1EE10FA40F3A880F7EE007A37EE277AE7
:10407000B7EEC77AB1EEC76BB7EEC66B90ED057AB7
:10408000FEEE007A90ED075AF6EE006A90ED064AD1
:10409000FFEE004A35EE475AD0ED025A90ED037A12
:1040A00075EEC45A90ED014AB5EEC05A37EE447A27
:1040B000F1EE10FAF5EEC05A54BFF0EE665AF0EE8B
:1040C000675AF1EE10FAB5EEC07A26EE256A54BFB3
:1040D000B0EE664AB0EE674AF1EE10FA81ED006A82
:1040E00090ED047A90ED006A48BFF0EE676AD0ED7B
:1040F000087A37EE467A37EE677AB4EEE47AF1EE74
:1041000010FA56DDF7EE007A37EE277AB7EEC77A67
:10411000B1EEC75BB7EEC55B25EE045A81ED015ADF
:10412000BFEE006AD0ED007AD0ED045A90ED087A27
:1041300077EEA57A37EE677AB4EEC67AF1EE10FA2A
:1041400034DDF7EE007A37EE277AB7EEC77AB1EEB4
:10415000C75BF7EEC57B67EEA67AC1ED027AFFEE8C
:10416000007A90ED007A90ED046AD0ED086A37EE9F
:10417000067A37EE267AB4EEE77AF1EE10FA10DD21
:10418000F7EE007AF6EE005A37EE277AB7EEC77AE6
:10419000B1EEC76BB7EEC66B26EE256A81ED036AFA
:1041A00070479FED076A81ED036A7047DFED047A7F
:1041B000D3E79FED035AB1E79FED016A5EE700BFC9
:1041C0000000000010B5044610460A46014620468D
:1041D00000F0B4F8204610BD10B5044600F01EF9FA
:1041E000204610BD0346202210B52DED068BD3EDE1
:1041F000019A0C4690ED008A002129EEA9AA93EDC0
:10420000039A201DD3ED028AFFF7DCFFF1EE484A46
:1042100029EE093AB0EE4A5AF0EE4A5AB0EE436A35
:1042200098EE085AE4EE885AB1EE684A29EEA87A68
:10423000A8EEA86A68EE896A69EE897AA4EE285A1F
:10424000E4EE285AB0EE474AA4EE886AF0EE663AE9
:10425000A4EE894AF0EE674AE8EE293AD8EE296AD8
:10426000A8EE097AD8EE284AE8EE287A36EE4A6AAD
:1042700035EE035A75EE835A73EEA33A84ED086A5D
:1042800076EEA66A84ED005A34EE044AC4ED045A70
:1042900037EE077AC4ED033A74EEA44AC4ED016A1E
:1042A00077EEA77A84ED054A84ED077AC4ED064AD5
:1042B000C4ED027ABDEC068B10BD00BF91ED023A51
:1042C000D0ED013AF1EE431A91ED035A90ED024A16
:1042D00023EE836AD1ED012A91ED002A64EE216A72
:1042E000F1EE620AD0ED004AB1EE421AD0ED035A67
:1042F00024EE027A64EE057AA4EE856AE3EEA06A03
:10430000A3EE857AE3EE817AA4EE206AE4EE816A78
:10431000A4EEA17AE4EEA27AA5EE826AE5EE856AC1
:10432000A5EEA27AE5EE837A82ED006AC2ED036A19
:1043300082ED017AC2ED027A704700BF62F30F226C
:1043400062F31F42401810F0030308D0C91A1FD3AC
:10435000DB0748BF00F8012D28BF20F8022D13000D
:1043600030B414461546103928BF20E93C00FAD86D
:10437000490728BF20E90C0048BF40F8042D8900F8
:1043800028BF20F8022D48BF00F8012D30BC70472F
:10439000C91818BF00F8012DCB0728BF00F8012D60
:1043A0007047F0B40246106895681318506803EB24
:1043B0005004C0071DD54D441BE013F8017B05F8E0
:1043C000017B491EF9D1A0B1B60813F8011B06F014
:1043D0000306032E08BF13F8016B01EB06214942C7
:1043E000801C294405D011F8016B05F8016B401EB3
:1043F000F9D1A3420ED013F8016B16F0030104BFEC
:1044000013F8011BC91C30090F28DAD113F8010B6E
:104410000F30D6E7F0BC02F10C00704762B38B0797
:1044200008D0521E11F8013B00F8013B00F0248037
:104430008B07F6D1830740F0208000BF103A07D3E6
:1044400030B4B1E83810103AA0E83810F9D230BCD6
:10445000530724BFB1E80810A0E8081044BF51F882
:10446000043B40F8043BD20724BF31F8022B20F86C
:10447000022B44BF0B7803707047121F17D35B00E9
:1044800009D151F8043B20F8023B1B0C121F20F805
:10449000023BF6D20BE051F8043B00F8013B1B0A4B
:1044A00020F8023B1B0C121F00F8013BF3D238BF6F
:1044B000121D521E24BF11F8013B00F8013BF8D831
:1044C0007047B1F5807F02D34FF0FF307047017025
:1044D000012070470A780260087800E00078401EEA
:1044E0008041C043C00F70472DE9F04FDFF80C94B6
:1044F000B9F80860D9F80C50822EB9F902402DEDB8
:10450000108BADF2246D40F2A88106F17E074FF0CA
:10451000820BFFB2D9F810C000230DF5047A19B24E
:104520000133CA001CF831E0DBB20CEB02000AF8E0
:1045300031E052445B45D0F802E0C188C2F802E0A5
:10454000D180ECD3822E40F2B881A6F182039BB2D7
:10455000A9F80830EFB1791ED9F810304FF0000CEF
:10456000C9B203F1080202EBC10193F810049142B1
:10457000B3F812E4B3F814741870B3F8160483F89F
:1045800010C4A3F802E09F80D880134602F108020D
:10459000EBD1013E0BF1FF3399F8E02004FB1651FB
:1045A0000A9304FB0313059209910893002A00F073
:1045B00059810023DFF848E347F6FF7CCDF808B0C7
:1045C00099ED012A1E461846D9ED2D2A99ED2A3A71
:1045D000F346D9ED313A99ED2B4AD9ED354A99EDAB
:1045E0002C5ADFEDCE5A0493CDF80CC0CDE900EC87
:1045F000C3001AF83010471C741C0AEB0302002990
:1046000000F0998026B2B2F90440B2F9025007EEE8
:10461000904AB2F9061007EE105A019AF8EEE77ABE
:10462000A645F8EEC76A07EE101AB8BFA646A24222
:1046300077EEC47A76EEC36AA8BF2246AB45B8EEE1
:10464000C77A67EEA37A0192B8BFAB46009AAC4531
:1046500066EEA26A67EEA77AA8BFAC468A4237EE3A
:10466000457AE6EEA67AB8BF0A46009227EE247A8B
:10467000039A8A4277EEA55AA8BF0A4603280392F6
:10468000E7EE075A57DDA3F12002A3F10800183B1B
:10469000524450445344B2F90280CDE90623B0F9A4
:1046A0000230A5EB08050B93079BB3F90220069B8C
:1046B000B3F904800B9BA4EB0804B0F904809A1AA8
:1046C000069BB0F9060002EB4502B3F9063007EE8F
:1046D000902A079AC91AB2F90450F8EEE77AB2F9AB
:1046E0000630A8EB0508F0EEE77AC01A08EB44089C
:1046F000049B00EB410107EE108AFCEEE77AF8EE2E
:10470000C76A07EE101AF8EE677AB8EEC77AF0EECD
:10471000E66AB0EEC77A77EEA67AFCEEE77AF8EEB4
:10472000677A77EE277AFCEEE77A17EE902A9342C3
:1047300038BF1346049338B2029B83423FF758AF09
:104740007446DE469B46002E00F0F080BEF5804F9A
:1047500080F28F801CF5804FC0F28B80B4F5804FC3
:1047600080F28780019B13F5804FC0F28280009B0E
:10477000B3F5804F7DDA039B13F5804F79DB07EEAD
:10478000906A1946019BAEEB0C0CF8EEE76A9FEDC0
:10479000587AF7EE007AE21A009B85EEA66A9445F5
:1047A000A3EB01016346B8BF13468B42C7EE826A92
:1047B000B8BF0B4607EE903AF8EEE77AF1EEC65A2C
:1047C00026EE877AB4EEE77AF1EE10FA65EE825AB9
:1047D0004FD49DED047A9FED476AB8EE477A27EEF5
:1047E000022AB4EEC62AF1EE10FA42DCB1EE047AE7
:1047F00066EE876AF4EEE76AF1EE10FA00F33585AB
:10480000B1EE007A26EE877AF4EEC77AF1EE10FA6E
:1048100040F35B8507EE90CA76EEA66AF8EEE77A7B
:10482000F4EEE67AF1EE10FA40F34F8507EE902AA7
:10483000F8EEE77AF4EEE76AF1EE10FA40F145851A
:1048400007EE901AF8EEE77AF4EEE76AF1EE10FA66
:104850004CBF01230023009369E0002E40D0B346F3
:10486000002757E6C9E93A22C9E93C22C9E93E22B4
:104870009FE60226002299F8A430023B012B15D8AE
:10488000DFED1D7AF4EE675AF1EE10FA0EDD00232B
:104890000120FF21089C89F8E030C9F860430593A6
:1048A00089F8243089F8A40089F8E2103AB10DF2B1
:1048B000246DBDEC108BBDE8F08F002348E6002E80
:1048C00000F04E87FF23089989F8E020C9F86013AB
:1048D00089F8E2300DF2246DBDEC108BBDE8F08F4D
:1048E000A9F808600DF2246DBDEC108BBDE8F08FC7
:1048F0000000024300007A440000484344A9042019
:104900000080FFFF0000C84200FF7F4700003CC25C
:104910009A99D93F3433234000007C4200000000C4
:104920000AD7233C6F12833A6666663F00965FEDB6
:104930000B7A99F9663365EEA75A1FED0D7A002BB5
:1049400099F86503C5FEC75AC0F26984013393FB29
:10495000F0F200FB123252B2114699F86433F8FEBD
:10496000655AFCEEE55A09EB4101013389F86623EB
:10497000834215EE902AA8BF0346A1F8682389F860
:104980006433D9F8603301932BB1089AD21A40F6F8
:10499000B7339A428BD9DDED087AD9F8D830B8EE22
:1049A000674A5FED207A24EE274AB8FE445A002B6E
:1049B00040F0118499F8A48099F864E399F865436C
:1049C000A64500F06284002607EE90EA1FFA8EF5F5
:1049D000B8EEE76A002D00F016811FED307A002155
:1049E00041F25C2040F6B837F0EE476A8C46CDF8CD
:1049F00008E07218013192FBF4F304FB132309EB76
:104A00004303B3F86823A2EB000E8242A0EB02033B
:104A100007EE902A9BB2F8EEE77A88BF1FFA8EF372
:104A20000CF1010E03FB03F237EE277ABB4207EECF
:104A3000902A8AB288BF5FFA8EFCF8EEE77A954238
:104A400076EEA76AD5D8C6EE867ADDF808E05FED87
:104A50004C6A0EEB4E0ECDF81CC0BEF13B0FB1EE12
:104A6000E78A28EE268A40F3D780B8F1000F3AD0C3
:104A7000C7EE065A5FED5B7AB0EE087AE5EEA67AED
:104A8000F0EEE77AF4EEC77AF1EE10FA0DD4B1EE5B
:104A9000087AF4EE477AF1EE10FA0AD51FED647A3F
:104AA000B4EEC78AF1EE10FA03D5032389F8A430D7
:104AB000B6E0B1EE057AF4EEC77AF1EE10FA0FD453
:104AC000B2EE057AF4EE477AF1EE10FA40F116866E
:104AD0005FED707AB4EE678AF1EE10FA40F10E865F
:104AE000022389F8A430B7EE007A99ED016AF1EE5D
:104AF000004A5FED777AD9F8E43045F2F052C7EE1C
:104B0000065AB9F902801A44DDE9090101FB0808D7
:104B1000424565EEA44A64EEA77AFCEEE77A17EE0A
:104B2000901A89B2019155D244F6206299F8E14079
:104B30000599904514BFA8EB02084FF0000899F9B9
:104B4000E2208C4202F1010200F09383521A92FBA0
:104B5000F4F104FB1122002A15B201DA224415B245
:104B6000059A16B29EB3A3EB0803002198B20F4634
:104B700005E0A3F8E0C001310BB29E421BDD05EB5E
:104B8000010C9CFBF4F304FB13C3DBB2043309EB0D
:104B9000C303B3F8E0C084440FFA8CFCBCF1000FEF
:104BA000E7DA02F1FF3E0127A3F8E0C0002AE2D0D5
:104BB0005FFA8EF2DFE7059289F8E0203FB1B0EEB0
:104BC000640A019801F098FF99F8E0300593434694
:104BD000C9F8E480059A002A50D099F9E21041F210
:104BE000883209EBC101B1F900110A441344099A52
:104BF000934237D3009B002B43D1059B0A2B40D80F
:104C00004FF0000828E11FEDBB7A5FEDBB7AB1EEF3
:104C1000C78A079528EE278AB8F1030F7FF463AFA0
:104C2000D9F8A030002B3FF45EAF07EE903AB3EE18
:104C30000E7AF8EE677A74EE676AF4EEC76AF1EE00
:104C400010FA7FF750AF9DED017A5FEDCA6AB8EEBA
:104C5000477A27EE267AF4EEC77AF1EE10FA3FF79C
:104C600026AE40E70023FF2289F8E03089F8E220F1
:104C7000C9E93A33C9E93C33C9E93E33009B002B0B
:104C8000BED0F6EE006A5FEDD87AB5EE007A4FF04E
:104C9000000824EEA43A019EF7EE083A434665EE7A
:104CA000A65A444626EE076ACDF8148023EE273A2A
:104CB000CDF800B064EEA33A1AF834100AEBC4023F
:104CC000A4B2002900F0BF80B2F90200B2F904508A
:104CD00007EE900AB2F90670F8EEE77AF0EEE77A9E
:104CE000F4EEE57AF1EE10FA16D507EE905AF8EEEA
:104CF000E77AF0EEE77AF4EEE75AF1EE10FA0BDD20
:104D000007EE907AF8EEE77AF0EEE77AF4EEE75AFB
:104D1000F1EE10FA00F3978099F8E0B0BBF1000FC4
:104D200000F0AF81B9F95A13B9F95823491BB9F901
:104D30005C33121A01FB01F1DB1B02FB021203FBC5
:104D4000032307EE903AF8EEE77AB4EEE73AF1EE95
:104D500010FA78DC90FBF6F306FB1303002BB8BFC8
:104D60009B191BB207EE903A95FBF6F3F8EEE77A43
:104D700006FB1353002B67EE867AB8BF9B19F8FE2B
:104D8000677AFCEEE77A1BB2CDED017A07EE903A36
:104D90009DF80420F8EEE77A019297FBF6F306FB04
:104DA000137367EE867A002BF8FE677AFCEEE77ADB
:104DB000B8BF9B191BB2CDED027A9DF8082007EE13
:104DC000903A0292F8EEE77AD9E93A2367EE867ACA
:104DD000F8FE677AFCEEE77ACDED037A9DF80C10C9
:104DE000039101991F2940F2EC81A1F120030121D7
:104DF00001FA03F3134214BF0B4600230493029AF3
:104E000083F001081F2AD9E93C1340F2D381A2F1B3
:104E10002003012202FA03F30B4214BF13460023BE
:104E2000039A83F0010C1F2AD9E93E1E7ED9A2F114
:104E30002001012202FA01F111EA0E0F7DD058EA99
:104E40000C0340F090840134009A24B2A24223461D
:104E50003FF732AFDDF8148099F8DC3048EA0303FD
:104E600089F8DC30002B3FF422AD99F8E030182BA4
:104E700002937FF61CADD9F8A0306BB107EE903AE3
:104E8000B0EE007AF8EE677A34EE674AB4EEC74ABD
:104E9000F1EE10FA3FF50BAD0021D9ED01AA012783
:104EA000D9F8F0E00C460A460E46D9F8FCB0D9E92C
:104EB0003AA3D9E93DC801930B46CDE91B11CDE9D1
:104EC0001D11CDE91F1116E00AEA01050EEA0100E5
:104ED000002D18BF0136002818BF01331BEA010F4F
:104EE000F6B2DBB214BF0121002101340A44402C88
:104EF000D2B200F0F581A4F1200107FA04F01F2CD2
:104F000007FA01F10CEA0005DED8711C0091019945
:104F1000014218BF9DF80060002D18BF013318EA48
:104F2000000FDBB214BF01210021DEE74FF0010EBC
:104F30000EFA02FE1EEA010F81D199F9E21099F8EA
:104F4000E1E04A1C0692049A13434BD0F34500F06B
:104F5000A983069BA3EB0B0292FBFEF30EFB13232C
:104F6000002B1AB202DA73441BB21A464FF0000C3F
:104F70000496904601E0B34533D908EB0C020CF1DE
:104F8000010C92FBFEF30EFB13235FFA8CF6DBB2EF
:104F9000043309EBC303B3F9E210B3F9E420411A77
:104FA000B3F9E630AA1A06EE901AFB1A07EE102A99
:104FB000F8EEE66A07EE903AB8EEC77AF8EEE77ACE
:104FC000F0EEE66AB0EEC77AF0EEE77A36EE877A70
:104FD00077EE277AF4EEE73AF1EE10FACBDD049E95
:104FE00031E7049E069B0BF10102B9F8028072457D
:104FF000A9F85803A9F85A53A8BF7246A9F85C73D8
:1050000093FBFEF10EFB11319346D9F8E43049B21F
:10501000099A01F1040CD31A5FFA8BF289F8E210B5
:1050200018FB043309EBCC0C724589F8E020ACF88E
:10503000E200ACF8E450ACF8E670ACF8E03000F018
:105040001E81019B1F2B40F23581203B0121D9F8A5
:10505000E82001FA03F323EA02035340C9F8E830D9
:10506000029B1F2B40F21B81203B0121D9F8F0202D
:1050700001FA03F323EA02035340C9F8F030039B1B
:105080007CE04FF00101D9F8E42089F8E2B089F81A
:10509000E010B9F902C0002A40F0C580099903FB6D
:1050A0000C13C9F8E430A9F80201A9F85803A9F8CB
:1050B0000451A9F85A53A9F80671A9F85C73A9F824
:1050C000002190FBF6F306FB13000028B8BF8019FF
:1050D00003B207EE903A95FBF6F3F8EEE77A06FB9B
:1050E0001355002D67EE867AB8BFAD19F8FE677AC2
:1050F000FCEEE77A2BB2CDED017A07EE903A9DF8FF
:105100000420F8EEE77A97FBF6F306FB137767EED9
:10511000867A002FF8FE677AFCEEE77AB8BFBF19EF
:105120001F2A3BB2CDED017A9DF8041007EE903AAC
:10513000F8EEE77A67EE867AF8FE677AFCEEE77AB1
:10514000CDED017A9DF804307ED9203A0125D9F8B9
:10515000E80005FA02F222EA00024240C9F8E8201B
:105160001F2967D9A1F120020120D9F8F01000FA17
:1051700002F222EA01024A40C9F8F0201F2B0CD9A2
:105180000121203BD9F8FC2001FA03F3059123EA21
:1051900002035340C9F8FC3055E60122012102FA0E
:1051A00003F3D9F8F820059123EA02035340C9F824
:1051B000F83048E601219140194214BF0123002331
:1051C0002EE60A46012101FA02F21A4214BF0B46EA
:1051D0000023049313E607EE903A9FED3E7AF8EE33
:1051E000677A75EE677AFDEEE77AF8EEE77AF4EE25
:1051F000C77AF1EE10FA32DC9FED377A99F8A48085
:10520000F4EEC77AF1EE10FA40F33B8218F1000891
:1052100018BF4FF0010889F8A480FFF7CDBB00212B
:105220000A46FFF79ABB099B1CFB04F19A1A0A4431
:1052300012B238E701228A40D9F8F41022EA0102BA
:105240004A40C9F8F42099E7012000FA02F2D9F89F
:10525000EC0022EA00024240C9F8EC2080E700237B
:1052600089F8A4309846FFF7A7BB00260122FFF774
:1052700002BB92FBF1F501FB152215B270E4B0EE12
:10528000640A304601F038FCDBE699F966330133F5
:1052900093FBFEF60EFB16339EB2FFF795BB012281
:1052A00002FA03F3D9F8F42023EA02035340C9F8C1
:1052B000F430E4E6012202FA03F3D9F8EC2023EA01
:1052C00002035340C9F8EC30CAE600230093FFF70D
:1052D0002EBB00BF00F0524900C0284800003442F5
:1052E000052E40F2C981052B40F2C681052A40F205
:1052F000C38199F8E1B0029A99F9E2505A4505F153
:10530000010300F0F5819A1A92FBFBF30BFB1323C8
:10531000002B1CB201DA5B441CB204F11D03002611
:10532000009509EBC303B3F91A10B3F91C20B3F9C4
:105330001E308E4694461F4604EB0608013698FB45
:10534000FBF00BFB1080F5B2C0B21D3009EBC000C2
:10535000B0F91AA0B0F91C805145B0F91E00B8BFD1
:105360005146D645A8BFD6464245B8BF4246C44579
:10537000A8BFC4468342B8BF03468742A8BF0746BA
:105380000298A842D8D8F7EE007AA1EB0E01A2EB62
:105390000C02DB1B5FED2F5A09B2C7EEAA8A99F8FF
:1053A0002400009D12B21BB268EEA55A002840F0FE
:1053B0009D8199F8A400B0FA80F04009B0EE086A27
:1053C00007EE901AF8EEE76A25EE866AF4EEC66AF2
:1053D000F1EE10FA00F36E8107EE902AB8EEE77A4C
:1053E000B4EEC76AF1EE10FA00F1648107EE903A6C
:1053F000F8EEE77AB4EEE76AF1EE10FA00F15A81BE
:10540000002800F08081F4EEC75AB7EE026AF1EE90
:1054100010FAF4EEE65A66EE866ACCBF012300234A
:10542000F1EE10FAF4EEE75AC8BF43F00103F1EED3
:1054300010FAF4EEE65AC8BF43F00103F1EE10FA99
:10544000039300F3198127EE067AF4EEC75AF1EEC2
:1054500010FA00F3118167EE867AF4EEE75AF1EE66
:1054600010FA00F3098100234FFA84F84FF0010C81
:105470001F461E4608EB0C0A08EB03000AEB03026A
:1054800090FBFBF392FBFBF10BFB13030BFB1122D5
:1054900059B252B2002901DA5B4459B204320431E4
:1054A00009EBC20009EBC103B0F9E200B3F9E23045
:1054B00084B2C01A9BB2002809EBC200B4BF1B1B08
:1054C000E31AB0F9E4501CB209EBC103A8B2B3F976
:1054D000E430ED1A9BB2002D09EBC20509EBC202C4
:1054E000B4BF1B1AC31A09EBC100B5F9E6E009EB1A
:1054F000C101B2F8E020B0F9E6001FFA8EF5B1F86C
:10550000E0101BB2AEEB000E80B2521ABEF1000FDB
:1055100012B2B4BF401B281A002A00B21CDD23447B
:1055200007EE902A4FF47A7201360344B8EEE77A18
:10553000F6B202FB03F307EE903AF8EEE77A67EE75
:10554000AA7AC7EE876AFDEEE67A17EE903A1BB2AA
:10555000642B01DD0137FFB263460CF1010C0299A7
:105560005FFA8CF2914287D8B6EB870F80F2848085
:1055700099F8A430023B012B00F25A81B44B00246D
:105580000EAFF3EC017AF8FE677AFDEEE77A17EEDC
:10559000902A27F814200134032CF2D1FCEEC57AAE
:1055A000AC49B0EE6A0A0CAB0DAA3846CDED007AD4
:1055B00001F080FB9DED0C7ADFEDA77AB4EEE77A7F
:1055C000F1EE10FA11D5DDED0D7AB0EE0C7ADFEDCB
:1055D000A36A77EEE67AF0EEE77AF4EE477AF1EE38
:1055E00010FA02D5002800F0288100233B60BB8020
:1055F00099F8E04099F8E15099F9E2A0AC420AF13B
:10560000010A00F0B880AAEB040292FBF5F305FB57
:105610001323002B19B201DA2B4419B29FED939A90
:105620000022B0EE49AAF0EE499AD3B288180132AE
:105630009C4240F2A68090FBF5F305FB1303DBB21E
:10564000043309EBC303B3F9E20006EE900AB3F9A1
:10565000E400B3F9E63007EE100AF8EEE66A07EE6A
:10566000903AB8EEC77AF8EEE77A79EEA69A3AEE73
:1056700007AA39EE279AD8E7002389F8DC30FFF72C
:1056800016B99FED777AF4EEC77AF1EE10FA7FF74C
:1056900093A9B8F1020F28BF4FF0020889F8A4803F
:1056A000FFF78AB9069A92FBFBF30BFB13231BB29D
:1056B0001A465BE409EBC505D9F8E420D9F8601374
:1056C000B5F9003113449942D6D2D9F8D8004FF435
:1056D0007A73002103FB00F389F8DC1064339342F2
:1056E00038BF1346C9F86033FFF7E1B8002065E61C
:1056F00093FBF2F402FB14331CB20EE6012389F88B
:10570000A430FFF7F0B9D9ED313AB7EE024A99ED7E
:105710002D6AF7EE004A99ED353A36EE236ADFED51
:10572000513A36EE036A26EE236A86FE446A86FE06
:10573000246A66EE866AF4EEE65AF1EE10FA9BDC15
:1057400027EE067AF4EEC75AF1EE10FA94DC67EE13
:10575000867AF4EEE75AF1EE10FA8DDC039082E6D9
:105760000096FFF70EB999F9E23099F8E1E00133BC
:105770000693FFF7EBBB9AFBF4F104FB11A109B20E
:105780004CE707EE904AB7EE006A9FED387A0022A8
:10579000F8EEE77AB0EE475A4892F0EE474A49925F
:1057A000C6EE276A4A924B92F0EE477AB0EE474A2D
:1057B000B0EE47BA69EEA69A2AEE26AA29EE269AF4
:1057C000CDED129A8DED13AA8DED149AD3B28818EF
:1057D00001329C424ED990FBF5F305FB1303DBB27B
:1057E000043309EBC303B3F9E20005EE900AB3F901
:1057F000E400B3F9E63006EE100AF8EEE55A06EEDC
:10580000903AB8EEC66AF8EEE66A75EEE95A36EEF8
:105810004A6A76EEC96AA5EEA5BAA5EE864AE6EE14
:10582000067AE5EEA64AA6EE265AA6EEA67ACDE7B9
:10583000FCEEC57ACDED007ADAE60023009A89F80D
:10584000A440C9F8A02089F8DC30FFF730B800BFC9
:10585000ECA90420F8A904209A99D93F00003C4201
:1058600000F05247ABAAAA3EABAA2A3E00000000B5
:10587000920A064064EEA46A8DED42BA8DED434A69
:10588000CDED444AE4EE046ACDED457A8DED465AFD
:105890008DED477AE5EE056AF5EE406AF1EE10FA15
:1058A00000F0C18077EE87BA5FED124AB0EE005A81
:1058B0005FED135AB7EE006A4FF000087BEE8BBA2B
:1058C0000DF5D07B434602946BEEA4BA77EEEB7AEB
:1058D0003BEE6BBA37EE6B7A67EEA77AEBEE0B7A9C
:1058E000E6EE857AE7EE077A67EEA57AB1EEE7CACB
:1058F00086EE0C7A0C2203F1010EDCB2002102FBD1
:1059000003B6022203FB0EF3204693FBF2F3A8EB4F
:105910000303DBB201935FFA81FC019B4A1C6344E1
:10592000644501FB02F7DBB201F2128042AA02EBEE
:10593000830701F10102D7ED007A01F0008042A94E
:1059400001EB8303D3ED007A67EE877AC6ED007A28
:105950000330032A06F104061146C0B2DBD17346B8
:1059600008F10308032B5FFA88F8C3D19BED085AAE
:10597000B6EE003A9BED036AFFEE003A9BED054A56
:1059800066EE457ADBED075A9BED067A65EEC46A52
:10599000DBED044AE4EE077A029C27EE647AE4EE3B
:1059A000856ADBED014A9BED005AA5EE867A9BEDF8
:1059B000026A67EEA47AE5EE267AE6EE077A67EEEB
:1059C000837AF4EEE37AF1EE10FA40F2C887B7EE8C
:1059D000007AF4EEC77AF1EE10FAC0F2A4875FED18
:1059E0005DCA1CEE900A3CEE0CCA01F074FAB0EEEF
:1059F0006BBA5FED617A07EE100A7CEEA77AA7EE2C
:105A00000CBA17EE900A01F066FAB0EE6B7A06EE69
:105A1000900AF0EE087AA6EE8C7AF0EE4B6ADBEE96
:105A2000A76A76EEC77AF0EEE77AB0EECBBAB0EEC0
:105A3000C77AB2EE0E6AC7FECB6AC7FE8B7AC6FE85
:105A4000C76A87FE277A66EE867AB4EEE77AF1EEC9
:105A500010FA07DD0023009A89F8DC30C9F8A0208D
:105A6000FEF725BF002310AA5C4840F202214593AF
:105A7000AC4246934793489349934A934B937D9303
:105A8000809382934FF0010310609180937100F036
:105A90009F80AAEB040A9AFBF5F305FB13AABAF15F
:105AA000000F0FFA8AF102DAAA440FFA8AF1DFED49
:105AB0004C7A00208DED048AF0EE672ACDED027A53
:105AC000B0EE672ACDED017AF0EE671AB0EE671AF4
:105AD000F0EE670AB0EE670AB0EE67BAF0EE67BAAA
