:020000040800F2
:1000000080A20420D123010895220108972201082B
:10001000992201089B2201089D220108000000008E
:10002000000000000000000000000000AD7E00089D
:100030009F22010800000000517E00085976000848
:100040001B2401081F240108232401082724010878
:100050002B2401082F240108332401083724010828
:100060003B2401083F2401084324010847240108D8
:100070004B2401084F240108532401085724010888
:100080005B2401085F240108632401086724010838
:10009000A12201086B2401086F24010873240108C0
:1000A000772401087B2401087F24010883240108A8
:1000B000872401088B2401088F2401089324010858
:1000C000972401089B2401089F240108A324010808
:1000D000A7240108AB240108AF240108B3240108B8
:1000E000B7240108BB240108BF240108C324010868
:1000F000C7240108A7220108CB240108CF24010846
:10010000D3240108D7240108DB240108DF240108D7
:10011000E3240108E7240108EB240108EF24010887
:10012000F3240108F7240108FB240108FF24010837
:1001300003250108AD220108072501080B25010848
:100140000F2501081325010817250108B32201080E
:100150001B2501081F250108232501082725010863
:100160002B2501082F250108332501083725010813
:100170003B2501083F250108432501080000000038
:10018000472501084B2501084F2501085325010883
:10019000572501085B2501085F2501086325010833
:1001A000672501086B2501086F25010873250108E3
:1001B000772501087B2501087F2501088325010893
:1001C000872501088B250108000000008F25010804
:1001D00093250108972501089B2501089F25010803
:1001E000A3250108A7250108AB250108AF250108B3
:1001F000B3250108B725010800F5E07002689142B7
:1002000003D343681A44914202D380680028F5D191
:100210007047DFF86C17086890B94FF48050486059
:100220004FF480324FF0FF30C86008610420DFF8DF
:1002300054378A604861C3F8BC01DFF84C07086096
:100240000120704701F1080313F0070F0EBF0023D0
:10025000C3F1080303F007031944D21A8161C26095
:1002600042F001034B60091D4FF0280C41F802C019
:10027000DFF80C271369C36170472DE9FC4B074673
:1002800001F1080010F0070F0FBF8946C0F1080008
:1002900000F0070001EB000902F1080111F0070F5F
:1002A00006D002F10800C0F1080000F00700024487
:1002B0001546A5EB090009EB0306A0EB030B43F081
:1002C0000303C9F80430AE4228BF01F005FA2879CB
:1002D000C10758BF01F000FABBF1100F38BF01F0A1
:1002E000FBF9B869854208D1F9688B44C7F80CB0AE
:1002F000BE614BF00100706051E1786985420AD11E
:10030000B9688B44C7F808B07E614BF0010070609B
:1003100046F80BB043E1686800F00301012940F0A2
:10032000AC80C008C0000190C0081F2839D8AC6854
:10033000D5F80C800090454508BF01F0CDF9A542E5
:1003400008BF01F0C9F968680099C008C000B0EBA7
:10035000C10F18BF01F0C0F9009907F1280000EBA8
:10036000C100844206D039698C42C0F08180E268C5
:10037000AA427DD1A04506D1009839680123834067
:100380009943396076E0804506D0396988456FD356
:10039000D8F80800A8426BD1C4F80C80C8F808400F
:1003A00068E0EC68D5F81880AC420CD0A8683969D0
:1003B000884223D3C268AA4204BFA168A9421DD1C2
:1003C000C460A0601CE005F114010C6834B905F1AB
:1003D00010010C68A4B101E011460C6804F114028C
:1003E0001068002802BF04F1100210680028F3D141
:1003F0003869814202D300220A6001E001F06CF901
:10040000B8F1000F36D0E96907F5987000EB81006C
:100410000268954208D10460A4B9E86979680122AC
:1004200082409143796025E03869804508D3D8F847
:100430001010A94214BFC8F81440C8F8104001E0D9
:1004400001F04AF9B4B139698C4211D3C4F818806B
:10045000286928B1884226BF2061846101F03CF9F7
:10046000686938B13969884202D36061846101E00A
:1004700001F032F901996D188B4469684908490007
:1004800069604BF0010070604FEADB0446F80BB086
:100490001F2C23D807F1280000EBC4084546BBF108
:1004A000100F38BF01F018F9386820FA04F1CA07B4
:1004B00005D4012101FA04F404433C6007E0D8F8B4
:1004C0000800396988422CBF054601F005F9C8F8D3
:1004D0000860EE60B560C6F80C8060E05FEA1B2043
:1004E00008BF002123D0B0F5803F28BF1F211ED2B6
:1004F000A0F58072120C02F008029040A0F5805125
:10050000090C01F004018840A0F580431B0CC2F1E6
:100510000E0203F00203521AD21A984002EBD032B4
:10052000D01D2BFA00F101F0010101EB4201F16154
:10053000002307F59872736102EB810033617A68DA
:1005400022FA01F3DC0707D4012303FA01F1114376
:1005500079600660B0611DE002681F291DBF49086F
:10056000C1F119010BFA01F1594600E00246506849
:10057000C008C000584516D002F11003C80F03EBA5
:100580008003490018680028F0D13869834204D3F9
:100590001E60B261F660B66001E001F09DF809F1FD
:1005A0000800BDE8F68B396990688A4228BF884206
:1005B000F3D3C6609660B060F2600020B061EEE7F1
:1005C0002DE9FE4F04468B46A5692E469046994676
:1005D0003146FFF711FE0268416802EB010AAAF1F9
:1005E000270111F007000EBF0021C1F1080101F041
:1005F00007010AEB0100A0F12F0706F110018F425D
:1006000038BF374607F11802002101920091A8F186
:10061000280259462046FFF715FE07F1080010F0A2
:10062000070F18BF01F058F81B20786007F1080188
:1006300004F5E07090E80C5081E80C50C0F800B070
:10064000C0F80480C0F80C908160072201980099DE
:1006500000E0001D491C00F1080353454260F8D337
:100660000129D8BF01F038F8B74200F09580BF1BD0
:10067000301D321DC15949084900D15147F00100D0
:1006800070604FEAD70BF751BBF11F0F21D804EB75
:10069000CB0000F12805A846102F38BF01F01CF848
:1006A000206820FA0BF1CA0705D4012101FA0BF1E9
:1006B0000843206006E0A868216988422CBF804674
:1006C00001F00AF8AE60C8F80C60C6F80880F56062
:1006D0006FE0380A08BF002123D0B0F5803F28BF63
:1006E0001F211ED2A0F58072120C02F00802904069
:1006F000A0F58051090C01F004018840A0F5804369
:100700001B0CC2F10E0203F00203521AD21A9840D7
:1007100002EBD032D01D27FA00F101F0010101EB0C
:10072000420104EB8102002302F59870F1617361CC
:100730003361626822FA01F3DB0707D4012303FA6D
:1007400001F1114361600660B0611DE002681F297C
:100750001DBF4908C1F1190107FA01F1394600E04E
:1007600002465068C008C000B84216D002F110031B
:10077000C80F03EB8003490018680028F0D12069F6
:10078000834204D31E60B261F660B56011E003B02D
:10079000BDE8F04F00F0A0BF0BE0216990688A42ED
:1007A00028BF8842F3D3C6609560B060F260002035
:1007B000B06103B0BDE8F08F2DE9F041704F054600
:1007C0003868884608B9FFF724FDB96801EB0800CE
:1007D0002F30491E20EA010188457DD205F5D876E3
:1007E000B06828B1326889188A4275D2884273D3BA
:1007F00000F0B2FF01001CBF0C6811F1010F6BD0BB
:100800003068201805F5D87230605368984238BFB8
:1008100018467060A86960BB286908B1814200D29F
:100820002961316174610020F0614FF0FF303A6856
:100830006A62286205F128020020D260926002F10B
:10084000080757611761801C10322028F5D34D48E6
:10085000854208BFA4F1280228D055F8040CC0082E
:1008600005EBC002A2F108000A19121A283A014643
:100870001CE005F5E070024600E092687AB3136868
:1008800057681F44B942F8D1137B1F0727D4AB69BF
:100890001768BB4223D3D2F804C06744BB421ED2C0
:1008A000A444C2F804C0E868A96922182846FFF7E2
:1008B000C9FC1FE08068C0B103689342FAD1027B93
:1008C000130712D4026801604368E4184460434689
:1008D0002846BDE8F041D0E40020BDE8F0812A6957
:1008E000914238BF29610A19E5E7002322462846CC
:1008F000FFF766FEE8688045EED2A0EB0800A96924
:10090000E86001EB0802AA6140F00100506048F085
:100910000300486001F10800BDE8F08130B4184BD5
:100920001A6882B94FF480525A604FF480344FF005
:10093000FF32DA601A610422124D9C605A61C5F8D8
:10094000BC21114A1A6011F1400F17D28269AAB175
:10095000C368283199420BD200F5E0710C68A242BD
:1009600003D34D682C44A24202D389680029F5D1F3
:10097000C16999423CBF4FF0FF32C26100F0A8BE8E
:10098000009E04202C9104206859883C2DE9F84FE2
:1009900000258946090AC9F1000B08BF002323D0AE
:1009A000B1F5803F28BF1F231ED2A1F58072120C23
:1009B00002F008029140A1F580531B0C03F00403E0
:1009C0009940A1F58044240CC2F10E0204F0020407
:1009D000D21A121BA14002EBD132D11D29FA01F328
:1009E00003F0010303EB4203074607F5987858F834
:1009F000230030B31F2B0FBF4C465C08C4F1190411
:100A000009FA04F4AC46594600E064004268D20892
:100A1000D200A2EB09028A4203D21100054600F07F
:100A20006981426910304FEAD47B50F82B00002ACC
:100A30001CBF824294460028E7D18B466046B0BB7B
:100A4000BDBB012202FA03F35B00584279680343FD
:100A50000B4000F04E81584203405B1E180B00F023
:100A60001000C340590901F00801CB409A0802F078
:100A70000402D3405C0804F002040818E340101894
:100A8000C3F3400620183044F3401B1858F82300E5
:100A90000DE008464168C908C900A1EB09015945A4
:100AA0003CBF8B46054601690029F2D14069002808
:100AB000F0D1002D00F01D81B868A0EB090083453E
:100AC00080F0178139698D42C0F011816868C008D3
:100AD000C00009EB0B01884218BF00F0FDFD05EBDB
:100AE0000906B54280F00381EC68D5F818A0AC4245
:100AF0000CD0A8683969884223D3C268AA4204BFCF
:100B0000A168A9421DD1C460A0601CE005F11401D8
:100B10000C6834B905F110010C68A4B101E011466C
:100B20000C6804F114021068002802BF04F11002DE
:100B300010680028F3D13869814202D300220A608C
:100B400001E000F0C9FDBAF1000F36D0E86908EB0A
:100B5000800001688D4209D10460200014D1E86949
:100B60007968012282409143796026E038698245A4
:100B700008D3DAF81010A94214BFCAF81440CAF812
:100B8000104001E000F0A8FDBCB13869844212D3E6
:100B9000C4F818A0286930B13969884226BF20619D
:100BA000846100F099FD686938B13969884202D3DF
:100BB0006061846101E000F08FFDBBF1100F0CD289
:100BC000D94449F00300291D6860281D51F8092007
:100BD00042F0010240F8092088E049F00300686013
:100BE0004BF0010070604FEADB0046F80BB01F28A5
:100BF0001DD807EBC00101F12804396821FA00F281
:100C0000D307A34605D4012202FA00F00843386056
:100C100006E0A068396988422CBF834600F05CFD7D
:100C2000A660CBF80C60C6F808B0F4605EE05FEA3E
:100C30001B2008BF002123D0B0F5803F28BF1F2113
:100C40001ED2A0F58072120C02F008029040A0F5AE
:100C50008051090C01F004018840A0F580431B0C71
:100C6000C2F10E0203F00203521AD21A984002EBAC
:100C7000D032D01D2BFA00F101F0010101EB42014D
:100C8000F16100227261326108EB81007A6822FA18
:100C900001F4E30707D4012404FA01F11143796058
:100CA0000660B0611DE002681F291DBF4908C1F13F
:100CB00019010BFA01F1594600E002465068C008DC
:100CC000C000584518D002F11003C80F03EB800391
:100CD000490018680028F0D13869834204D31E60A7
:100CE000B261F660B66001E000F0F6FC14E100F0DD
:100CF000F3FC0EE18B46A2E6396990688A4228BF70
:100D00008842F1D3C6609660B060F2600020B061A6
:100D1000ECE72DE9F84F06468846716848420140E5
:100D2000491E080B00F01000C1404A0902F00802F9
:100D3000D1408B0803F00403D9404D0805F00205AB
:100D40001018E9401818C1F34004281806F5987ADD
:100D50002044E14009185AF821104868C008C00032
:100D60000D46A0EB080909E001464868C008C0002C
:100D7000A0EB080048453CBF81460D4608690028A5
:100D8000F2D149690029F0D130698542C0F0BF80B5
:100D90006968C90808EB090BC900594518BF00F07C
:100DA0009BFC05EB08008542009080F0B080EF6866
:100DB000AC69AF420CD0A8683169884223D3C268BD
:100DC000AA4204BFB968A9421DD1C760B8601CE03F
:100DD00005F114010F6837B905F110010F68A7B1CB
:100DE00001E011460F6807F114021068002802BFE5
:100DF00007F1100210680028F3D13069814202D354
:100E000000220A6001E000F067FC002C31D0E869A4
:100E10000AEB800001688D4208D107608FB9E8694C
:100E20007168012282409143716022E030698442FE
:100E300005D32169A94214BF6761276101E000F071
:100E40004BFCB7B13069874211D3BC61286930B11E
:100E50003169884226BF3861876100F03DFC6869CE
:100E600038B13169884202D37861876101E000F0CE
:100E700033FCB9F1100F0BD24BF00300291D686051
:100E8000281D51F80B2042F0010240F80B203DE0F4
:100E900048F003012A1D696049F0010042F808008A
:100EA000009941F80990D6F808804FEAD80BBBF1B9
:100EB000200F28BF00F010FCB8F1000F22D006EB85
:100EC000CB00776900F12804A246B8F1100F38BFB3
:100ED00000F002FC306820FA0BF1CA0705D40121AA
:100EE00001FA0BF10843306006E0A06831698842DE
:100EF0002CBF824600F0F0FBA760CAF80C70C7F860
:100F000008A0FC60C6F808900098706104E000F04A
:100F1000E3FB0020BDE8F28F05F10800BDE8F28F89
:100F20002DE9FE4F0546AFF30080F52DDFF89C67F5
:100F300080F004810B2D31BF10250B35ED08ED003D
:100F40003068EC08E04010F0030F46D0C04300F0DA
:100F50000100041906F1280000EBC408E700D8F8E6
:100F600008506868C008C000B84218BF00F0B4FB61
:100F7000D5F80890454508BF00F0AEFB4D4508BFC9
:100F800000F0AAFB6868C008C000B84218BF00F0B3
:100F9000A3FBC84507D13068012101FA04F420EA17
:100FA000040434600DE03069814508D3D9F80C1091
:100FB000A94204D1C8F80890C9F80C8001E000F0FB
:100FC0008BFB47F00300291D6860281DCA5942F0B9
:100FD0000102C25105F10804F8E0B168A94280F0AD
:100FE000BE80002800F0A1804FF0010808FA04F14B
:100FF000490000FA04F4484201430C4060420440B6
:10100000641E200B00F01000C440610901F00801CB
:10101000CC40A20802F00402D440630803F00203AB
:101020000818DC401018C4F3400718183818FC40A2
:10103000241806F1280000EBC40AE700DAF808904B
:10104000D9F80400C008C000B84218BF00F044FB43
:10105000D9F808B0D14508BF00F03EFBD94508BF1C
:1010600000F03AFBD9F80400C008C000B84218BF2D
:1010700000F032FBDA4506D1306808FA04F420EAC1
:10108000040434600DE031698B4508D3DBF80C00B3
:10109000484504D1CAF808B0CBF80CA001E000F034
:1010A0001BFB7F1B45F0030009F10402C9F8040093
:1010B00047F00101515109EB05020192D751B46883
:1010C0004FEAD40ABAF1200F28BF00F005FB34B371
:1010D000CDF800A006F12800756900EBCA0AD346D6
:1010E000102C38BF00F0F8FA3168009821FA00F2AD
:1010F000D30704D408FA00F00843306007E0DAF8B8
:101100000800316988422CBF834600F0E5FACAF82E
:101110000850CBF80C50C5F808B0C5F80CA0B76063
:1011200009F108040198706150E07068C0B3294665
:101130003046FFF7EEFD040011D047E015F1400FF7
:1011400028BF4FF0FF350AD20B35ED087068ED006F
:1011500028B129463046FFF719FC040036D1B068A3
:10116000A8421DD3411B726910290AD3501970611E
:10117000B16041F001034360415045F00305556003
:101180000BE00021B1607161131D40F0030151605B
:10119000111D1C5844F001040C5002F1080415E024
:1011A000F06885420DD2401BB169F0604A19B26106
:1011B00040F00100506045F003054D6001F1080466
:1011C00004E029463046FFF7F7FA0446AFF3008003
:1011D0002046FFF7EEBA002800D170472DE9F0470E
:1011E000A0F10805AFF30080DFF8E06431698D42BB
:1011F000C0F05982686800F00302012A00F05382AF
:10120000C2084FEAC209C20705EB090839D42C68A5
:1012100010F0030F00F04982604205448D42A14462
:10122000C0F041827069854200F0C680E408202C3D
:101230005ED2D5F80CA0AF68554508BF00F04CFA57
:10124000BD4208BF00F048FA6868C008C000B0EBB3
:10125000C40F18BF00F040FA06F1280000EBC400EC
:10126000874205D031698F423FD3FA68AA423CD108
:10127000BA452CD13068012101FA04F420EA0404B3
:101280003460454580F00F82D8F80440E00740F113
:101290000A82A10700F16881B069804540F09F8013
:1012A000F168B5618944C6F80C9049F001006860A6
:1012B00071698D4202D100207061B060F0694845CB
:1012C00080F0F38100213046FFF728FBEDE18245F5
:1012D00006D03069824508D3DAF80810A94204D153
:1012E000C7F80CA0CAF80870CBE700F0F5F9C8E71A
:1012F000EC68AF69AC420BD0A868884222D3C168C1
:10130000A94204BFA268AA421CD1C460A0601BE02D
:1013100005F11402146834B905F1100214689CB187
:1013200001E01A46146804F114031868002802BF8B
:1013300004F1100318680028F3D18A4202D3002177
:10134000116001E000F0C8F9002F9AD0E96906F5B4
:10135000987000EB81000268954209D1046020007A
:1013600011D1E8697168012282409143716088E778
:101370003069874205D33969A94214BF7C613C6159
:1013800001E000F0A9F9002C3FF47BAF31698C42F9
:10139000ABD3A761286928B1884226BF2061846148
:1013A00000F09AF9686900283FF46BAF3169884210
:1013B0009BD36061846164E798F8040000F0030047
:1013C00003287FF45EAFC6F8089049F00101D8F811
:1013D000040040084000C8F8040069600AE0706931
:1013E00080450AD1B16875618944C6F8089049F012
:1013F0000100686045F8099057E1E408E400A14461
:10140000E408202C3AD2D8F80CA0D8F80870D045BF
:1014100008BF00F061F9B84508BF00F05DF9D8F8E1
:101420000400C008C000B0EBC40F18BF00F054F9AE
:1014300006F1280000EBC400874207D031698F42D3
:10144000C0F08580FA68424540F08180BA4507D1F6
:101450003068012101FA04F420EA0404346078E0E1
:10146000824506D03069824571D3DAF808104145CB
:101470006DD1C7F80CA0CAF808706AE0D8F80C4023
:10148000D8F8187044450DD0D8F808003169884262
:1014900023D3C268424504BFA16841451DD1C46041
:1014A000A0601CE008F114010C6834B908F11001C7
:1014B0000C68A4B101E011460C6804F11402106834
:1014C000002802BF04F1100210680028F3D130692F
:1014D000814202D300220A6001E000F0FDF8002FF3
:1014E00037D0D8F81C1006F5987000EB8100026820
:1014F00090450AD10460200012D1D8F81C00716810
:10150000012282409143716023E03069874205D314
:101510003969414514BF7C613C6101E000F0DCF8B1
:10152000BCB131698C4212D3A761D8F8100028B140
:10153000884226BF2061846100F0CEF8D8F81400FC
:1015400038B13169884202D36061846101E000F002
:10155000C3F849F00100686045F8099071698D424F
:101560000BD1C6F80890A0E064086400C8F80440F5
:1015700049F00100686045F809904FEAD907202F2B
:1015800022D206F1280000EBC704A046B9F1100FE3
:1015900038BF00F0A1F8306820FA07F1CA0705D477
:1015A000012101FA07F70743376006E0A0683169B7
:1015B00088422CBF804600F08FF8A560C8F80C5018
:1015C000C5F80880EC6070E05FEA192008BF0021D0
:1015D00023D0B0F5803F28BF1F211ED2A0F5807216
:1015E000120C02F008029040A0F58051090C01F0A5
:1015F00004018840A0F580431B0CC2F10E0203F0E9
:101600000203521AD21A984002EBD032D01D29FAA6
:1016100000F101F0010101EB420106F5987200238F
:1016200002EB8100E9616B612B61726822FA01F3C0
:10163000DC0707D4012303FA01F11143716005604F
:10164000A8611DE002681F291DBF4908C1F11901E9
:1016500009FA01F1494600E002465068C008C0009E
:10166000484526D002F11003C80F03EB8003490060
:1016700018680028F0D13069834204D31D60AA6144
:10168000ED60AD6001E000F027F8306A401E306286
:101690000BD1D6F8C80100E080680028FCD14FF0DB
:1016A000FF30306201E000F017F8AFF30080BDE8D2
:1016B000F087316990688A4228BF8842E3D3C560C9
:1016C0009560A860EA600020A861DEE72C91042004
:1016D00030BC002070470000012000F053B8F0B487
:1016E0000246106895681318506803EB5004C00751
:1016F0001DD54D441BE013F8017B05F8017B491E05
:10170000F9D1A0B1B60813F8011B06F00306032EA9
:1017100008BF13F8016B01EB06214942801C2944E4
:1017200005D011F8016B05F8016B401EF9D1A342F9
:101730000ED013F8016B16F0030104BF13F8011B60
:10174000C91C30090F28DAD113F8010B0F30D6E786
:10175000F0BC02F10C0070470749086808B100208E
:1017600070470648C008C00008600549C908C9009C
:10177000091A0160704700BF789E042087A20420E8
:1017800080A4042080B5AFF30080024A1100182025
:10179000ABBEFBE72600020030B5DFF84C4B81B052
:1017A0002079E0B901F0A6FBA06018B94FF0FF3036
:1017B00001B030BD417ADFF8345B442241F02001B2
:1017C0004172294601F0C4FAA0684322294601F07B
:1017D00044FBA0680022DFF8181B01F071FB2079A0
:1017E00001B0401C2071002030BD10B5446A617901
:1017F000082904D0082200236271A37123810022EA
:1018000004F11C0101F0FAFDA079FF281CBF401C67
:10181000A0710120208110BD2DE9F043040083B0A8
:1018200008BF6FF00F0000F0DE80656A25B96FF029
:10183000050003B0BDE8F0836879012804D00121D8
:1018400000236971AB712B814FF420724FF49A71B0
:10185000362001F0A5FE5FEA000800F0A580697956
:10186000DFF8847A032906D1A87910B902F0CAF901
:10187000F860F8682860D8F804604FF49A71304630
:1018800002F012FA01203070707094F83020B270BB
:10189000286802F021FA70606879052812BF0428D0
:1018A0006068F06094F82A1035220223317794F8AA
:1018B0002B00707794F82C10B17794F82D00F07706
:1018C00094F82E1086F8201094F82F00DFF8241AD0
:1018D00086F8F02086F821000120C6F8EC100321DC
:1018E00086F8F100392286F8F210D8F80460032057
:1018F00006F1F00100F08CFE228D06F1F00100F0FF
:101900008EFE0423322206F1F00100F081FE8146B2
:10191000E86902F0E1F9024606F1F001484600F0FC
:1019200086FE0423362206F1F00100F071FE8146A6
:10193000A86902F0D1F9024606F1F001484600F02C
:1019400076FE0423372206F1F00100F061FE3978BB
:1019500006F1F00206F1F00C1154401C79781FFAE0
:1019600080FE401C83B20CF80E10B978401C1FFAA0
:1019700080FED154F978401C42460CF80E1006F156
:10198000F00180B201F030F8DFF8600900940190B6
:10199000B8684323DFF8142B414601F070F9044680
:1019A000404601F045FF01E04FF0FF34A879FF28E1
:1019B0001CBF401CA871A879062811DA012202FA7E
:1019C00000F04FF47A73DFF83C1C10FB03F080B298
:1019D00000F2F31080FB0181481100EBD07000E0B1
:1019E00078202881204603B0BDE8F083DFF8180C8A
:1019F00030B5046881B0002C4BD0616A00291CBF4F
:101A00004879002842D0888A60B14A8A521C4A82AA
:101A100092B2824206D1204600F04AFD204600F0F4
:101A2000CCF833E0088AC8B1421E0A8216D1656A32
:101A30006879012818BF0A2803D0052818BF042890
:101A400024D1204600F091FBA98A688A081A00EB8D
:101A5000D0714910012919DB298217E0C889A8B182
:101A6000421ECA8112D1656A687901281CBF0A2802
:101A700005280BD1204600F0B8FAA989688A081A0F
:101A800000EBD07149100129A8BFE9812468002C1E
:101A9000B3D101B030BD000010B5DFF86C0B0468A5
:101AA000002C3ED0606A002838D00189022902DB70
:101AB000491E018132E0012930D100220281606A91
:101AC00041790C2918BF062924D001290CD180792D
:101AD0000528204602DCFFF79FFE1FE000F0E8FC2F
:101AE000204600F06AF819E008290AD18079022816
:101AF000204603DAFFF779FE10E000BF00F002FA9B
:101B00000CE003290AD180790228204604DA00F08B
:101B1000F3FB03E04FEA040000F039F92468002CDD
:101B2000C0D110BD30B581B0456A0020DFF8DC4A75
:101B30002862686294F82B0008B1E268AA6294F8FF
:101B40002C00002812BF2069A86A4008E86294F8B7
:101B50002D00002811BF6069A86AC0EBC000C00852
:101B600028630869E86194F82E1029B1A06902F091
:101B7000B3F82862012000E00020E87194F82F00FB
:101B800018B1E06902F0A8F8686294F8300090B1EA
:101B9000206A02F0A1F800906946002002F0AFF838
:101BA00094F8310038B1606A02F096F80090694606
:101BB000012002F0A4F801B030BD70B5050003D0DB
:101BC00095F83100C10702D46FF00F0070BD288D69
:101BD0006C6AB0F5107F33DB34B9342002F066FB59
:101BE00004002DD06C620DE0207958B1DFF8F86662
:101BF0003179481E3071C0B220B9B06801F064F983
:101C00000020B0603421204602F0CCFBFFF7C4FD79
:101C1000B0B90120207195F831104A0709D46079D4
:101C2000022804D0022100226171A27122810020C9
:101C300070BD284600F0ABF820B1284600F038FC13
:101C40004FF0FF3070BD0000416A81B14A790A2A25
:101C50000AD8DFE802F00C09090606060909090995
:101C6000060000238B7147E300228A718FE07047E2
:101C70002DE9F043040083B000F08680666A3000EE
:101C800000F082807279082A02BF0968F0698142F7
:101C90007AD10C2A04D00C2000217071B1713181ED
:101CA0004FF420724FF49A71362001F079FC5FEA0C
:101CB000000862D0B079DFF8307610B901F0A2FFE9
:101CC000F860F8684FF49A713060D8F804502846EC
:101CD00001F0EAFF01202870687094F83020AA70A3
:101CE000306801F0F9FF68606068E86094F82A10D5
:101CF00035220423297794F82B00687794F82C1068
:101D0000A97794F82D00E87794F82E1085F8201024
:101D100094F82F00DFF8DC1585F8F02085F8210015
:101D20000120C5F8EC10042185F8F100322285F875
:101D3000F210D8F80450032005F1F00100F068FC1F
:101D40008146F06901F0C8FF024605F1F0014846FE
:101D500000F06DFC424605F1F00100F045FEDFF8B1
:101D60008C0500940190B8684323DFF84027414672
:101D700000F085FF404601F05BFDB079FF281CBFF5
:101D8000401CB0711420308103B0BDE8F0832DE910
:101D9000F04182B00446656A002069790629E8614D
:101DA00004D0062000226871AA712A81002C18BF75
:101DB000002D00F083804FF420724FF49A7136208A
:101DC00001F0EEFB5FEA000878D0A879DFF818751B
:101DD00010B901F017FFF860F8684FF49A712860A5
:101DE000D8F80460304601F05FFF01203070707059
:101DF00094F83020B270286801F06EFF706094F89B
:101E00002A0035220223307794F82B10717794F84A
:101E10002C00B07794F82D10F17794F82E0086F806
:101E2000200094F82F10DFF8CC0486F8F02086F814
:101E300021100121C6F8EC00392286F8F1100320A8
:101E400086F8F210D8F8046006F1F00100F0E0FB2B
:101E5000228D06F1F00100F0E2FB0423372206F1A7
:101E6000F00100F0D5FB397806F1F00206F1F00C34
:101E70001154401C79781FFA80FE401C83B20CF884
:101E80000E10B978401C1FFA80FED154F978401C1E
:101E900042460CF80E1006F1F00180B200F0A4FDED
:101EA000DFF8480400940190B8684323DFF8FC256C
:101EB000414600F0E4FE404601F0BAFCA879FF2854
:101EC0001CBF401CA871A879062815DA012202FA65
:101ED00000F04FF47A73DFF82C1710FB03F080B298
:101EE00000F2F31080FB0141481100EBD070288113
:101EF000002002B0BDE8F08178202881002002B0E7
:101F0000BDE8F081002800D1704730B583B0416A48
:101F1000002968D000224FF6FF734A828A6A12F1C4
:101F2000010F0DD01E32DFF8A45AA2FB055462093E
:101F30009A4288BF1A468A828A8A0AB901248C8208
:101F4000CA6A12F1010F0ED01E32DFF8805AA2FBCE
:101F5000055462099A4288BF1A4694B204B9012214
:101F60004A814A89CA810A6B12F1010F0ED01E32D2
:101F7000DFF8585AA2FB055462099A4288BF1A46F4
:101F800094B204B901228A818A890A828A894C8999
:101F9000944202D30AB100254D81CA790AB10B6A75
:101FA00009E00A7F802AB4BFFF23C02A03DB6FF059
:101FB0007F44009400E000934B6A01931A0005D11E
:101FC000CB69009A134043F0807301934B790A2B3D
:101FD00004D00A2200244A718C710C8101AB6A463C
:101FE0001C3102F07BFA03B030BD2DE9F04182B024
:101FF0000446656A6879052804D0052100226971C4
:10200000AA712A81002C18BF002D00F08B804FF49C
:1020100020724FF49A71362001F0C2FA5FEA00088C
:1020200000F080806979B04F032906D1A87910B9F2
:1020300001F0E8FDF860F8682860D8F804604FF413
:102040009A71304601F030FE01203070707094F8C3
:102050003020B270286801F03FFE70606879052872
:1020600012BF04286068F06094F82A103522022319
:10207000317794F82B00707794F82C10B17794F89E
:102080002D00F07794F82E1086F8201094F82F0089
:10209000984986F8F02086F821000120C6F8EC1057
:1020A000032186F8F100392286F8F210D8F804608E
:1020B000032006F1F00100F0ABFA228D06F1F001E9
:1020C00000F0ADFA0423372206F1F00100F0A0FA87
:1020D000397806F1F00206F1F00C1154401C7978C1
:1020E0001FFA80FE401C83B20CF80E10B978401C19
:1020F0001FFA80FED154F978401C42460CF80E10AD
:1021000006F1F00180B200F06FFCB8680094432340
:1021100005F11802414600F08EFD0446404601F0EC
:1021200087FB01E04FF0FF34A879FF281CBF401C5B
:10213000A871A8790A2812DA4FF4FA62DFF8C434D9
:1021400010FB02F080B200F2F31080FB0383581101
:1021500000EBD0702881204602B0BDE8F081282035
:102160002881204602B0BDE8F0812DE9F04182B01F
:102170000446656A6879042804D004210022697144
:10218000AA712A81002C18BF002D00F08A804FF41C
:1021900020724FF49A71362001F002FA5FEA0008CB
:1021A00000F07F806979504F032906D1A87910B9D2
:1021B00001F028FDF860F8682860D8F804604FF452
:1021C0009A71304601F070FD01203070707094F803
:1021D0003020B270286801F07FFD706068790528B2
:1021E00012BF04286068F06094F82A103522022398
:1021F000317794F82B00707794F82C10B17794F81D
:102200002D00F07794F82E1086F8201094F82F0007
:10221000384986F8F02086F821000120C6F8EC1035
:10222000032186F8F100392286F8F210D8F804600C
:10223000032006F1F00100F0EBF9228D06F1F00128
:1022400000F0EDF90423372206F1F00100F0E0F987
:10225000397806F1F00206F1F00C1154401C79783F
:102260001FFA80FE401C83B20CF80E10B978401C97
:102270001FFA80FED154F978401C42460CF80E102B
:1022800006F1F00180B200F0AFFBB8680094432380
:10229000864A414600F0CFFC0446404601F0C8FAA9
:1022A00001E04FF0FF34A879FF281CBF401CA87143
:1022B000A8790A2811DA4FF47A72D24B10FB02F097
:1022C00080B200F2F31080FB0383581100EBD07052
:1022D0002881204602B0BDE8F081142028812046E4
:1022E00002B0BDE8F081000000000020FC230108DE
:1022F000B1280008638253632DE9F04381B004469E
:10230000656A6879032804D0032100226971AA71E3
:102310002A81002C18BF002D00F0A6804FF42072F7
:102320004FF49A71362001F03BF95FEA000800F0A3
:102330009B806979DFF89876032906D1A87910B9CE
:1023400001F060FCF860F8682860D8F804604FF489
:102350009A71304601F0A8FC01203070707094F83A
:102360003020B270286801F0B7FC706068790528E9
:1023700012BF04286068F06094F82A103522022306
:10238000317794F82B00707794F82C10B17794F88B
:102390002D00F07794F82E1086F8201094F82F0076
:1023A000DFF8301686F8F02086F821000120C6F804
:1023B000EC10032186F8F100392286F8F210D8F8E3
:1023C0000460032006F1F00100F022F9022106F179
:1023D000F0021154401C4FF0400C1FFA80F906F136
:1023E000F00E401C0EF809C00423322206F1F00161
:1023F00080B200F00DF98146E86901F06DFC0246FB
:1024000006F1F001484600F012F90423372206F1E4
:10241000F00100F0FDF8397806F1F00206F1F00C59
:102420001154401C79781FFA80FE401C83B20CF8CE
:102430000E10B978401C1FFA80FED154F978401C68
:1024400042460CF80E1006F1F00180B200F0CCFA12
:10245000B86800944323154A414600F0ECFB04465B
:10246000404601F0E5F901E04FF0FF34A879FF287C
:102470001CBF401CA871A8790A2811DA4FF47A729F
:10248000604B10FB02F080B200F2F31080FB03837C
:10249000581100EBD0702881204601B0BDE8F083D0
:1024A00014202881204601B0BDE8F08300240108F3
:1024B0002DE9F04383B005466C6A002C1CBF60799F
:1024C000002800F09B80A16900200191A061E061DB
:1024D000206260622063E062A062A082608220824B
:1024E000E081284600F098FA002818BF002D68D037
:1024F0004FF420724FF49A71362001F051F85FEAE0
:1025000000085ED0A079DFF8C87410B901F07AFB3A
:10251000F860F8684FF49A712060D8F8046030468B
:1025200001F0C2FB01203070707095F83020B2705D
:10253000206801F0D1FB70606868F06095F82A109F
:1025400035220423317795F82B00707795F82C10FD
:10255000B17795F82D00F07795F82E1086F82010B9
:1025600095F82F00DFF86C1486F8F02086F821002B
:102570000120C6F8EC10072186F8F100362286F813
:10258000F210D8F80460032006F1F00100F040F8E2
:102590008146019801F0A0FB024606F1F001484691
:1025A00000F045F8424606F1F00100F01DFAB86867
:1025B0000095432301AA414600F03DFB404601F04F
:1025C00037F9DFF8141428460B460A4601F086FF57
:1025D000607918B100216171A1712181207968B100
:1025E000DFF8EC532979481E2871C0B220B9A868D9
:1025F00000F06AFC0020A8600021217103B0BDE852
:10260000F0830000D34D62102C9E0420649D0420B2
:102610000A54401C82B2401C8B5480B27047130A8B
:102620000B54401C83B2401CCA5480B27047E0B5C2
:10263000130E150C0B54401C86B2401C8D55170A06
:102640001FFA80FC401C01F80C701FFA80FE401C31
:1026500001F80E2080B2E0BD2DE9F04F044687B0AE
:102660000A21DFF8780301F09DFE628900252C2AFB
:10267000C0F0F8802289F0230594039503E001223D
:1026800003926C23EC22059C002C00F0EB80608907
:102690008342C0F2EC8024681B1A121A9BB2002CF1
:1026A00000F0E08060898342A1BF1B1A9BB2121A1E
:1026B0002468E9DADBE06068029001998D4280F2DB
:1026C000DD800298405DFF2800F0D88005F1020807
:1026D0001FFA88F1A9424FF0FF36C0F2C380638928
:1026E0006A1C9A4203DA02992944497803E0216876
:1026F00009B14968097802000F465CD0012810D062
:10270000032826D006282AD0332836D0342838D0BB
:1027100035283DD036283FD03A2841D03B2843D0F9
:1027200046E0042940F0998006264819801CB0F53F
:10273000803F80F297804D19AD1C002FADB27CD048
:102740000020A649A64A009001EB060902EB860A82
:102750004EE004270429C0F280800726E5E74A10EE
:1027600001EB92739B10B1EB830076D10829A8BFCF
:102770000827B94271DB0826D7E704296DD1032663
:10278000D3E7012904BF0498F02866D10026CCE7DE
:10279000012962D10126C8E704295ED10226C4E7D7
:1027A00004295AD10426C0E7042956D10526BCE7DE
:1027B00000270028B9D16D1CADB23EE0791007EBBF
:1027C00091729210B7EB820047D101203F1F09F8A8
:1027D000010B0098FFB201F07FFA4AF8040B08F1F0
:1027E000040081B21FFA88F841453BD38046761C2D
:1027F00099F8000008BB042F1FFA88F369462046A9
:10280000B4BFBB464FF0040B5A4601F00CF95845D3
:1028100028D1042FD2DC03D1009801F05DFA03E047
:10282000012F1AD19DF8000000906D48012100F1A0
:1028300028029155009B40F8263060898542FFF6BA
:102840003CAF019A2D1AADB2101A80B285420190A8
:1028500008DA2468002C7FF42EAF6FF0050007B073
:10286000BDE8F08F6FF0010007B0BDE8F08F92B2C5
:1028700066681D460493019202961EE7584A92F834
:10288000281059B11068002382F8283001283FF43D
:10289000F8AE022804D003283FF4F1AE039820B12B
:1028A00000212C2303916C22EDE607B0BDE8F08FE8
:1028B0004C48F0B5466881B015466968746A002CCA
:1028C0001CBF2079002857D06A892C2A54DB08784D
:1028D000022851D15FF0000096F83020904251DA82
:1028E00006284FD232180F1892F82A303A7F9342B6
:1028F00004BF401CC0B2EFD03EE003281CBF042838
:10290000052839D139463046FFF70CF93046FFF734
:10291000F9FA31E006281BD16079032818BF012895
:1029200003D0042818BF052826D1706A41790C29E4
:1029300004D00C2200234271837103812649304662
:102940000B460A4601F0CAFD3046FFF720FA13E0B5
:10295000022804BF607906280ED191F82A00746A13
:1029600050B100222281886801F0B6F9A06138696F
:10297000E0613046FEF750FF284601B0BDE8F04068
:1029800000F056BF486801F0A7F921688842F3D1EA
:1029900021462846FFF760FE0028EDD1104991F846
:1029A00029000028E8D008796F680528B2D160793D
:1029B0000128A2D139463046FFF7B4F896F8310025
:1029C00001073046A3D5FEF710FFD5E78988888830
:1029D0000000002063825363FC2301088C9D0420C7
:1029E000649D0420E89D042010B481B0FF230B54A3
:1029F000401C83B2442B02D310F0030F05D0442BAC
:102A00003EBF002384B20B55F2D3F03081B201B047
:102A1000104610BC00F068BE00281CBF406A0028A9
:102A200007D040790A281CBF0528042801D10120BD
:102A300070470020704730B4002513E050F8042B95
:102A4000D30744BFA9F101039A18091F042942F8CA
:102A5000045BFAD213468C0744BF15809B1CC90740
:102A600048BF1D7050F8041B0029E7D130BC7047E7
:102A700000B581B001F0C6F8C0F30D00A0F58040AC
:102A8000DFF8DC1401B0088000BD00002DE9F0473C
:102A900082B08146B9F80A000C4608286EDBDFF8E0
:102AA000C464D9F804503168706901F0D7FD8246DA
:102AB000288801F00BF98046688801F007F98646FE
:102AC000DFF89CC400230021DCF8040026E0002A83
:102AD0001CBF756915F1010F1FBFA7683A403D4043
:102AE000AA4232D018E000BF5FEA0A020BD0726936
:102AF00012F1010F07D162680D68954203D0076893
:102B0000974200D10146828A424505D14268002A97
:102B10001CBF3569AA4256D00346C068002833D08E
:102B2000428A7245F8D1027A32B1756895F83470EC
:102B30007F1CFFB2BA42EFD15FEA0A020268C6D137
:102B4000002A1CBF7569AA42E6D1027C5707DAD475
:102B50000029C9D1D6E7BAF1000F0FD1307D00F0BE
:102B6000F000E0280AD0B6F90C104846083109B246
:102B700000F05CFE0321484601F0A2FE484602B088
:102B8000BDE8F04700F054BE20460C0003D1406879
:102B900071698842F2D10821484600F028FE0028D9
:102BA000ECD1002CD7D0D4F818A0BAF1000FE5D0A2
:102BB000CDF80080E06906F110034A462146D0476F
:102BC00002B0BDE8F087002B0446E4D0E068D8608E
:102BD000DCF80410E160CCF80440DCE7002818BF02
:102BE000002902D16FF00F007047838A021DF0B5F3
:102BF00006000D4681B014461F4618BF002D00D0B8
:102C00001CB96FF00F0001B0F0BD307A10B101F0C7
:102C1000F8FC02E0204601F0B9FE18B96FF003009D
:102C200001B0F0BD00903B4622462946304600F0F8
:102C300002F801B0F0BD002870B582B018BF0029BD
:102C400004D0002A1CBF069D002D03D16FF00F0099
:102C500002B070BD0468002C1ABF04F0F006E02E2C
:102C60002C1D06D06E68B44218BF6FF0030004D16B
:102C700004460194009500F002F802B070BD2DE901
:102C8000F04F060083B099460CD00D0018BF5FEAE4
:102C9000020B07D0DDF83480B8F1000F1CBF0C9F89
:102CA000002F04D16FF00F0003B0BDE8F08F708AE1
:102CB00038B900223146304600F04AF80028044670
:102CC00042D1288900F1080189B281420DD308213F
:102CD000284600F06BFDA0B14FF42072082122209D
:102CE00000F05EFC5FEA000A04D14FF0FF3003B051
:102CF000BDE8F08F288928B12946504600F014FE1F
:102D000000E0AA46708ADAF8044000F0DFFF208075
:102D1000484600F0DBFF60800020E080BAF8080041
:102D200000F0D4FFA080112002975A460190B17A9A
:102D300050460091F37A414601F037FF0446AA4518
:102D40001CBF504600F074FD204603B0BDE8F08F74
:102D50002DE9F041034601B983491BB96FF00F001B
:102D6000BDE8F0817E4C0026D4F80480404600285F
:102D700037D0834234D0C06898B3834230D0C06823
:102D800078B383422CD0C06858B3834218BFC06860
:102D9000EDD125E0C4460846BCF1000F5BD0634589
:102DA00012D0BCF81210B9420ED10268DCF8001043
:102DB000914218BF002818BF002A48D0BCF1000F6C
:102DC00018BF002900F04380DCF80CC0E4E718606D
:102DD0005F8216B9C3F80C8063600020BDE8F08103
:102DE000012617463800D5D100254FF4404C4FF648
:102DF000FF722788781C974208BF604620804046B3
:102E00002788C0B1B0F812E0BE451BD0C06890B1B1
:102E1000B0F812E0BE4515D0C06860B1B0F812E05D
:102E2000BE450FD0C06830B1B0F812E0BE4518BF43
:102E3000C068E6D106E0380009D000290CBF0020A8
:102E40000868C4E76D1CA8B2B0F5804FD1DB6FF005
:102E50000700BDE8F0810146EFE770B504000D46BC
:102E6000164618BF002D02D16FF00F0070BD608AAA
:102E700030B9002221462046FFF76AFF01001ED12B
:102E8000217C28686060A68241F0040121743449E5
:102E90004A68104680B1844210D0C06860B1844254
:102EA0000CD0C06840B1844208D0C06820B18442D0
:102EB00018BFC068EED101E0E2604C60002070BD38
:102EC00008B18161C2617047010012D02448426894
:102ED0008A4203D1D268426008E0024632B1D0682B
:102EE0000028FAD08842F8D1C868D060002001F0EC
:102EF000FFBE704710B5002001F0E6FE040004D0CC
:102F0000202100F0D1FEFF20E072204610BD10B558
:102F1000002001F0D9FE040004D0202100F0C4FEFE
:102F2000FF20E072204610BD002800D1704730B469
:102F30000368002B18BF00290FD00A68002A1EBFA3
:102F4000074B5A68002A08D0146803689C4204BFE3
:102F50000D681560D268002AF6D130BC70470000B9
:102F60002C000020E89D0420FC23010870B5DFF848
:102F70001C660A24DFF81856307868B336F8020C5D
:102F8000401C26F8020C80B2B0F5967F06DA307845
:102F900001280ED136F8021C05290ADB56F8140C5C
:102FA00020B100F045FC002046F8140C00213170DF
:102FB00012E0032802D1042030700DE0042802D171
:102FC0000221317008E0012806D156F80C0C2A467F
:102FD000A6F1100100F091FA1836641ECCD170BD34
:102FE0002DE9F24F4FF00A0EF1460024CC460A2696
:102FF000A04600250023DFF89C750146B8780FFA3B
:103000008CFABAF10A0F04BF00289C4624D018B3EA
:1030100059B1D1F800A057F80EBCDA4505D1002A05
:103020001CBF57F80AAC52455ED001280ED157F8A4
:10303000120C0028388804D0A0420DD31E46044646
:103040000AE0404508D39E46804605E004DD388806
:10305000A84224BF994605465B1C18370A2BCDDBD6
:103060009DF8003030460C46904649469E0705D4F0
:103070000FFA8CF60A2E06D1DB0707D44FF0FF308B
:1030800001B0BDE8F08F0FFA8CF91CDB09B20A29F8
:10309000B8BF894609DB0FFA8EF20A2AB2BF914601
:1030A0000FFA80F9B9F10A0FE8DA09EB4900DFF805
:1030B000E854C600A85918B100F0BAFB0020A85186
:1030C0000021AA191175DFF8D03409EB490003EB90
:1030D000C0000CB1216841600022C0F80880428223
:1030E000484601B0BDE8F08F18B201B0BDE8F08FDE
:1030F000F0B50C0081B0064615461F461CBF20687F
:10310000002808D0314601F0A9FA20B9207800F053
:10311000F000E02803D16FF00F0001B0F0BD32469F
:1031200039462046FFF75CFF002848BF40B221D453
:10313000DFF8641400EB400201EBC2070223062211
:1031400029463B75BE6007F10C0001F0FDFD3C68AF
:10315000002078826CB138604FF4006000902B46FC
:1031600006F12A022146304601F094FE204600F086
:103170005FFB002001B0F0BD70B50546DFF81864B4
:103180000A24307D50B1B168A94207D1306818B126
:1031900000F04EFB00203060002131751836641EAF
:1031A000EFD170BD2DE9F0410C0084B0804675D0A0
:1031B000D8F804603088B0F5807F04BF31790629E3
:1031C00069D17079042804BF7188082963D106F198
:1031D0000E0001AA016802AB116006F1180108682F
:1031E0001860606828B10299814202D1012501234B
:1031F00001E00025022306F1080201A92046FFF79D
:1032000077FFF388B3F5807F07D0B3F5007F02BF67
:1032100001A92046FEF72CFD3DE0002D3BD04FF4E8
:1032200020721C210E2000F0BBF9050033D06F681E
:10323000022000F04BFD062204F12A01F88007F17C
:10324000080001F081FD062206F1080107F11200D5
:1032500001F07AFD201D07F10E01026807F1180345
:103260000A6001AA1068082118604FF48070388045
:103270000622798004233A7140F606007B7106F13C
:103280000803009004F12A022946204601F002FEBC
:10329000284600F0CDFA404600F0CAFA04B0BDE876
:1032A000F08170B504460D46BB4802EB420100EBCD
:1032B000C10682B0327D022A17D1708A40F21D13F6
:1032C000984206DBB24A311D204600F016F960B97B
:1032D00009E0B0F5877F08DB06F10C02311D2046BE
:1032E00000F00BF908B9032030754FF4006106F1C6
:1032F0000C03009104F12A022946204601F0CAFD80
:1033000002B070BDF0B583B004460D461646306875
:103310002146374601F0A2F958B19D4B4FF40060A9
:1033200004F12A0200902946204601F0B3FD03B0C3
:10333000F0BD306800F0F001E02915D10122002332
:103340005E218DF804208DF8053001AB8DF8061054
:10335000727802F07F028DF80720B1788DF808109E
:10336000F2788DF80920D9E7A168636801EA0002C4
:1033700019408A421EBF80B24FF6A961884203D02D
:10338000E068D8B104F10C07834890F8F02002EB14
:103390004203D90043181E7D022E13DB00F1080CF6
:1033A0005CF80110A14202BF3E685B689E4209D1F1
:1033B00029462046FFF775FF03B0F0BD6FF003000C
:1033C00003B0F0BD002201460B7D022B07DB8E68A7
:1033D000A64202BF3B68D1F804C063450AD0521C24
:1033E00018310A2AF0DB2A463946204600F006F852
:1033F00003B0F0BD80F8F020D2B2D9E72DE9F04F4C
:1034000081B04FF0FF3805460F463868144629460C
:10341000C14601F023F938B9386800F0F001E0291D
:1034200018BF002F00D020B96FF00F0001B0BDE829
:10343000F08F2A4601213846FFF7D2FD002848BF09
:1034400040B242D45FFA80FBDFF84CA10BEB4B019A
:103450000AEBC106307D18B901223275B56000E073
:1034600034B94B4A3946284600F047F881465CB3E8
:10347000307D02280EDB4FF400608AF8F0B0009037
:1034800006F10C0305F12A022146284601F002FD4F
:10349000814619E0012817D1204608B3017B4A066E
:1034A00016D40068E0B1017B4A0611D40068B8B1B7
:1034B000017B4A060CD4006890B1017B4A0658BFD4
:1034C0000068EAD504E0C146484601B0BDE8F08F87
:1034D00022464FF420710E2000F04BFB044602E020
:1034E000204600F0E8F9002CEDD0306808B100F07B
:1034F0009FF934604FF00009E6E72DE9F0410646F8
:103500000F46904682B04FF420721C210E2000F02E
:1035100047F8040008BF4FF0FF3031D06568012044
:1035200000F0D4FB062206F12A01E88005F108002C
:1035300001F00AFC0622194905F1120001F004FC11
:10354000301D05F10E01026806230A6005F118021C
:103550003868082110604FF4807028800422698048
:1035600040F606002B7143466A7106F12A0200906C
:103570002146304601F08EFC204600F059F900202B
:1035800002B0BDE8F081024AB7E70000E8970420E6
:10359000E44E0008E6970420D4970420EC230108A9
:1035A0002DE9F0411746012F06460D4618BF412F61
:1035B00008D0B7F5C17F17D0B7F5207F52D00020D3
:1035C000BDE8F081092001F07FFB08B9BDE8F0817A
:1035D000002101604160058145810773012241732B
:1035E0008273C173BDE8F0810024A0460A2001F077
:1035F0006BFB40B3F11C4FF6FC721140C1F5147126
:10360000AAB28BB206449A4206F1100E0EF1030ED6
:103610004FF0000C4FEA9E0E38BF2946C0F800C09C
:103620004FEA8E0E01230026002CC0F804E005812D
:103630004181077380F80DC08373C6730CBF0446C5
:10364000C8F8000006E014B1204600F0F1F80020B0
:10365000BDE8F08180466D1AA8B20028C6D1204688
:10366000BDE8F081F21CC91C92088908920002EBA7
:10367000810202F1100092B2B2EB810F24BF82B23C
:10368000B2EB810FE3D380B200F010FE0028DED051
:1036900000210160811901F11002D21C92089200F0
:1036A0004260002105814581077397E7C01C8008AF
:1036B00030B4039C01EB8005AC4238BF002011D32D
:1036C000029C002C14BF04EB8000002000241C602E
:1036D00058600220198159810121587318461A73C4
:1036E0009973DC7330BC704730B581B004462089D3
:1036F0000D46814232D26389401B80B2AB4212DA5E
:1037000022896189121A228124686D1AADB26189F9
:10371000A94208DA6D1A2189ADB2091A21812468FB
:103720006289AA42ECDB207B10F00F0F0DD161897A
:103730008D420AD0627B930707D461682046091B3B
:10374000691889B200F048FD0446658162892281CA
:10375000206808B100F06CF80020206001B030BD96
:10376000F0B498B1B1F5803F10D2E1B103898DB2C8
:103770005B189CB2AC4209D3067B370609D5426878
:103780004C4200F110052244AA4207D20120F0BCAD
:103790007047002AFAD042684C4222444589426070
:1037A0000381491941810020F0BC704770B4D8B141
:1037B000B1F5803F18D2A1B102898CB2521893B2F0
:1037C000A34211D3057B2E060ED543684C4200F16F
:1037D00010052344AB4207D346894360028189190F
:1037E0004181002070BC7047012070BC704720B43C
:1037F00038B1B1F5803F04D271B143898AB29342A6
:1038000002DA012020BC70479B1A45684381038976
:10381000294441609A1A0281002020BC70470B00A5
:1038200058BFFFF79DBF5B421946E0E70122F6E76C
:1038300070B5040001D1002070BD002501F01DFC11
:10384000A17B4E1EA673F6B201F022FCF6B9617B95
:10385000207B26688A0700F00F0003D523692046E5
:10386000984710E0022802D121460A2004E00128EE
:1038700005D121465FF0090001F03AFA03E010B9E2
:10388000204600F029FC6D1C3400D7D1E8B270BD91
:103890000146002069B10968401C51B10968401C0B
:1038A00039B10968401C002903D00968401C00296F
:1038B000F1D180B2704710B5040008D001F0DDFBF3
:1038C000A17B491CA173BDE8104001F0E1BB10BD14
:1038D000020018BF002926D01068F8B113890889A2
:1038E000C318138112681068C0B11389B1F808C0F9
:1038F000634413810246106880B11389B1F808C08F
:10390000634413810246106840B11389B1F808C0BE
:1039100063441381024610680028DFD113890889A7
:10392000C318138111607047020010B50C4626D0F1
:103930007CB31068E8B1118920894118118112689F
:103940001068B0B111892389591811810246106895
:1039500078B111892389591811810246106800280D
:1039600007D011892389591811810246106800284F
:10397000E1D11189208941181181146000E044B11E
:1039800001F07BFBA17B491CA173BDE8104001F055
:103990007FBB10BD2DE9F0410546002600270C46EF
:1039A000002D18BF002C36D028892189884232D3B7
:1039B000B4F80A806A89A8EB070861686868921BF6
:1039C00090453944304488BF90464246474401F010
:1039D000BBF9628968894644974224BF002724685E
:1039E000864202BF00262D68002D12D02CB16189BD
:1039F0002289914201D1206888B92DB169892A892B
:103A0000914201D1286850B9002CD1D10020BDE8E5
:103A1000F081002CFAD06FF00F00BDE8F0816FF05C
:103A20000500BDE8F0812DE9F043064689460024F3
:103A3000002E81B01746A04618BFB9F1000F24D15F
:103A4000002001B0BDE8F083758998B250B1A8425A
:103A500008D35B1B3668002EF6D11FFA88F001B040
:103A6000BDE8F083ED1AADB2B8B2A84270689BB25F
:103A7000B8BFBDB22A46A844C118A0B248442C1908
:103A800001F062F97F1B00233668B8B20028E4D049
:103A9000E1E72DE9F041064600270D46002E1446C9
:103AA00018BF002D06D03089904207D24FF0FF306A
:103AB000BDE8F0816FF00F00BDE8F08174B170894E
:103AC000A046404538BF804670684246E9194744E1
:103AD00001F03AF9B4EB08043668F0D10020BDE8F3
:103AE000F081F0B581B004460D4617461E4684B3FA
:103AF000608986422DDB2468361AB6B24CB36089E1
:103B0000864226DB2468361AB6B214B36089864230
:103B10001FDB2468361AB6B2DCB160898642A2BFC8
:103B2000361AB6B22468E2DA13E0606832462946F3
:103B3000BF1B184401F008F9B8B240B12068BAB20E
:103B4000A91901B0BDE8F040A3E74FF0FF3001B084
:103B5000F0BD002CF9D021893346FA189142F4DBEC
:103B60006189A1EB030CBC45BABF8E1BB6B23E46C1
:103B7000DBE730B5154681B00A462989FFF710FD0D
:103B8000040008BF002003D02946FFF703FF2046AA
:103B900001B030BD10B34389994218DB0068C91ADF
:103BA00089B2D8B14389994211DB0068C91A89B238
:103BB000A0B1438999420ADB0068C91A89B268B189
:103BC00043899942A2BFC91A89B20068E2DA28B1D2
:103BD000B0F80AC061453CBF406842547047B1F537
:103BE000807F02D34FF0FF30704701700120704793
:103BF0000A780260087800E00078401E8041C043E7
:103C0000C00F7047F0B5244C244A2078244B6FF045
:103C1000004150BB0820656803FB05250E46B5FB37
:103C2000F6F601FB1655401E6560F4D11D4D2E467B
:103C30001020676803FB07278C46B7FBFCFC01FBE1
:103C40001C77676046F8047B8E4603FB0727B7FBAB
:103C5000FEFE01FB1E776760401E46F8047BE8D13C
:103C6000E86FC5F8800001252570606803FB00221D
:103C70000B46B2FBF3F301FB13210A4A616092F891
:103C8000803003F01F0352F82300C2F8800042F88E
:103C9000231020F04040F0BDB80100205FF36E3CDF
:103CA0000D6619007C9B0420002201F00DBA036808
:103CB0001AB95A1E026008467047197811B94FF0B8
:103CC000FF307047591C0160187870470146000AA0
:103CD00040EA012080B270470146080200F47F00EC
:103CE0000A0A40EA016002F47F42104340EA116090
:103CF00070470268531C03601170704770470228B8
:103D00000CDADFF8942319B1096842F820107047E3
:103D1000DFF88833D3F800C042F820C0704700B500
:103D200081B0002000F052F9012000F04FF902208C
:103D300000F04CF901B003205DF804EB46E100EB24
:103D400000132DE9F04FDFF850B385B00BEB0314EF
:103D500094F813805BF8282042B9002100F09CF809
:103D600000220020A27405B0BDE8F08F04F1180015
:103D700001F0DAF900F112014FF4207289B2362015
:103D8000FFF70EFC5FEA000A42D001A800210022E2
:103D9000002380E80E00208A4FF4807904F1170692
:103DA0000C27FFF793FF0121ADF804008DF80610F2
:103DB0000C22ADF8089001A95046FFF76AFE761C68
:103DC000B046002530782E2818BF00281EBF6D1C75
:103DD00016F8011F2E2921D008001EBF6D1C16F8F1
:103DE000011F2E291AD008001EBF6D1C16F8011FD6
:103DF0002E2913D008001CBF6D1C761CE2D10DE0EB
:103E00005046FFF715FD6FF0050005B0BDE8F08FD7
:103E10004FF0FF38404605B0BDE8F08FE8B210FA29
:103E200087F0401CB0F5803FEADAEAB2B9B25046FA
:103E3000EDB2FFF7AFFE7B1CA6EB08029BB292B27D
:103E400041465046FFF74DFE30786D1CEF190028B3
:103E5000B5D10022B9B250467F1CFFF79BFEADF8EA
:103E60000090BBB2ADF80290042269465046FFF7BD
:103E700038FE94F81780E07C0BEB880535230BEBBC
:103E800080025146D5F87804FEF7B1FE80465046D0
:103E9000FFF7CEFCBEE70000F0B50E46DFF8F841B4
:103EA000D4F8483400EB001181B0074604EB01154B
:103EB00063B194F850C4BC4508D1D4F84C243146C1
:103EC00005F1180098470023C4F84834D4F8543456
:103ED00063B194F85C04B84208D1D4F85824314650
:103EE00005F1180098470020C4F85404D4F8603451
:103EF00063B194F86804B84208D1D4F86424314618
:103F000005F1180098470020C4F86004D4F86C3418
:103F100063B194F87404B84208D1D4F870243146DF
:103F200005F1180098470020C4F86C0438000BD045
:103F3000A07C022802BFE17DE87D814202D10422FB
:103F4000EA7520E0012F0AD094F82201022802BF6E
:103F500094F82711E87D8142F1D0022F0AD094F81D
:103F60003212022902BF94F83702E97D8842E6D076
:103F7000032F08D094F84203022802BF94F8471395
:103F8000E87D8142DBD0E87D04280DDA04F58F61FD
:103F900051F82000FEF798FFE97D04F58F600022BC
:103FA000042340F82120EB7501B0F0BD014600204C
:103FB00059B1C97A4A1C012A07DCDFF8DC3003EB6F
:103FC000810CDCF8041001B10120704700EB0011F6
:103FD00070B5DFF8C450044605EB0116B27C012A27
:103FE00004D057D3032A4ED02BD370BDFFF70AFE5F
:103FF000A97C80B2022903D12A8A82423FF4F6AF1B
:1040000095F82211022904BFB5F820218242EDD093
:1040100095F83212022904BFB5F830228242E5D069
:1040200095F84213022904BFB5F840238242DDD03F
:104030003082022000210122B074F1743275717552
:104040001DE0317D481E3075C0B218BB707D401C2C
:10405000C1B20429707511D106F10800FFF7A6FF5F
:1040600038B1F07C0121002231757275401CF0746A
:1040700005E000212046FFF70FFF09E030752046DC
:10408000BDE870405BE6B06810B1401EB06001D181
:104090000020B07470BD00004C7B0420FC2301089C
:1040A000BF48002300F10F01890820B4890081B0C6
:1040B00001604FF4C8624B8001250B7101F5C863A4
:1040C0000A8043601D711A805A8001B0816000F53A
:1040D000CC6020BC00F09CBF2DE9F04D5FEA0008E9
:1040E0006ED018F0030071D1AD4EA8F1080530680C
:1040F000854222BF716808F10C02914266D306F531
:10410000CC6000F099FF18F8040C00285AD040F257
:10411000416B316838F808EC38F8064C6B1A98B2E5
:10412000DE4538BF5C4501EB0E0C01EB040A49D2B9
:1041300084421CBFBAF800E0864543D1D6F804E0BB
:10414000F4451CBFBCF802C084453BD1002008F8F0
:10415000040CB468A54238BFB56038F8087C0F4439
:10416000BD4211D0387978B977450DD0D6F808C05E
:10417000BC4508BFB560388828F8080C3888B0F509
:10418000C86F1CBF8F1C3B5238F8063C0B44AB4237
:1041900010D0187970B9B768AF4208BFB36038F86B
:1041A000080C188038F8080CB0F5C86F02D05A1AFD
:1041B000891C0A5206F5CC60BDE8F04D00F041BF05
:1041C000BDE8F08D06F5CC6000F03BFF00F055FF38
:1041D000BDE8F04D00F05CBF2DE9F0418046CD1CFC
:1041E0004FF6FC7005400C2D32BF0C2540F24162A9
:1041F000954219D28D4217DB694E3768B84502D314
:104200007168884504D300F038FF00F041FF4AE0B0
:1042100038F8081CA8F10800C71BBFB2C91BA1F1E0
:104220000804A4B2AC4202DA0020BDE8F081A54245
:1042300039D006F5CC6000F0FFFE38F8082C316864
:104240000A44107988B9ED190835D6F808C0ADB21E
:104250004B191088944508BFB360002218801A716A
:104260005F8028F8085C188814E005F11400844287
:1042700015D3ED190835B368AAB28818984238BF2B
:10428000B0600022027138F8083C4780038028F8AB
:10429000085C0088B0F5C86F1CBF891C0D5206F57C
:1042A000CC6000F0CEFE4046BDE8F0810100F0B5E4
:1042B00081B069D0C61C4FF6FC710E400C2E38BF81
:1042C0000C2602D3B6F5C86F5ED886425CDB344D4F
:1042D000C6F5C86705F5CC6000F0AEFEAA682B688D
:1042E000D11A89B202E000BFBCF80010B94247D22F
:1042F00003EB010C644620790028F5D12088401A90
:104300000838B042F0D306F11407B84216D3761835
:104310000836B0B218444FF0000C80F804C0B4F86E
:1043200000E041800121A0F800E026802171008892
:10433000B0F5C86F04D01844468001E00120207118
:10434000944225D16E68117909B3B2421FBF128819
:104350009A18107900281AD0B2421FBF1788DA19AC
:104360001179002913D0B2421FBF12889A18107910
:1043700000280CD0B2421CBF11885A18E3D106E0C5
:1043800005F5CC6000F05DFE002001B0F0BDAA6034
:1043900005F5CC6000F055FE04F1080001B0F0BD59
:1043A000E8740420002200F0DBBE0000704700002B
:1043B000F0B5040081B02FD0079E30002CD009B991
:1043C000DFF890120AB9DFF88C220BB9DFF88432DB
:1043D00008980027069D6760BC46BE460FF21D2761
:1043E000C4F808C0676104F12407C4F80CE0A4F81D
:1043F00028C084F831E0C7F800C02562DFF85852C1
:10440000C4F81CC02F782061204684F8347000F076
:1044100065F82046B04738B3002001B0F0BD00BFBA
:1044200090F834208A421BD0006848B390F83420BA
:104430008A4215D0006818B390F834208A420FD011
:104440000068E8B190F834208A4218BF006815D19E
:1044500006E028706868206020466C6001B0F0BDFE
:10446000491C84F8341058B194F83400FF2804BF74
:10447000002184F83410686894F834100028CFD1F3
:1044800094F83400FE280CBF0020401CE1E770B512
:1044900082B005460C466968206888421BD00090AF
:1044A0006E68166069461046FEF73EFD95F83110BD
:1044B000002C01F005020CBF00202068052A68606E
:1044C00006D128B1090703D5291D2846FFF75BF857
:1044D000012002B070BD002002B070BD2DE9F04196
:1044E0000C0082B0074616461D4608BF594C06B957
:1044F000584E05B9574D002C1CBF2368002B06D120
:104500006A4621464FF00108FFF7C1FF01E04FF076
:1045100000083068B968884202D006B90020B86047
:104520002868F968884202D005B90020F860B8F11F
:10453000000F04D16A4621463846FFF7A8FF02B0B3
:10454000BDE8F08144498860704790B190F831200F
:10455000D1070ED442F0010202F00503052B80F8CA
:10456000312006D1416821B1120744BF011DFFF778
:104570000AB8704758B190F83110CA0707D501F052
:10458000FE0180F83110090748BFFEF7F5BD7047FE
:1045900010B504001ED094F8310041071AD440F041
:1045A000040084F831002046FDF74EFB94F83110EA
:1045B00001F00502052A07D1606828B1090703D573
:1045C000211D2046FEF7DFFFE16919B12046BDE855
:1045D0001040084710BD58B190F831104A0707D570
:1045E00001F0FB0180F83110C169002918BF0847AC
:1045F000704700B1C1617047000000006FF00B0010
:104600007047010023D01448406800B390F834305C
:104610005B1CDBB299421BD00068C0B190F834300B
:104620005B1CDBB2994213D0006880B190F8343043
:104630005B1CDBB299420BD0006840B190F834307B
:104640005B1CDBB2994218BF0068DED170470020C6
:1046500070470000FC230108289E0420C24318BFB5
:10466000002810D091F8312093070ED54A68904267
:104670000BD0896801EA00030A40934202BFC94394
:104680000840884201D10120704700207047000097
:104690002DE9F04784B0824689466F469AF800605B
:1046A0000DF10C0805E0474554D247F8044B1AF8C1
:1046B000016FA6F130000A284CD200240A25302EC2
:1046C0000ED11AF8016F782E14BF582E102505D080
:1046D000082505E005FB0466A6F130041AF8016F11
:1046E000A6F130000A28F5D3102D4AD1A6F16101B8
:1046F000062922BFA6F14102062A0A2841D23046E5
:1047000000F047FD002814BF612041200A36361A08
:1047100046EA0414E2E7B4F5803F3FBF0098B0F5E5
:10472000807F0198B0F5807F14D20099000440EAA0
:104730000160044319E0B4F5807F3CBF0098B0F5F8
:10474000807F07D20199B1F5807F3CBF0298B0F518
:10475000807F03D3002004B0BDE8F087009A0904ED
:1047600041EA026141EA00210C43B9F1000F04D093
:104770002046FFF7B1FAC9F80000012004B0BDE8F7
:10478000F0872E2E8FD026B1304600F00CFD002889
:10479000E0D068463F1ABF107F1C042FE5D8DFE841
:1047A00007F0060307050400DFE7C4E7B3E7D1E736
:1047B000B4F1807F3CBF0098B0F5807FCAD244EA54
:1047C0000064D2E72DE9F0433C4E83B0D6F8089060
:1047D0000546884699F80070BF0007F03C07142F83
:1047E00066DB6889042863D369680A78082A5FD180
:1047F000706900F0F003E02B5AD03168FFF72EFF0C
:10480000002855D12889082852D307F10E042146E3
:104810002846FEF7CBFF48B3288939188AB282426E
:1048200046D34FF4207289B20E20FEF7B9FE040081
:104830003ED0608907F1080188420ED360683A468D
:10484000494600F081FA39462046FEF7D0FF20B9EC
:1048500029462046FFF79EF818B12046FEF7E8FFEC
:1048600026E028462546FEF7E3FF04E021462846D9
:10487000FEF7BDFFE0B96C6839462846FEF796FFA3
:10488000B0B968687169FF23C160326902610021B3
:10489000217000226180FF24047242810120019076
:1048A0002846009106F11401CDF8088000F069F95E
:1048B000284603B0BDE8F043FEF7BABFE89D0420E8
:1048C0002DE9F0410746884684B04FF42072242138
:1048D0002220FEF765FE040022D065687E68032072
:1048E00000211C22287085F80180A980E980606879
:1048F0007968083000F028FAF068039003A800F007
:1049000045F850B10021FF23698003AA02900120DD
:1049100001902046009100F034F92046FEF788FF10
:1049200004B0BDE8F0812DE9F0410746884684B027
:104930004FF4207224212220FEF732FE040022D000
:1049400065687E680B2000211C22287085F8018094
:10495000A980E98060687968083000F0F5F9F068AE
:10496000039003A800F012F850B10021FF236980E2
:1049700003AA0290012001902046009100F001F965
:104980002046FEF755FF04B0BDE8F08170B4B14990
:1049900004680A68BAB192F8313003F005010529BC
:1049A0000CD1516851B1956805EA040629408E4240
:1049B0001BD0990702D4D3689C4216D01268E9E74D
:1049C000084670BC7047A449096859B191F8313064
:1049D00003F00503052B05D14A68002A1CBF0078A7
:1049E0007F28EDD1002070BC7047104670BC704726
:1049F0002DE9F04381B005466E68884696F8009030
:104A00004FEA191004284CD170884FEA890909F03F
:104A10003C09FFF75BF929890446884203D2214605
:104A20002846FEF761FE688948453ADB2989A1429C
:104A300037D3B9F1140F34DB3069884F7861F068EF
:104A40007A69386198F8310002F0F001E02906D166
:104A5000C20702D5D8F80400A0B900243CE0C00782
:104A600009D5D8F8040030B182420BD04146104637
:104A7000FFF7F4FD30B9387D00247F282CD075492C
:104A80000C6827E05FEA080426D0386940B1414647
:104A9000FFF7E4FD28B9387C00F0F000E02800D0F2
:104AA0002CBB2846FEF7C4FE002001B0BDE8F08311
:104AB00044450ED094F83100C1070AD5606840B172
:104AC0007A698242E1D021461046FFF7C7FD0028EF
:104AD000DBD12468002CEBD1707A112802BFB11C05
:104AE00031F80920B2F5884FCFD14446D8E7F08895
:104AF0004FF63F71084209D0284600F077FC0500C8
:104B000003D1002001B0BDE8F0836E683C60284608
:104B1000C7F80480BE603178890001F03C01B9819A
:104B20004946FEF764FE707A012806D0112809D1A3
:104B300041462846FDF7AAFF19E041462846FFF7FF
:104B400041FE14E078692146FFF788FD60B9387DA1
:104B500000F0F000E02807D049462846FEF766FE40
:104B600002212846FFF7ACFE2846FEF761FE002032
:104B700001B038607860B860B88138617861BDE8AC
:104B8000F08370B584B00C460A9E22B100291ABF8A
:104B900009680029341D0999089D01912146029652
:104BA000009500F002F804B070BD2DE9F0415FEA15
:104BB000020882B006460D461C4628D01421FEF796
:104BC000F5FD38BB77680998089945223C72244C5A
:104BD0007872D8F8000038613A7079703089FFF740
:104BE00075F878800020F8802088FFF76FF8B8808B
:104BF0002088401C20802DB91A4908680021F860DF
:104C0000798110E02A680021FA6079810BE07089CF
:104C1000142804DA6FF0010002B0BDE8F081716879
:104C2000E846086900900A9B188D50B13189884286
:104C300007D242461946304600F0E2FC02B0BDE819
:104C4000F08118465B6942463146984702B0BDE89C
:104C5000F08100002C9E0420309E0420E89D04205A
:104C6000D67F0420FC230108F0B400BF2BA50B2441
:104C70002B6800209A6810605E685888F61CB60899
:104C8000B600E0B110F0030107D01768491E376085
:104C90001660B3F800C06644F7D180080FD01168E1
:104CA000316016601F88F1190E60CE1911603160F5
:104CB000F11916600E60CE19401E1160EFD12D1D46
:104CC000641ED5D1F0BC70470B2810B501DB002065
:104CD00010BD00BF11A151F8204000F0CEF9A1682D
:104CE0000C680CB122680A6000F0D2F9204610BDB1
:104CF0000B2830B581B00C460EDA6CB107A151F823
:104D0000205000F0BAF9A9680A6822600C6001B06E
:104D1000BDE8304000F0BCB901B030BD1022010840
:104D20001C2201082822010834220108402201081F
:104D30004C2201085822010864220108702201084F
:104D40007C2201088822010862B38B0708D0521E1A
:104D500011F8013B00F8013B00F024808B07F6D1ED
:104D6000830740F0208000BF103A07D330B4B1E889
:104D70003810103AA0E83810F9D230BC530724BFDD
:104D8000B1E80810A0E8081044BF51F8043B40F80F
:104D9000043BD20724BF31F8022B20F8022B44BF7A
:104DA0000B7803707047121F17D35B0009D151F8BD
:104DB000043B20F8023B1B0C121F20F8023BF6D2EA
:104DC0000BE051F8043B00F8013B1B0A20F8023BC2
:104DD0001B0C121F00F8013BF3D238BF121D521EEC
:104DE00024BF11F8013B00F8013BF8D870470000E0
:104DF00070B504460D4661890F2946DBE07B18B982
:104E000095F83410491CE17363681878C1079E89CE
:104E100017D501280AD15878002804BF99785E294F
:104E20000FD1637B43F0100363730AE05FF0060267
:104E30002CA1184600F0B2FC18B9607B40F00800C5
:104E40006073082E03D0B6F5C16F0FD01DE095F842
:104E50003110080719D50E212046FEF7C8FCA0B96D
:104E600029462046FFF7C4FD002070BD95F83100AB
:104E700001070AD50E212046FEF7B9FC28B92946BC
:104E80002046FEF78FF9002070BD2046FEF7D0FCCB
:104E9000002070BD2DE9F04381B0044608980D460E
:104EA00090469946FEF712FF06460E212846FEF769
:104EB0007DFC20B16FF0010001B0BDE8F0836F68A8
:104EC00006224946BE813846FFF73EFF062241468C
:104ED000B81DFFF739FFA2692946204601B0BDE899
:104EE000F0431047FFFFFFFFFFFF0000F0B585B064
:104EF0006BA36A46044693E8E04082E8E0400091F4
:104F00000021684600F0A6FD0028206005B00CBF17
:104F10004FF0FF300020F0BD10B50446206800F0CF
:104F200023FE2068BDE8104000F026BE00B581B029
:104F30000068002200F0A6FD08B14FF0FF3001B07C
:104F400000BDF0B583B005460E46144600F061FC86
:104F5000074629686CB12246684600F0BAFD009801
:104F6000102802D1019931600AE04FF0FF3003B000
:104F7000F0BD4FF0FF32684600F0ABFD01983060A5
:104F800000F047FCC01B03B0F0BD10B584B00C4668
:104F900001680022684600F09CFD009A102A03BFB9
:104FA0000198206000204FF0FF3004B010BD006871
:104FB00000B1012070470000F0B500BF3CA283B0F3
:104FC00004460D46D2E90067CDE900670121684635
:104FD00000F0BCFC206018B94FF0FF3003B0F0BD0A
:104FE00015B9002100F0D5FC002003B0F0BD006829
:104FF00000F023BD006800B10120704700B581B00A
:105000002DA000F046FC254901B0086000BD00005D
:1050100010B500BF2AA182B004466846D1E900233A
:10502000CDE9002300F035FC0028206002B00CBF61
:105030004FF0FF30002010BD00684FF0FF3100F04E
:1050400031BC006800F05DBC2DE9E04388B000276A
:105050000E9E6D46BE46B846B946A5E88043A5E813
:1050600080410090684601911146ADF808600493B4
:1050700000F0D7FB08B0BDE8E08308484FF0FF31EF
:1050800000B5006881B000F00DFC012001B000BD4A
:105090000248006800F035BC00000000709E04204B
:1050A00000000000040000000000000000000000FC
:1050B00000000000000000000000000000000000F0
:1050C0000000000000000000401810F0030308D0AA
:1050D000C91A1FD3DB0748BF00F8012D28BF20F8ED
:1050E000022D130030B414461546103928BF20E9AC
:1050F0003C00FAD8490728BF20E90C0048BF40F817
:10510000042D890028BF20F8022D48BF00F8012D8A
:1051100030BC7047C91818BF00F8012DCB0728BF55
:1051200000F8012D7047000000F10103810704D051
:1051300010F8011B820781B1FAD10268A2F1013196
:10514000914311F0803104BF50F8042FF6E709BAFB
:10515000B1FA81F100EBD100401CC01A7047000089
:1051600000B500BF130096469446103928BFA0E84A
:105170000C50FAD85FEA417C28BF0CC048BF40F809
:10518000042BC90728BF20F8022B48BF00F8012BC9
:1051900000BD10B5044600F01BFD0146204689699C
:1051A000BDE81040084710B5044600F011FD014667
:1051B0002046096ABDE8104008470000DFF8D40522
:1051C00030B5446881B0002574B1E07F216820B11A
:1051D000401E2546E0770C4604E020460C46294652
:1051E00000F004F8002CF0D101B030BD2DE9F04101
:1051F00005460E466C6800276168888890B9086883
:1052000014226860606805F10801FFF79DFD012127
:105210002046FFF788FB2046FEF73AFB074620466C
:10522000FEF706FB6C685CB16068A0460468404607
:10523000FEF72EFB3F184046FEF7FAFA002CF3D19A
:105240003146284600F041F8DFF848050188C91BBF
:105250000180B8B2BDE8F0812DE9F04381B0044689
:105260000023DFF8306588467168002000278446F7
:10527000002531B3E268D1F814E0964502BF2269F7
:10528000D1F81890914502BF8A89B4F804E07245BC
:1052900008D06D1C20B1C27F91F81FE0724501D388
:1052A0000846BC460A6802B10F461100E2D120B19F
:1052B0001F466146FFF79AFFC319434501DA012DE6
:1052C000D2DC184601B0BDE8F08310B4DFF8C43476
:1052D00081B05C68026884420CBF5A600A60014673
:1052E00001B0012010BCFFF703BD2DE9F04F81B0E4
:1052F0000F46D7F804B006469046BBF80200FEF70A
:10530000E5FC9BF800A081464FEA8A0A0AF03C0AB5
:10531000D14562DBBBF80600FEF7D8FC7B680021B4
:10532000C0008144A9EB0A091960988080B2A3F8F3
:1053300006901FFA89F981454FD372680020012138
:105340000AE04AD0EA88944547D300282A681EBF5D
:10535000C088A0420021284642B35568B3F804C073
:10536000AC88A445EDD21A6050B1C488A44524BFCE
:10537000AD884D4531D30760C0889C88A0421BE0B2
:10538000A888484529D3776018E018681A4648B3BA
:105390004368D0889A889042F7D00021084601B02F
:1053A000BDE8F08F002001B0BDE8F08F0028EAD002
:1053B0000760C0889A88904218BF00215FEA080001
:1053C00002D1B07FC207EDD561B170680028E4D08A
:1053D000426890880028E0D1D7E74FF0FF3001B055
:1053E000BDE8F08F084601B0BDE8F08F2DE9F04F21
:1053F00081B007467D682878800000F03C001428C2
:1054000040F0D980E888FEF761FC4FEAC008688860
:10541000FEF75CFC2978890001F03C018842C0F26B
:10542000CA80A0EB01093846FEF732FA8246DFF85F
:105430006463308850440A280BDD51462846FFF744
:105440000BFF002800F0B780308850440A2800F392
:10545000B280746800E02468002C00F0B380E86833
:105460006169814202BF2869A269824202BFA089A4
:10547000A9888842EFD1E888FEF728FCC0040AD149
:10548000E089FEF723FCC00405D01422294604F16C
:105490000800FFF759FCED882D066D0F05F001059A
:1054A00095F001050AD009EB080080B21FFA88F1D7
:1054B00088427ADB4FF6EC71884276DA2A46394622
:1054C0002046FFF712FF10F1010F6ED031888A4499
:1054D000A6F800A035B1A27FC844A4F81C8042F011
:1054E0000102A277012869D16068B4F81C801422F7
:1054F00041680D6808F114080F4604F108013846A8
:10550000FFF722FC1FFA88F0FEF7E0FB788000200E
:10551000F8807881D4F804B05DB16F681421284612
:10552000FEF765F929465846FEF7D2F93D68002D89
:10553000F3D171688C4222D100212046FFF7C5FECD
:105540005846FEF7A5F9318801B0081A3080584650
:10555000BDE8F08F00200021002200230FC40FC4FB
:10556000203C0F20E0777168216014227460294686
:1055700004F10800FFF7E8FB002C8CD11BE00029A8
:105580001CBF0868A042D8D001001CBF0868A04218
:10559000D3D001001CBF0868A042CED001001EBFBE
:1055A0000868A0420146EAD1C7E7606818B900213F
:1055B0002046FFF78AFE3846FEF73AF9002001B090
:1055C000BDE8F08F0120FFF77FFB0400C2D15146F8
:1055D0002846FFF741FE504504DB0120FFF774FB2E
:1055E0000400B7D10024C7E710B50446606908B1CC
:1055F000FEF71EF921460220BDE81040FFF778BBF8
:105600002DE9F04F8BB08A46BAF8285006467468E8
:10561000002790464FF01409143DA81005EB507573
:105620002078800000F03C00ED10142802D1708931
:10563000142804DA6FF005000BB0BDE8F08FE088A5
:10564000FEF744FB3189C0F30C0200F40050CDF8A2
:1056500014A0CDF824800895A1F1140BE9001FFADD
:105660008BFBADF80A1007940492069086E000BF09
:1056700041F4005160E04FF4207214210E20FDF738
:105680008FFF04003ED0079960681422A046FFF700
:105690005BFB60680390BDF8080004461FE0B8B2E9
:1056A0001FFA89F1019070682B4641220844B9B273
:1056B00000900020FDF7FAFF5FEA000A27D030468D
:1056C000E41BFEF7F8F86E61334828615146404606
:1056D000A4B2FEF7FDF81CB34FF000093668FCB128
:1056E0007789A7EB0907B8B28442B8BF2746B8B29A
:1056F0000028F1D00220FFF7E7FA0500CFD140469D
:10570000FEF796F84FF0FF300BB0BDE8F08F29465A
:105710000220FFF7EDFAF2E700200BB0BDE8F08FB2
:1057200005980499B944028DC1F30C01143A5A4505
:105730009EDB069800289BD10846FEF7C7FA03991E
:10574000C880BDF80800143080B2FEF7BFFA039994
:105750004880039A0020414650810598099A44697F
:10576000A0474046FEF764F8BDF808000499089A7F
:10577000ABEB000B1FFA8BFB51180491BBF1000F30
:10578000CAD0BDF80A008345B4BFADF808B0ADF883
:10579000080070E7349E0420E9550008030000204B
:1057A00013F0030F09D0521E22BF13F8010B11F89A
:1057B00001CBB0EB0C00F3D0704711F0030F14D104
:1057C000121F22BF53F8040B51F804CB6045F7D0E9
:1057D000121D0AD200BA9CFA8CFCB0EB0C0038BF48
:1057E0006FF0000088BF01207047521E22BF13F8DF
:1057F000010B11F801CBB0EB0C00F6D0521C08BF26
:105800001046704700B581B000F0EAFC002001B0FE
:1058100000BDEFF30580002818BF00F099BD00F02F
:1058200092BD30B585B042690B46002A1CBF816924
:10583000002911D0B0F90840002502910192842C72
:1058400018BFE51C009502690168406800F024FA61
:105850000390039805B030BDB0F9081000228429E8
:1058600018BFCA1C03A9009201910269016840682F
:1058700092B200F095FA0128EBD0002005B030BDBF
:1058800000B581B000B9012000F080FB002001B01C
:1058900000BD416800291CBF012001F065B901204D
:1058A00001F02DB900B581B00022009210B980201E
:1058B00001B000BD11F1010F08BF4FF0FF3201D060
:1058C00001B10A46EFF3058199B16A46002101F062
:1058D0005BFC012812D1009840B14FF08051DFF8F5
:1058E00084221160BFF34F8FBFF36F8F002001B090
:1058F00000BD114601F078FB0128F7D0FF2001B070
:1059000000BD10B582B0002200240092EFF30581A3
:1059100081B1694601F063FA012814D1009878B189
:105920004FF08051DFF83C221160BFF34F8FBFF37F
:105930006F8F05E0002301F027F9012818BFFF242D
:10594000204602B010BDFF2002B010BD10B582B0DD
:10595000436853B1012919D1032400220094002186
:10596000012001F00BF802B010BD01290ED1032275
:105970000021012001F072F8040004D0002300226D
:10598000002101F001F9204602B010BD002002B054
:1059900010BD00B581B00022009210B9802001B086
:1059A00000BD11F1010F08BF4FF0FF3201D001B16E
:1059B0000A46EFF3058199B16A46002101F0E4FB44
:1059C000012812D1009840B14FF08051DFF89421A6
:1059D0001160BFF34F8FBFF36F8F002001B000BD88
:1059E000114601F001FB0128F7D0FF2001B000BDF6
:1059F00010B582B0002200240092EFF3058181B13E
:105A0000694601F0ECF9012814D1009878B14FF003
:105A10008051DFF850211160BFF34F8FBFF36F8FBC
:105A200005E0002301F0B0F8012818BFFF2420464C
:105A300002B010BDFF2002B010BD00B581B0EFF381
:105A4000058111B1822001B000BD01F018FC0020D9
:105A500001B000BD00B581B08268002A1CBFC368D8
:105A6000002B07D0002100914168006800F086FFFC
:105A700001B000BD4168006801B000225DF804EB90
:105A800000F0ECBF02B582B00021009102B9012202
:105A9000EFF30581A1B100236A4602A901F032F9B2
:105AA000012813D1009840B14FF08051DFF8B420A5
:105AB0001160BFF34F8FBFF36F8F002003B000BDA5
:105AC000002302A901F060F80128F6D0FF2003B0FE
:105AD00000BDF0B5054685B008460023029001934D
