:020000040800F2
:1000000010A2042045590108095801080B5801089D
:100010000D5801080F580108115801080000000090
:1000200000000000000000000000000071C0000897
:10003000135801080000000015C0000881AA00083C
:100040008F59010893590108975901089B590108D4
:100050009F590108A3590108A7590108AB59010884
:10006000AF590108B3590108B7590108BB59010834
:10007000BF590108C3590108C7590108CB590108E4
:10008000CF590108D3590108D7590108DB59010894
:1000900015580108DF590108E3590108E75901081B
:1000A000EB590108EF590108F3590108F759010804
:1000B000FB590108FF590108035A0108075A0108B2
:1000C0000B5A01080F5A0108135A0108175A010860
:1000D0001B5A01081F5A0108235A0108275A010810
:1000E0002B5A01082F5A0108335A0108375A0108C0
:1000F0003B5A01081B5801083F5A0108435A01089E
:10010000475A01084B5A01084F5A0108535A01082F
:10011000575A01085B5A01085F5A0108635A0108DF
:10012000675A01086B5A01086F5A0108735A01088F
:10013000775A0108215801087B5A01087F5A0108A3
:10014000835A0108875A01088B5A01082758010869
:100150008F5A0108935A0108975A01089B5A0108BF
:100160009F5A0108A35A0108A75A0108AB5A01086F
:10017000AF5A0108B35A0108B75A0108000000003D
:10018000BB5A0108BF5A0108C35A0108C75A0108DF
:10019000CB5A0108CF5A0108D35A0108D75A01088F
:1001A000DB5A0108DF5A0108E35A0108E75A01083F
:1001B000EB5A0108EF5A0108F35A0108F75A0108EF
:1001C000FB5A0108FF5A010800000000035B010808
:1001D000075B01080B5B01080F5B0108135B01085B
:1001E000175B01081B5B01081F5B0108235B01080B
:1001F000275B01082B5B010800F5E0700268914263
:1002000003D343681A44914202D380680028F5D191
:100210007047DFF86C17086890B94FF48050486059
:100220004FF480324FF0FF30C86008610420DFF8DF
:1002300054378A604861C3F8BC01DFF84C07086096
:100240000120704701F1080313F0070F0EBF0023D0
:10025000C3F1080303F007031944D21A8161C26095
:1002600042F001034B60091D4FF0280C41F802C019
:10027000DFF80C271369C36170472DE9FC4B074673
:1002800001F1080010F0070F0FBF8946C0F1080008
:1002900000F0070001EB000902F1080111F0070F5F
:1002A00006D002F10800C0F1080000F00700024487
:1002B0001546A5EB090009EB0306A0EB030B43F081
:1002C0000303C9F80430AE4228BF01F005FA2879CB
:1002D000C10758BF01F000FABBF1100F38BF01F0A1
:1002E000FBF9B869854208D1F9688B44C7F80CB0AE
:1002F000BE614BF00100706051E1786985420AD11E
:10030000B9688B44C7F808B07E614BF0010070609B
:1003100046F80BB043E1686800F00301012940F0A2
:10032000AC80C008C0000190C0081F2839D8AC6854
:10033000D5F80C800090454508BF01F0CDF9A542E5
:1003400008BF01F0C9F968680099C008C000B0EBA7
:10035000C10F18BF01F0C0F9009907F1280000EBA8
:10036000C100844206D039698C42C0F08180E268C5
:10037000AA427DD1A04506D1009839680123834067
:100380009943396076E0804506D0396988456FD356
:10039000D8F80800A8426BD1C4F80C80C8F808400F
:1003A00068E0EC68D5F81880AC420CD0A8683969D0
:1003B000884223D3C268AA4204BFA168A9421DD1C2
:1003C000C460A0601CE005F114010C6834B905F1AB
:1003D00010010C68A4B101E011460C6804F114028C
:1003E0001068002802BF04F1100210680028F3D141
:1003F0003869814202D300220A6001E001F06CF901
:10040000B8F1000F36D0E96907F5987000EB81006C
:100410000268954208D10460A4B9E86979680122AC
:1004200082409143796025E03869804508D3D8F847
:100430001010A94214BFC8F81440C8F8104001E0D9
:1004400001F04AF9B4B139698C4211D3C4F818806B
:10045000286928B1884226BF2061846101F03CF9F7
:10046000686938B13969884202D36061846101E00A
:1004700001F032F901996D188B4469684908490007
:1004800069604BF0010070604FEADB0446F80BB086
:100490001F2C23D807F1280000EBC4084546BBF108
:1004A000100F38BF01F018F9386820FA04F1CA07B4
:1004B00005D4012101FA04F404433C6007E0D8F8B4
:1004C0000800396988422CBF054601F005F9C8F8D3
:1004D0000860EE60B560C6F80C8060E05FEA1B2043
:1004E00008BF002123D0B0F5803F28BF1F211ED2B6
:1004F000A0F58072120C02F008029040A0F5805125
:10050000090C01F004018840A0F580431B0CC2F1E6
:100510000E0203F00203521AD21A984002EBD032B4
:10052000D01D2BFA00F101F0010101EB4201F16154
:10053000002307F59872736102EB810033617A68DA
:1005400022FA01F3DC0707D4012303FA01F1114376
:1005500079600660B0611DE002681F291DBF49086F
:10056000C1F119010BFA01F1594600E00246506849
:10057000C008C000584516D002F11003C80F03EBA5
:100580008003490018680028F0D13869834204D3F9
:100590001E60B261F660B66001E001F09DF809F1FD
:1005A0000800BDE8F68B396990688A4228BF884206
:1005B000F3D3C6609660B060F2600020B061EEE7F1
:1005C0002DE9FE4F04468B46A5692E469046994676
:1005D0003146FFF711FE0268416802EB010AAAF1F9
:1005E000270111F007000EBF0021C1F1080101F041
:1005F00007010AEB0100A0F12F0706F110018F425D
:1006000038BF374607F11802002101920091A8F186
:10061000280259462046FFF715FE07F1080010F0A2
:10062000070F18BF01F058F81B20786007F1080188
:1006300004F5E07090E80C5081E80C50C0F800B070
:10064000C0F80480C0F80C908160072201980099DE
:1006500000E0001D491C00F1080353454260F8D337
:100660000129D8BF01F038F8B74200F09580BF1BD0
:10067000301D321DC15949084900D15147F00100D0
:1006800070604FEAD70BF751BBF11F0F21D804EB75
:10069000CB0000F12805A846102F38BF01F01CF848
:1006A000206820FA0BF1CA0705D4012101FA0BF1E9
:1006B0000843206006E0A868216988422CBF804674
:1006C00001F00AF8AE60C8F80C60C6F80880F56062
:1006D0006FE0380A08BF002123D0B0F5803F28BF63
:1006E0001F211ED2A0F58072120C02F00802904069
:1006F000A0F58051090C01F004018840A0F5804369
:100700001B0CC2F10E0203F00203521AD21A9840D7
:1007100002EBD032D01D27FA00F101F0010101EB0C
:10072000420104EB8102002302F59870F1617361CC
:100730003361626822FA01F3DB0707D4012303FA6D
:1007400001F1114361600660B0611DE002681F297C
:100750001DBF4908C1F1190107FA01F1394600E04E
:1007600002465068C008C000B84216D002F110031B
:10077000C80F03EB8003490018680028F0D12069F6
:10078000834204D31E60B261F660B56011E003B02D
:10079000BDE8F04F00F0A0BF0BE0216990688A42ED
:1007A00028BF8842F3D3C6609560B060F260002035
:1007B000B06103B0BDE8F08F2DE9F041704F054600
:1007C0003868884608B9FFF724FDB96801EB0800CE
:1007D0002F30491E20EA010188457DD205F5D876E3
:1007E000B06828B1326889188A4275D2884273D3BA
:1007F00000F0B2FF01001CBF0C6811F1010F6BD0BB
:100800003068201805F5D87230605368984238BFB8
:1008100018467060A86960BB286908B1814200D29F
:100820002961316174610020F0614FF0FF303A6856
:100830006A62286205F128020020D260926002F10B
:10084000080757611761801C10322028F5D34D48E6
:10085000854208BFA4F1280228D055F8040CC0082E
:1008600005EBC002A2F108000A19121A283A014643
:100870001CE005F5E070024600E092687AB3136868
:1008800057681F44B942F8D1137B1F0727D4AB69BF
:100890001768BB4223D3D2F804C06744BB421ED2C0
:1008A000A444C2F804C0E868A96922182846FFF7E2
:1008B000C9FC1FE08068C0B103689342FAD1027B93
:1008C000130712D4026801604368E4184460434689
:1008D0002846BDE8F041D0E40020BDE8F0812A6957
:1008E000914238BF29610A19E5E7002322462846CC
:1008F000FFF766FEE8688045EED2A0EB0800A96924
:10090000E86001EB0802AA6140F00100506048F085
:100910000300486001F10800BDE8F08130B4184BD5
:100920001A6882B94FF480525A604FF480344FF005
:10093000FF32DA601A610422124D9C605A61C5F8D8
:10094000BC21114A1A6011F1400F17D28269AAB175
:10095000C368283199420BD200F5E0710C68A242BD
:1009600003D34D682C44A24202D389680029F5D1F3
:10097000C16999423CBF4FF0FF32C26100F0A8BE8E
:10098000849D0420D08F04206859883C2DE9F84FBD
:1009900000258946090AC9F1000B08BF002323D0AE
:1009A000B1F5803F28BF1F231ED2A1F58072120C23
:1009B00002F008029140A1F580531B0C03F00403E0
:1009C0009940A1F58044240CC2F10E0204F0020407
:1009D000D21A121BA14002EBD132D11D29FA01F328
:1009E00003F0010303EB4203074607F5987858F834
:1009F000230030B31F2B0FBF4C465C08C4F1190411
:100A000009FA04F4AC46594600E064004268D20892
:100A1000D200A2EB09028A4203D21100054600F07F
:100A20006981426910304FEAD47B50F82B00002ACC
:100A30001CBF824294460028E7D18B466046B0BB7B
:100A4000BDBB012202FA03F35B00584279680343FD
:100A50000B4000F04E81584203405B1E180B00F023
:100A60001000C340590901F00801CB409A0802F078
:100A70000402D3405C0804F002040818E340101894
:100A8000C3F3400620183044F3401B1858F82300E5
:100A90000DE008464168C908C900A1EB09015945A4
:100AA0003CBF8B46054601690029F2D14069002808
:100AB000F0D1002D00F01D81B868A0EB090083453E
:100AC00080F0178139698D42C0F011816868C008D3
:100AD000C00009EB0B01884218BF00F0FDFD05EBDB
:100AE0000906B54280F00381EC68D5F818A0AC4245
:100AF0000CD0A8683969884223D3C268AA4204BFCF
:100B0000A168A9421DD1C460A0601CE005F11401D8
:100B10000C6834B905F110010C68A4B101E011466C
:100B20000C6804F114021068002802BF04F11002DE
:100B300010680028F3D13869814202D300220A608C
:100B400001E000F0C9FDBAF1000F36D0E86908EB0A
:100B5000800001688D4209D10460200014D1E86949
:100B60007968012282409143796026E038698245A4
:100B700008D3DAF81010A94214BFCAF81440CAF812
:100B8000104001E000F0A8FDBCB13869844212D3E6
:100B9000C4F818A0286930B13969884226BF20619D
:100BA000846100F099FD686938B13969884202D3DF
:100BB0006061846101E000F08FFDBBF1100F0CD289
:100BC000D94449F00300291D6860281D51F8092007
:100BD00042F0010240F8092088E049F00300686013
:100BE0004BF0010070604FEADB0046F80BB01F28A5
:100BF0001DD807EBC00101F12804396821FA00F281
:100C0000D307A34605D4012202FA00F00843386056
:100C100006E0A068396988422CBF834600F05CFD7D
:100C2000A660CBF80C60C6F808B0F4605EE05FEA3E
:100C30001B2008BF002123D0B0F5803F28BF1F2113
:100C40001ED2A0F58072120C02F008029040A0F5AE
:100C50008051090C01F004018840A0F580431B0C71
:100C6000C2F10E0203F00203521AD21A984002EBAC
:100C7000D032D01D2BFA00F101F0010101EB42014D
:100C8000F16100227261326108EB81007A6822FA18
:100C900001F4E30707D4012404FA01F11143796058
:100CA0000660B0611DE002681F291DBF4908C1F13F
:100CB00019010BFA01F1594600E002465068C008DC
:100CC000C000584518D002F11003C80F03EB800391
:100CD000490018680028F0D13869834204D31E60A7
:100CE000B261F660B66001E000F0F6FC14E100F0DD
:100CF000F3FC0EE18B46A2E6396990688A4228BF70
:100D00008842F1D3C6609660B060F2600020B061A6
:100D1000ECE72DE9F84F06468846716848420140E5
:100D2000491E080B00F01000C1404A0902F00802F9
:100D3000D1408B0803F00403D9404D0805F00205AB
:100D40001018E9401818C1F34004281806F5987ADD
:100D50002044E14009185AF821104868C008C00032
:100D60000D46A0EB080909E001464868C008C0002C
:100D7000A0EB080048453CBF81460D4608690028A5
:100D8000F2D149690029F0D130698542C0F0BF80B5
:100D90006968C90808EB090BC900594518BF00F07C
:100DA0009BFC05EB08008542009080F0B080EF6866
:100DB000AC69AF420CD0A8683169884223D3C268BD
:100DC000AA4204BFB968A9421DD1C760B8601CE03F
:100DD00005F114010F6837B905F110010F68A7B1CB
:100DE00001E011460F6807F114021068002802BFE5
:100DF00007F1100210680028F3D13069814202D354
:100E000000220A6001E000F067FC002C31D0E869A4
:100E10000AEB800001688D4208D107608FB9E8694C
:100E20007168012282409143716022E030698442FE
:100E300005D32169A94214BF6761276101E000F071
:100E40004BFCB7B13069874211D3BC61286930B11E
:100E50003169884226BF3861876100F03DFC6869CE
:100E600038B13169884202D37861876101E000F0CE
:100E700033FCB9F1100F0BD24BF00300291D686051
:100E8000281D51F80B2042F0010240F80B203DE0F4
:100E900048F003012A1D696049F0010042F808008A
:100EA000009941F80990D6F808804FEAD80BBBF1B9
:100EB000200F28BF00F010FCB8F1000F22D006EB85
:100EC000CB00776900F12804A246B8F1100F38BFB3
:100ED00000F002FC306820FA0BF1CA0705D40121AA
:100EE00001FA0BF10843306006E0A06831698842DE
:100EF0002CBF824600F0F0FBA760CAF80C70C7F860
:100F000008A0FC60C6F808900098706104E000F04A
:100F1000E3FB0020BDE8F28F05F10800BDE8F28F89
:100F20002DE9FE4F0546AFF30080F52DDFF89C67F5
:100F300080F004810B2D31BF10250B35ED08ED003D
:100F40003068EC08E04010F0030F46D0C04300F0DA
:100F50000100041906F1280000EBC408E700D8F8E6
:100F600008506868C008C000B84218BF00F0B4FB61
:100F7000D5F80890454508BF00F0AEFB4D4508BFC9
:100F800000F0AAFB6868C008C000B84218BF00F0B3
:100F9000A3FBC84507D13068012101FA04F420EA17
:100FA000040434600DE03069814508D3D9F80C1091
:100FB000A94204D1C8F80890C9F80C8001E000F0FB
:100FC0008BFB47F00300291D6860281DCA5942F0B9
:100FD0000102C25105F10804F8E0B168A94280F0AD
:100FE000BE80002800F0A1804FF0010808FA04F14B
:100FF000490000FA04F4484201430C4060420440B6
:10100000641E200B00F01000C440610901F00801CB
:10101000CC40A20802F00402D440630803F00203AB
:101020000818DC401018C4F3400718183818FC40A2
:10103000241806F1280000EBC40AE700DAF808904B
:10104000D9F80400C008C000B84218BF00F044FB43
:10105000D9F808B0D14508BF00F03EFBD94508BF1C
:1010600000F03AFBD9F80400C008C000B84218BF2D
:1010700000F032FBDA4506D1306808FA04F420EAC1
:10108000040434600DE031698B4508D3DBF80C00B3
:10109000484504D1CAF808B0CBF80CA001E000F034
:1010A0001BFB7F1B45F0030009F10402C9F8040093
:1010B00047F00101515109EB05020192D751B46883
:1010C0004FEAD40ABAF1200F28BF00F005FB34B371
:1010D000CDF800A006F12800756900EBCA0AD346D6
:1010E000102C38BF00F0F8FA3168009821FA00F2AD
:1010F000D30704D408FA00F00843306007E0DAF8B8
:101100000800316988422CBF834600F0E5FACAF82E
:101110000850CBF80C50C5F808B0C5F80CA0B76063
:1011200009F108040198706150E07068C0B3294665
:101130003046FFF7EEFD040011D047E015F1400FF7
:1011400028BF4FF0FF350AD20B35ED087068ED006F
:1011500028B129463046FFF719FC040036D1B068A3
:10116000A8421DD3411B726910290AD3501970611E
:10117000B16041F001034360415045F00305556003
:101180000BE00021B1607161131D40F0030151605B
:10119000111D1C5844F001040C5002F1080415E024
:1011A000F06885420DD2401BB169F0604A19B26106
:1011B00040F00100506045F003054D6001F1080466
:1011C00004E029463046FFF7F7FA0446AFF3008003
:1011D0002046FFF7EEBA002800D170472DE9F0470E
:1011E000A0F10805AFF30080DFF8E06431698D42BB
:1011F000C0F05982686800F00302012A00F05382AF
:10120000C2084FEAC209C20705EB090839D42C68A5
:1012100010F0030F00F04982604205448D42A14462
:10122000C0F041827069854200F0C680E408202C3D
:101230005ED2D5F80CA0AF68554508BF00F04CFA57
:10124000BD4208BF00F048FA6868C008C000B0EBB3
:10125000C40F18BF00F040FA06F1280000EBC400EC
:10126000874205D031698F423FD3FA68AA423CD108
:10127000BA452CD13068012101FA04F420EA0404B3
:101280003460454580F00F82D8F80440E00740F113
:101290000A82A10700F16881B069804540F09F8013
:1012A000F168B5618944C6F80C9049F001006860A6
:1012B00071698D4202D100207061B060F0694845CB
:1012C00080F0F38100213046FFF728FBEDE18245F5
:1012D00006D03069824508D3DAF80810A94204D153
:1012E000C7F80CA0CAF80870CBE700F0F5F9C8E71A
:1012F000EC68AF69AC420BD0A868884222D3C168C1
:10130000A94204BFA268AA421CD1C460A0601BE02D
:1013100005F11402146834B905F1100214689CB187
:1013200001E01A46146804F114031868002802BF8B
:1013300004F1100318680028F3D18A4202D3002177
:10134000116001E000F0C8F9002F9AD0E96906F5B4
:10135000987000EB81000268954209D1046020007A
:1013600011D1E8697168012282409143716088E778
:101370003069874205D33969A94214BF7C613C6159
:1013800001E000F0A9F9002C3FF47BAF31698C42F9
:10139000ABD3A761286928B1884226BF2061846148
:1013A00000F09AF9686900283FF46BAF3169884210
:1013B0009BD36061846164E798F8040000F0030047
:1013C00003287FF45EAFC6F8089049F00101D8F811
:1013D000040040084000C8F8040069600AE0706931
:1013E00080450AD1B16875618944C6F8089049F012
:1013F0000100686045F8099057E1E408E400A14461
:10140000E408202C3AD2D8F80CA0D8F80870D045BF
:1014100008BF00F061F9B84508BF00F05DF9D8F8E1
:101420000400C008C000B0EBC40F18BF00F054F9AE
:1014300006F1280000EBC400874207D031698F42D3
:10144000C0F08580FA68424540F08180BA4507D1F6
:101450003068012101FA04F420EA0404346078E0E1
:10146000824506D03069824571D3DAF808104145CB
:101470006DD1C7F80CA0CAF808706AE0D8F80C4023
:10148000D8F8187044450DD0D8F808003169884262
:1014900023D3C268424504BFA16841451DD1C46041
:1014A000A0601CE008F114010C6834B908F11001C7
:1014B0000C68A4B101E011460C6804F11402106834
:1014C000002802BF04F1100210680028F3D130692F
:1014D000814202D300220A6001E000F0FDF8002FF3
:1014E00037D0D8F81C1006F5987000EB8100026820
:1014F00090450AD10460200012D1D8F81C00716810
:10150000012282409143716023E03069874205D314
:101510003969414514BF7C613C6101E000F0DCF8B1
:10152000BCB131698C4212D3A761D8F8100028B140
:10153000884226BF2061846100F0CEF8D8F81400FC
:1015400038B13169884202D36061846101E000F002
:10155000C3F849F00100686045F8099071698D424F
:101560000BD1C6F80890A0E064086400C8F80440F5
:1015700049F00100686045F809904FEAD907202F2B
:1015800022D206F1280000EBC704A046B9F1100FE3
:1015900038BF00F0A1F8306820FA07F1CA0705D477
:1015A000012101FA07F70743376006E0A0683169B7
:1015B00088422CBF804600F08FF8A560C8F80C5018
:1015C000C5F80880EC6070E05FEA192008BF0021D0
:1015D00023D0B0F5803F28BF1F211ED2A0F5807216
:1015E000120C02F008029040A0F58051090C01F0A5
:1015F00004018840A0F580431B0CC2F10E0203F0E9
:101600000203521AD21A984002EBD032D01D29FAA6
:1016100000F101F0010101EB420106F5987200238F
:1016200002EB8100E9616B612B61726822FA01F3C0
:10163000DC0707D4012303FA01F11143716005604F
:10164000A8611DE002681F291DBF4908C1F11901E9
:1016500009FA01F1494600E002465068C008C0009E
:10166000484526D002F11003C80F03EB8003490060
:1016700018680028F0D13069834204D31D60AA6144
:10168000ED60AD6001E000F027F8306A401E306286
:101690000BD1D6F8C80100E080680028FCD14FF0DB
:1016A000FF30306201E000F017F8AFF30080BDE8D2
:1016B000F087316990688A4228BF8842E3D3C560C9
:1016C0009560A860EA600020A861DEE7D08F042062
:1016D00030BC002070470000012000F053B8F0B487
:1016E0000246106895681318506803EB5004C00751
:1016F0001DD54D441BE013F8017B05F8017B491E05
:10170000F9D1A0B1B60813F8011B06F00306032EA9
:1017100008BF13F8016B01EB06214942801C2944E4
:1017200005D011F8016B05F8016B401EF9D1A342F9
:101730000ED013F8016B16F0030104BF13F8011B60
:10174000C91C30090F28DAD113F8010B0F30D6E786
:10175000F0BC02F10C0070470749086808B100208E
:1017600070470648C008C00008600549C908C9009C
:10177000091A0160704700BF089E042017A20420C8
:1017800010A4042080B5AFF30080024A1100182095
:10179000ABBEFBE72600020030B5DFF8EC4A81B0B3
:1017A0002079E0B901F032FBA06018B94FF0FF30AA
:1017B00001B030BD417ADFF8D45A442241F0200113
:1017C0004172294601F050FAA0684322294601F0EF
:1017D000D0FAA0680022DFF8B81A01F0FDFA2079EB
:1017E00001B0401C2071002030BD10B5446A617901
:1017F000082904D0082200236271A37123810022EA
:1018000004F11C0101F086FDA079FF281CBF401CDB
:10181000A0710120208110BD2DE9F043040083B0A8
:1018200008BF6FF00F0000F0D880656A25B96FF02F
:10183000050003B0BDE8F0836879012804D00121D8
:1018400000236971AB712B814FF420724FF49A71B0
:10185000362001F055FE5FEA000800F09F806979AC
:10186000DFF8247A032906D1A87910B902F0ECF840
:10187000F860F8682860D8F804604FF49A71304630
:1018800002F034F901203070707094F83020B2709A
:10189000286802F047F970606879052812BF0428AB
:1018A0006068F06094F82A1035220223317794F8AA
:1018B0002B00707794F82C10B17794F82D00F07706
:1018C00094F82E1086F8201094F82F00DFF86C1B87
:1018D00086F8F02086F821000120C6F8EC100321DC
:1018E00086F8F100392286F8F210D8F80460032057
:1018F00006F1F00100F056FE228D06F1F00100F035
:1019000058FE0423322206F1F00100F04BFE81461E
:10191000E86902F007F9024606F1F001484600F0D6
:1019200050FE0423362206F1F00100F03BFE814612
:10193000A86902F0F7F8024606F1F001484600F007
:1019400040FE0323372206F1F00100F02BFE397828
:1019500006F1F00206F1F00C1154401C79781FFAE0
:1019600080FE401C83B20CF80E10B978401C80B287
:10197000D154424606F1F00100F0EEFFDFF80C0909
:1019800000940190B8684323DFF8B42A414601F07F
:1019900001F90446404601F015FF01E04FF0FF3425
:1019A000A879FF281CBF401CA871A879062811DA65
:1019B000012202FA00F04FF47A73DFF8DC1B10FB0F
:1019C00003F080B200F2F31080FB0181481100EBBC
:1019D000D07000E078202881204603B0BDE8F08375
:1019E000DFF8B80B30B5046881B0002C4BD0616AC9
:1019F00000291CBF4879002842D0888A60B14A8AF1
:101A0000521C4A8292B2824206D1204600F01AFD50
:101A1000204600F0B6F833E0088AC8B1421E0A82B8
:101A200016D1656A6879012818BF0A2803D00528ED
:101A300018BF042824D1204600F06EFBA98A688ACA
:101A4000081A00EBD0714910012919DB298217E02F
:101A5000C889A8B1421ECA8112D1656A6879012875
:101A60001CBF0A2805280BD1204600F09BFAA98943
:101A7000688A081A00EBD07149100129A8BFE981D2
:101A80002468002CB3D101B030BD000010B5DFF8E0
:101A90000C0B0468002C3ED0606A002838D0018905
:101AA000022902DB491E018132E0012930D10022E6
:101AB0000281606A41790C2918BF062924D00129C6
:101AC0000CD180790528204602DCFFF7A5FE1FE037
:101AD00000F0B8FC204600F054F819E008290AD1BB
:101AE00080790228204603DAFFF77FFE10E000BF6E
:101AF00000F0E5F90CE003290AD18079022820469C
:101B000004DA00F0C7FB03E04FEA040000F023F919
:101B10002468002CC0D110BD30B581B0446A0020CB
:101B2000DFF87C5A2062606295F8230008B1EA6809
:101B3000A26295F82400002812BF2869A06A400814
:101B4000E06295F82500002811BF6869A06AC0EB23
:101B5000C000C00820630869E06195F8261029B12B
:101B6000A86901F0DFFF2062012000E00020E071A1
:101B700095F8270018B1E86901F0D4FF606201B060
:101B800030BD70B5050003D095F83100C10702D40F
:101B90006FF00F0070BD288D6C6AB0F5107F33DBDD
:101BA00034B9342002F0E0F804002DD06C620DE06E
:101BB000207958B1DFF8D0663179481E3071C0B253
:101BC00020B9B06801F00CF90020B0603421204643
:101BD00002F046F9FFF7E0FDB0B90120207195F859
:101BE00031104A0709D46079022804D0022100226A
:101BF0006171A2712281002070BD284600F0ABF80F
:101C000020B1284600F01EFC4FF0FF3070BD0000F0
:101C1000416A81B14A790A2A0AD8DFE802F00C0940
:101C20000906060609090909060000238B7131E33C
:101C300000228A718FE070472DE9F043040083B0E1
:101C400000F08680666A300000F082807279082A8F
:101C500002BF0968F06981427AD10C2A04D00C20B5
:101C600000217071B17131814FF420724FF49A717B
:101C7000362001F045FC5FEA000862D0B079DFF859
:101C8000087610B901F0E0FEF860F8684FF49A7138
:101C90003060D8F80450284601F028FF0120287051
:101CA000687094F83020AA70306801F03BFF6860DB
:101CB0006068E86094F82A1035220423297794F8A4
:101CC0002B00687794F82C10A97794F82D00E8770A
:101CD00094F82E1085F8201094F82F00DFF85C1788
:101CE00085F8F02085F821000120C5F8EC100421CA
:101CF00085F8F100322285F8F210D8F8045003205C
:101D000005F1F00100F04EFC8146F06901F00AFF98
:101D1000024605F1F001484600F053FC424605F149
:101D2000F00100F019FEDFF8640500940190B86836
:101D30004323DFF80C27414600F02CFF404601F01A
:101D400041FDB079FF281CBF401CB07114203081C8
:101D500003B0BDE8F0832DE9F04182B00446656A26
:101D6000002069790629E86104D006200022687104
:101D7000AA712A81002C18BF002D7CD04FF420724C
:101D80004FF49A71362001F0BBFB5FEA000872D075
:101D9000A879DFF8F47410B901F056FEF860F8681D
:101DA0004FF49A712860D8F80460304601F09EFE26
:101DB00001203070707094F83020B270286801F003
:101DC000B1FE706094F82A0035220223307794F82F
:101DD0002B10717794F82C00B07794F82D10F177D0
:101DE00094F82E0086F8200094F82F10DFF84C06A7
:101DF00086F8F02086F821100121C6F8EC0039227F
:101E000086F8F110032086F8F210D8F8046006F185
:101E1000F00100F0C7FB228D06F1F00100F0C9FBD4
:101E20000323372206F1F00100F0BCFB397806F1FC
:101E3000F00206F1F00C1154401C79781FFA80FE74
:101E4000401C83B20CF80E10B978401C80B2D154FB
:101E5000424606F1F00100F07FFDDFF83004009407
:101E60000190B8684323DFF8D825414600F092FE80
:101E7000404601F0A7FCA879FF281CBF401CA871B0
:101E8000A879062815DA012202FA00F04FF47A73D5
:101E9000DFF8041710FB03F080B200F2F31080FBB0
:101EA0000141481100EBD0702881002002B0BDE84C
:101EB000F08178202881002002B0BDE8F081002860
:101EC00000D1704730B583B0416A002968D0002244
:101ED0004FF6FF734A828A6A12F1010F0DD01E324B
:101EE000DFF8585AA2FB055462099A4288BF1A4685
:101EF0008A828A8A0AB901248C82CA6A12F1010F85
:101F00000ED01E32DFF8345AA2FB055462099A4201
:101F100088BF1A4694B204B901224A814A89CA810B
:101F20000A6B12F1010F0ED01E32DFF8105AA2FB1D
:101F3000055462099A4288BF1A4694B204B9012234
:101F40008A818A890A828A894C89944202D30AB199
:101F500000254D81CA790AB10B6A09E00A7F802AFF
:101F6000B4BFFF23C02A03DB6FF07F44009400E07E
:101F700000934B6A01931A0005D1CB69009A134074
:101F800043F0807301934B790A2B04D00A2200247A
:101F90004A718C710C8101AB6A461C3102F005F864
:101FA00003B030BD2DE9F04182B00446656A68791E
:101FB000052804D0052100226971AA712A81002C0C
:101FC00018BF002D00F085804FF420724FF49A71F5
:101FD000362001F095FA5FEA00087AD06979AA4FB5
:101FE000032906D1A87910B901F02EFDF860F86830
:101FF0002860D8F804604FF49A71304601F076FDFD
:1020000001203070707094F83020B270286801F0B0
:1020100089FD70606879052812BF04286068F06047
:1020200094F82A1035220223317794F82B00707728
:1020300094F82C10B17794F82D00F07794F82E10C6
:1020400086F8201094F82F00DFF8F01386F8F020BF
:1020500086F821000120C6F8EC10032186F8F10073
:10206000392286F8F210D8F80460032006F1F00156
:1020700000F098FA228D06F1F00100F09AFA03239D
:10208000372206F1F00100F08DFA397806F1F002FE
:1020900006F1F00C1154401C79781FFA80FE401CA8
:1020A00083B20CF80E10B978401C80B2D15442466D
:1020B00006F1F00100F050FCB8680094432305F1EC
:1020C0001802414600F042FD0446404601F07AFB0A
:1020D00001E04FF0FF34A879FF281CBF401CA87115
:1020E000A8790A2812DA4FF4FA62DFF8AC3410FB50
:1020F00002F080B200F2F31080FB0383581100EB72
:10210000D0702881204602B0BDE8F08128202881C7
:10211000204602B0BDE8F0812DE9F04182B00446CE
:10212000656A6879042804D0042100226971AA71C3
:102130002A81002C18BF002D00F083804FF42072FC
:102140004FF49A71362001F0DBF95FEA000878D08D
:1021500069794D4F032906D1A87910B901F074FCB3
:10216000F860F8682860D8F804604FF49A71304637
:1021700001F0BCFC01203070707094F83020B27017
:10218000286801F0CFFC70606879052812BF042828
:102190006068F06094F82A1035220223317794F8B1
:1021A0002B00707794F82C10B17794F82D00F0770D
:1021B00094F82E1086F8201094F82F009F4986F886
:1021C000F02086F821000120C6F8EC10032186F8E3
:1021D000F100392286F8F210D8F80460032006F1E5
:1021E000F00100F0DFF9228D06F1F00100F0E1F9D5
:1021F0000323372206F1F00100F0D4F9397806F113
:10220000F00206F1F00C1154401C79781FFA80FEA0
:10221000401C83B20CF80E10B978401C80B2D15427
:10222000424606F1F00100F097FBB86800944323A2
:10223000834A414600F08AFC0446404601F0C2FA57
:1022400001E04FF0FF34A879FF281CBF401CA871A3
:10225000A8790A2811DA4FF47A72CF4B10FB02F0FA
:1022600080B200F2F31080FB0383581100EBD070B2
:102270002881204602B0BDE8F08114202881204644
:1022800002B0BDE8F0810000000000207059010894
:10229000212800082DE9F04381B00446656A687979
:1022A000032804D0032100226971AA712A81002C1D
:1022B00018BF002D00F09F804FF420724FF49A71E8
:1022C000362001F01DF95FEA000800F0948069797A
:1022D000DFF86C76032906D1A87910B901F0B4FBB8
:1022E000F860F8682860D8F804604FF49A713046B6
:1022F00001F0FCFB01203070707094F83020B27057
:10230000286801F00FFC70606879052812BF042866
:102310006068F06094F82A1035220223317794F82F
:102320002B00707794F82C10B17794F82D00F0778B
:1023300094F82E1086F8201094F82F003F4986F864
:10234000F02086F821000120C6F8EC10032186F861
:10235000F100392286F8F210D8F80460032006F163
:10236000F00100F01FF9022106F1F0021154401CA7
:102370004FF0400C1FFA80F906F1F00E401C0EF8E9
:1023800009C00423322206F1F00180B200F00AF9FC
:102390008146E86901F0C6FB024606F1F0014846B5
:1023A00000F00FF90323372206F1F00100F0FAF8EC
:1023B000397806F1F00206F1F00C1154401C7978DE
:1023C0001FFA80FE401C83B20CF80E10B978401C36
:1023D00080B2D154424606F1F00100F0BDFAB8686F
:1023E00000944323164A414600F0B0FB04464046A1
:1023F00001F0E8F901E04FF0FF34A879FF281CBF95
:10240000401CA871A8790A2811DA4FF47A72624B3D
:1024100010FB02F080B200F2F31080FB038358112E
:1024200000EBD0702881204601B0BDE8F083142075
:102430002881204601B0BDE8F08300006382536329
:10244000745901082DE9F04383B005466C6A002CED
:102450001CBF6079002800F09B80A16900200191D9
:10246000A061E061206260622063E062A062A082FD
:1024700060822082E081284600F086FA002818BF9A
:10248000002D68D04FF420724FF49A71362001F07D
:1024900037F85FEA00085ED0A079DFF8A47410B9BD
:1024A00001F0D2FAF860F8684FF49A712060D8F819
:1024B0000460304601F01AFB01203070707095F80E
:1024C0003020B270206801F02DFB70606868F06009
:1024D00095F82A1035220423317795F82B00707770
:1024E00095F82C10B17795F82D00F07795F82E100F
:1024F00086F8201095F82F00DFF8481486F8F020B1
:1025000086F821000120C6F8EC10072186F8F100BA
:10251000362286F8F210D8F80460032006F1F001A4
:1025200000F040F88146019801F0FCFA024606F1FD
:10253000F001484600F045F8424606F1F00100F08F
:102540000BFAB8680095432301AA414600F0FEFA51
:10255000404601F037F9DFF8F01328460B460A46EB
:1025600001F023FD607918B100216171A171218111
:10257000207968B1DFF8C8532979481E2871C0B2A4
:1025800020B9A86800F02CFC0020A860002121716F
:1025900003B0BDE8F0830000D34D6210B09D04206D
:1025A000FC9C04200A54401C82B2401C8B5480B214
:1025B0007047130A0B54401C83B2401CCA5480B2AB
:1025C0007047E0B5130E150C0B54401C86B2401C2E
:1025D0008D55170A1FFA80FC401C01F80C701FFA79
:1025E00080FE401C01F80E2080B2E0BD2DE9F04FC6
:1025F0000023DFF8581387B0C1E9003342892C2A41
:10260000C0F0E7800289F0260590039303E00122E1
:1026100003926C26EC22059C002C00F0DA80608985
:102620008642C0F2DB802468361A121AB6B2002C39
:1026300000F0CF8060898642A1BF361AB6B2121A66
:102640002468E9DACAE06068029001998D4280F25C
:10265000CC800298405DFF2800F0C78005F1020899
:102660001FFA88F1A9424FF0FF36C0F2B2806389A9
:102670006A1C9A4203DA02992944497803E02168E6
:1026800009B14968097802000F464BD001280ED0E5
:10269000032824D0332827D0342829D035282ED019
:1026A000362830D03A2832D03B2834D037E00429BD
:1026B00040F08A8006264819801CB0F5803F80F2E1
:1026C00088804D19AD1C002FADB26DD000209F4900
:1026D0009F4A009001EB060902EB860A3FE00427BF
:1026E000042971DB0726E6E704296DD10326E2E71A
:1026F000012904BF0498F02866D10026DBE70129F0
:1027000062D10126D7E704295ED10226D3E7042946
:102710005AD10426CFE7042956D10526CBE7002756
:102720000028C8D16D1CADB23EE0791007EB917264
:102730009210B7EB820047D101213F1F09F8011B1E
:102740000098FFB201F0EEF94AF8040B08F104001A
:1027500081B21FFA88F841453BD38046761C99F830
:10276000000008BB042F1FFA88F369462046B4BF57
:10277000BB464FF0040B5A4601F01FF9584528D1CB
:10278000042FD2DC03D1009801F0CCF903E0012F33
:102790001AD19DF8000000906D48012100F120023F
:1027A0009155009B40F8263060898542FFF64DAF79
:1027B000019A2D1AADB2101A80B28542019008DA42
:1027C0002468002C7FF43FAF6FF0050007B0BDE830
:1027D000F08F6FF0010007B0BDE8F08F92B2636830
:1027E00035460496019202932FE7594A92F8201039
:1027F00059B11068002382F8203001283FF409AF56
:10280000022804D003283FF402AF039820B100212E
:102810002C2603916C22FEE607B0BDE8F08F000085
:102820004C48F0B5466881B015466968746A002C5A
:102830001CBF2079002857D06A892C2A54DB0878DD
:10284000022851D15FF0000096F83020904251DA12
:1028500006284FD232180F1892F82A303A7F934246
:1028600004BF401CC0B2EFD03EE003281CBF0428C8
:10287000052839D139463046FFF74EF93046FFF783
:102880001EFB31E006281BD16079032818BF012800
:1028900003D0042818BF052826D1706A41790C2975
:1028A00004D00C22002342718371038126493046F3
:1028B0000B460A4601F079FB3046FFF74CFA13E06D
:1028C000022804BF607906280ED191F82200746AAC
:1028D00050B100222281886801F024F9A061386992
:1028E000E0613046FEF798FF284601B0BDE8F040B1
:1028F00000F068BF486801F015F921688842F3D1FB
:1029000021462846FFF772FE0028EDD1104991F8C4
:1029100021000028E8D008796F680528B2D16079D5
:102920000128A2D139463046FFF7F6F896F8310073
:1029300001073046A3D5FEF758FFD5E78988888878
:102940000000002063825363705901081C9D04201D
:10295000FC9C04206C9D042010B481B0FF230B5418
:10296000401C83B2442B02D310F0030F05D0442B3C
:102970003EBF002384B20B55F2D3F03081B201B0D8
:10298000104610BC00F07ABE00281CBF406A002828
:1029900007D040790A281CBF0528042801D101204E
:1029A00070470020704730B4002513E050F8042B26
:1029B000D30744BFA9F101039A18091F042942F85B
:1029C000045BFAD213468C0744BF15809B1CC907D1
:1029D00048BF1D7050F8041B0029E7D130BC704778
:1029E00000B581B001F030F8C0F30D00A0F58040D3
:1029F000DFF8841401B0088000BD00002DE9F04725
:102A000082B08146B9F80A000C4608286EDBDFF870
:102A10006C64D9F804503168706901F085FB824616
:102A2000288801F079F88046688801F075F88646B4
:102A3000DFF844C400230021DCF8040026E0002A6B
:102A40001CBF756915F1010F1FBFA7683A403D40D3
:102A5000AA4232D018E000BF5FEA0A020BD07269C6
:102A600012F1010F07D162680D68954203D0076823
:102A7000974200D10146828A424505D14268002A28
:102A80001CBF3569AA4256D00346C068002833D01F
:102A9000428A7245F8D1027A32B1756895F834707D
:102AA0007F1CFFB2BA42EFD15FEA0A020268C6D1C8
:102AB000002A1CBF7569AA42E6D1027C5707DAD406
:102AC0000029C9D1D6E7BAF1000F0FD1307D00F04F
:102AD000F000E0280AD0B6F90C104846083109B2D7
:102AE00000F06EFE0321484601F050FC484602B05B
:102AF000BDE8F04700F066BE20460C0003D14068F8
:102B000071698842F2D10821484600F03AFE002857
:102B1000ECD1002CD7D0D4F818A0BAF1000FE5D032
:102B2000CDF80080E06906F110034A462146D047FF
:102B300002B0BDE8F087002B0446E4D0E068D8601E
:102B4000DCF80410E160CCF80440DCE7002870B544
:102B500082B018BF002904D0002A1CBF069D002D9A
:102B600003D16FF00F0002B070BD0468002C1ABFD3
:102B700004F0F006E02E2C1D06D06E68B44218BF9B
:102B80006FF0030004D104460194009500F002F8B0
:102B900002B070BD2DE9F04F060083B099460CD00D
:102BA0000D0018BF5FEA020B07D0DDF83480B8F1E2
:102BB000000F1CBF0C9F002F04D16FF00F0003B05B
:102BC000BDE8F08F708A38B900223146304600F0F7
:102BD0004BF80028044642D1288900F1080189B247
:102BE00081420DD30821284600F0AAFDA0B14FF480
:102BF00020720821222000F083FC5FEA000A04D141
:102C00004FF0FF3003B0BDE8F08F288928B1294686
:102C1000504600F053FE00E0AA46708ADAF80440FD
:102C200000F07AFF2080484600F076FF60800020A8
:102C3000E080BAF8080000F06FFFA0801120029732
:102C40005A460190B17A50460091F37A414601F01C
:102C500019FD0446AA451CBF504600F0B3FD2046AE
:102C600003B0BDE8F08F00002DE9F041034601B943
:102C700083491BB96FF00F00BDE8F0817E4C002640
:102C8000D4F804804046002837D0834234D0C0684E
:102C900098B3834230D0C06878B383422CD0C068E8
:102CA00058B3834218BFC068EDD125E0C44608463A
:102CB000BCF1000F5BD0634512D0BCF81210B942D2
:102CC0000ED10268DCF80010914218BF002818BF2E
:102CD000002A48D0BCF1000F18BF002900F0438043
:102CE000DCF80CC0E4E718605F8216B9C3F80C800A
:102CF00063600020BDE8F081012617463800D5D179
:102D000000254FF4404C4FF6FF722788781C9742FD
:102D100008BF6046208040462788C0B1B0F812E066
:102D2000BE451BD0C06890B1B0F812E0BE4515D0CA
:102D3000C06860B1B0F812E0BE450FD0C06830B1D5
:102D4000B0F812E0BE4518BFC068E6D106E0380012
:102D500009D000290CBF00200868C4E76D1CA8B288
:102D6000B0F5804FD1DB6FF00700BDE8F081014680
:102D7000EFE770B504000D46164618BF002D02D1CE
:102D80006FF00F0070BD608A30B9002221462046E6
:102D9000FFF76AFF01001ED1217C28686060A682CF
:102DA00041F00401217434494A68104680B18442DC
:102DB00010D0C06860B184420CD0C06840B1844279
:102DC00008D0C06820B1844218BFC068EED101E0CD
:102DD000E2604C60002070BD08B18161C261704743
:102DE000010012D0244842688A4203D1D26842606E
:102DF00008E0024632B1D0680028FAD08842F8D103
:102E0000C868D060002001F0DFBC704710B500201A
:102E100001F0C6FC040004D0202100F067FEFF2072
:102E2000E072204610BD10B5002001F0B9FC04008E
:102E300004D0202100F05AFEFF20E072204610BD91
:102E4000002800D1704730B40368002B18BF002958
:102E50000FD00A68002A1EBF074B5A68002A08D004
:102E6000146803689C4204BF0D681560D268002A8C
:102E7000F6D130BC70470000480000206C9D042053
:102E80007059010870B5DFF81C660A24DFF818567F
:102E9000307868B336F8020C401C26F8020C80B279
:102EA000B0F5967F06DA307801280ED136F8021C8C
:102EB00005290ADB56F8140C20B100F083FC002031
:102EC00046F8140C0021317012E0032802D10420CE
:102ED00030700DE0042802D10221317008E0012891
:102EE00006D156F80C0C2A46A6F1100100F091FA12
:102EF0001836641ECCD170BD2DE9F24F4FF00A0E8A
:102F0000F1460024CC460A26A04600250023DFF81F
:102F10009C750146B8780FFA8CFABAF10A0F04BF13
:102F200000289C4624D018B359B1D1F800A057F816
:102F30000EBCDA4505D1002A1CBF57F80AAC524531
:102F40005ED001280ED157F8120C0028388804D022
:102F5000A0420DD31E4604460AE0404508D39E46D3
:102F6000804605E004DD3888A84224BF994605461E
:102F70005B1C18370A2BCDDB9DF8003030460C4621
:102F8000904649469E0705D40FFA8CF60A2E06D1C4
:102F9000DB0707D44FF0FF3001B0BDE8F08F0FFA28
:102FA0008CF91CDB09B20A29B8BF894609DB0FFA84
:102FB0008EF20A2AB2BF91460FFA80F9B9F10A0FD0
:102FC000E8DA09EB4900DFF8E854C600A85918B15F
:102FD00000F0F8FB0020A8510021AA191175DFF8B4
:102FE000D03409EB490003EBC0000CB1216841600B
:102FF0000022C0F808804282484601B0BDE8F08F48
:1030000018B201B0BDE8F08FF0B50C0081B00646F3
:1030100015461F461CBF2068002808D0314601F025
:1030200083F820B9207800F0F000E02803D16FF099
:103030000F0001B0F0BD324639462046FFF75CFF75
:10304000002848BF40B221D4DFF8641400EB4002EE
:1030500001EBC2070223062229463B75BE6007F139
:103060000C0001F0E1FB3C68002078826CB1386014
:103070004FF4006000902B4606F12A0221463046AC
:1030800001F078FC204600F09DFB002001B0F0BD6F
:1030900070B50546DFF818640A24307D50B1B16878
:1030A000A94207D1306818B100F08CFB00203060D5
:1030B000002131751836641EEFD170BD2DE9F04145
:1030C0000C0084B0804675D0D8F804603088B0F524
:1030D000807F04BF3179062969D17079042804BF43
:1030E0007188082963D106F10E0001AA016802ABBC
:1030F000116006F1180108681860606828B102992B
:10310000814202D10125012301E00025022306F1BD
:10311000080201A92046FFF777FFF388B3F5807F07
:1031200007D0B3F5007F02BF01A92046FEF784FD5A
:103130003DE0002D3BD04FF420721C210E2000F00A
:10314000DFF9050033D06F68022000F0E5FC0622AD
:1031500004F12A01F88007F1080001F065FB06225E
:1031600006F1080107F1120001F05EFB201D07F1D6
:103170000E01026807F118030A6001AA106808210D
:1031800018604FF4807038800622798004233A71E9
:1031900040F606007B7106F10803009004F12A0254
:1031A0002946204601F0E6FB284600F00BFB40468E
:1031B00000F008FB04B0BDE8F08170B504460D4690
:1031C000BB4802EB420100EBC10682B0327D022A0D
:1031D00017D1708A40F21D13984206DBB24A311DA6
:1031E000204600F016F960B909E0B0F5877F08DBEA
:1031F00006F10C02311D204600F00BF908B903203E
:1032000030754FF4006106F10C03009104F12A02BD
:103210002946204601F0AEFB02B070BDF0B583B088
:1032200004460D46164630682146374600F07CFFBE
:1032300058B19D4B4FF4006004F12A0200902946DA
:10324000204601F097FB03B0F0BD306800F0F001BC
:10325000E02915D1012200235E218DF804208DF88C
:10326000053001AB8DF80610727802F07F028DF800
:103270000720B1788DF80810F2788DF80920D9E789
:10328000A168636801EA000219408A421EBF80B249
:103290004FF6A961884203D0E068D8B104F10C0769
:1032A000834890F8F02002EB4203D90043181E7DBA
:1032B000022E13DB00F1080C5CF80110A14202BFE2
:1032C0003E685B689E4209D129462046FFF775FF9C
:1032D00003B0F0BD6FF0030003B0F0BD0022014663
:1032E0000B7D022B07DB8E68A64202BF3B68D1F83C
:1032F00004C063450AD0521C18310A2AF0DB2A4662
:103300003946204600F006F803B0F0BD80F8F02002
:10331000D2B2D9E72DE9F04F81B04FF0FF38054622
:103320000F46386814462946C14600F0FDFE38B9FC
:10333000386800F0F001E02918BF002F00D020B954
:103340006FF00F0001B0BDE8F08F2A46012138462A
:10335000FFF7D2FD002848BF40B242D45FFA80FB9D
:10336000DFF84CA10BEB4B010AEBC106307D18B91D
:1033700001223275B56000E034B94B4A394628461F
:1033800000F047F881465CB3307D02280EDB4FF435
:1033900000608AF8F0B0009006F10C0305F12A02F3
:1033A0002146284601F0E6FA814619E0012817D1A6
:1033B000204608B3017B4A0616D40068E0B1017BC1
:1033C0004A0611D40068B8B1017B4A060CD40068E3
:1033D00090B1017B4A0658BF0068EAD504E0C146B7
:1033E000484601B0BDE8F08F22464FF420710E2010
:1033F00000F019FB044602E0204600F026FA002CFB
:10340000EDD0306808B100F0DDF934604FF000090C
:10341000E6E72DE9F04106460F46904682B04FF4AC
:1034200020721C210E2000F06BF8040008BF4FF042
:10343000FF3031D06568012000F06EFB062206F1F6
:103440002A01E88005F1080001F0EEF90622194989
:1034500005F1120001F0E8F9301D05F10E010268D6
:1034600006230A6005F118023868082110604FF43D
:10347000807028800422698040F606002B71434644
:103480006A7106F12A0200902146304601F072FA74
:10349000204600F097F9002002B0BDE8F081024A12
:1034A000B7E7000058960420C44900085696042047
:1034B000449604206059010800B581B001F071FB09
:1034C00000215C4A117001F077FB5B480068A8B1ED
:1034D000416F71B9C06888B1416F51B9C06868B1B6
:1034E000416F31B9C06848B1416F002908BFC06859
:1034F000EDD001B05DF804EB02F086BA01B000BD7A
:103500002DE9F0411746012F06460D4618BF412F01
:1035100008D0B7F5C17F17D0B7F5207F66D000205F
:10352000BDE8F0810B2001F03BF908B9BDE8F0815E
:1035300000210160416005814581077301224173CB
:103540008273C173BDE8F0810024A0460C2001F015
:1035500027F940B3F11C4FF6FC721140C1F514710C
:10356000AAB28BB206449A4206F1100E0EF1030E77
:103570004FF0000C4FEA9E0E38BF2946C0F800C03D
:103580004FEA8E0E01230026002CC0F804E00581CE
:103590004181077380F80DC08373C6730CBF044666
:1035A000C8F800001AE001F0FCFA224D01212E7843
:1035B000297001F001FB56B90021204802F0D0FA31
:1035C00028B101F0EEFA0021297001F0F5FA14B1EA
:1035D000204600F0F7F80020BDE8F08180466D1A23
:1035E000A8B20028B2D12046BDE8F081F21CC91C67
:1035F00092088908920002EB810202F1100092B257
:10360000B2EB810F24BF82B2B2EB810FE3D380B261
:1036100000F0AAFB0028DED000210160811901F131
:103620001002D21C9208920042600021058145815F
:10363000077383E70C9E04203C000020B934000887
:10364000C01C800830B4039C01EB8005AC4238BF3D
:10365000002011D3029C002C14BF04EB800000203A
:1036600000241C605860022019815981012158737F
:1036700018461A739973DC7330BC704730B581B04B
:10368000044620890D46814232D26389401B80B2B4
:10369000AB4212DA22896189121A228124686D1ADA
:1036A000ADB26189A94208DA6D1A2189ADB2091A51
:1036B000218124686289AA42ECDB207B10F00F0F85
:1036C0000DD161898D420AD0627B930707D461686E
:1036D0002046091B691889B200F0DCFA04466581AE
:1036E00062892281206808B100F06CF80020206017
:1036F00001B030BDF0B498B1B1F5803F10D2E1B166
:1037000003898DB25B189CB2AC4209D3067B3706A5
:1037100009D542684C4200F110052244AA4207D262
:103720000120F0BC7047002AFAD042684C42224483
:10373000458942600381491941810020F0BC7047EE
:1037400070B4D8B1B1F5803F18D2A1B102898CB262
:10375000521893B2A34211D3057B2E060ED54368AF
:103760004C4200F110052344AB4207D34689436025
:10377000028189194181002070BC7047012070BC12
:10378000704720B438B1B1F5803F04D271B143899C
:103790008AB2934202DA012020BC70479B1A456826
:1037A00043810389294441609A1A0281002020BC88
:1037B00070470B0058BFFFF79DBF5B421946E0E71B
:1037C0000122F6E770B5040001D1002070BD00258C
:1037D00001F0E7F9A17B4E1EA673F6B201F0ECF9F9
:1037E000F6B9617B207B26688A0700F00F0003D5BD
:1037F00023692046984710E0022802D121460C2078
:1038000004E0012805D121465FF00B0000F0DCFF49
:1038100003E010B9204600F0BDF96D1C3400D7D18B
:10382000E8B270BD0146002069B10968401C51B181
:103830000968401C39B10968401C002903D0096897
:10384000401C0029F1D180B2704710B5040008D0A7
:1038500001F0A7F9A17B491CA173BDE8104001F05C
:10386000ABB910BD020018BF002926D01068F8B10E
:1038700013890889C318138112681068C0B11389AD
:10388000B1F808C0634413810246106880B11389FF
:10389000B1F808C0634413810246106840B113892F
:1038A000B1F808C063441381024610680028DFD1D4
:1038B00013890889C318138111607047020010B57D
:1038C0000C4626D07CB31068E8B1118920894118D4
:1038D000118112681068B0B11189238959181181BA
:1038E0000246106878B1118923895918118102465E
:1038F0001068002807D011892389591811810246C0
:1039000010680028E1D111892089411811811460C3
:1039100000E044B101F045F9A17B491CA173BDE869
:10392000104001F049B910BD2DE9F04105460026CF
:1039300000270C46002D18BF002C36D0288921897D
:10394000884232D3B4F80A806A89A8EB0708616814
:103950006868921B90453944304488BF904642467F
:10396000474400F061FF628968894644974224BF5A
:1039700000272468864202BF00262D68002D12D041
:103980002CB161892289914201D1206888B92DB179
:1039900069892A89914201D1286850B9002CD1D176
:1039A0000020BDE8F081002CFAD06FF00F00BDE8D8
:1039B000F0816FF00500BDE8F0812DE9F043064687
:1039C00089460024002E81B01746A04618BFB9F1E1
:1039D000000F24D1002001B0BDE8F083758998B2B2
:1039E00050B1A84208D35B1B3668002EF6D11FFAEF
:1039F00088F001B0BDE8F083ED1AADB2B8B2A842CC
:103A000070689BB2B8BFBDB22A46A844C118A0B224
:103A100048442C1900F008FF7F1B00233668B8B219
:103A20000028E4D0E1E730B5154681B00A4629897F
:103A3000FFF766FD040008BF002003D02946FFF70A
:103A400073FF204601B030BDF0B5244C244A2078E5
:103A5000244B6FF0004150BB0820656803FB05252F
:103A60000E46B5FBF6F601FB1655401E6560F4D117
:103A70001D4D2E461020676803FB07278C46B7FBB9
:103A8000FCFC01FB1C77676046F8047B8E4603FB59
:103A90000727B7FBFEFE01FB1E776760401E46F856
:103AA000047BE8D1E86FC5F88000012525706068C7
:103AB00003FB00220B46B2FBF3F301FB13210A4A7E
:103AC000616092F8803003F01F0352F82300C2F8BF
:103AD000800042F8231020F04040F0BDD4010020C7
:103AE0005FF36E3C0D661900E09A0420002202F09C
:103AF00095B8B1F5807F02D34FF0FF307047017069
:103B0000012070470A780260087800E00078401EC3
:103B10008041C043C00F70470146000A40EA0120BF
:103B200080B270470146080200F47F000A0A40EAAA
:103B3000016002F47F42104340EA1160704703685D
:103B40001AB95A1E026008467047197811B94FF029
:103B5000FF307047591C016018787047BF48002338
:103B600000F10F01890820B4890081B001604FF491
:103B7000C8624B8001250B7101F5C8630A80436060
:103B80001D711A805A8001B0816000F5CC6020BCA4
:103B900000F0D2BF2DE9F04D5FEA00086ED018F0BA
:103BA000030071D1AD4EA8F108053068854222BFEF
:103BB000716808F10C02914266D306F5CC6000F002
:103BC000CFFF18F8040C00285AD040F2416B31683E
:103BD00038F808EC38F8064C6B1A98B2DE4538BF56
:103BE0005C4501EB0E0C01EB040A49D284421CBF78
:103BF000BAF800E0864543D1D6F804E0F4451CBF8E
:103C0000BCF802C084453BD1002008F8040CB4681D
:103C1000A54238BFB56038F8087C0F44BD4211D0CA
:103C2000387978B977450DD0D6F808C0BC4508BFBB
:103C3000B560388828F8080C3888B0F5C86F1CBF04
:103C40008F1C3B5238F8063C0B44AB4210D018791D
:103C500070B9B768AF4208BFB36038F8080C188075
:103C600038F8080CB0F5C86F02D05A1A891C0A52ED
:103C700006F5CC60BDE8F04D00F077BFBDE8F08DF3
:103C800006F5CC6000F071FF00F08BFFBDE8F04D51
:103C900000F092BF2DE9F0418046CD1C4FF6FC703C
:103CA00005400C2D32BF0C2540F24162954219D2DD
:103CB0008D4217DB694E3768B84502D37168884575
:103CC00004D300F06EFF00F077FF4AE038F8081CDC
:103CD000A8F10800C71BBFB2C91BA1F10804A4B218
:103CE000AC4202DA0020BDE8F081A54239D006F5E9
:103CF000CC6000F035FF38F8082C31680A441079A0
:103D000088B9ED190835D6F808C0ADB24B1910883E
:103D1000944508BFB360002218801A715F8028F8AC
:103D2000085C188814E005F11400844215D3ED19DD
:103D30000835B368AAB28818984238BFB06000222C
:103D4000027138F8083C4780038028F8085C008836
:103D5000B0F5C86F1CBF891C0D5206F5CC6000F091
:103D600004FF4046BDE8F0810100F0B581B069D0A4
:103D7000C61C4FF6FC710E400C2E38BF0C2602D329
:103D8000B6F5C86F5ED886425CDB344DC6F5C867B1
:103D900005F5CC6000F0E4FEAA682B68D11A89B260
:103DA00002E000BFBCF80010B94247D203EB010C9F
:103DB000644620790028F5D12088401A0838B0429E
:103DC000F0D306F11407B84216D376180836B0B20D
:103DD00018444FF0000C80F804C0B4F800E04180B3
:103DE0000121A0F800E0268021710088B0F5C86F9D
:103DF00004D01844468001E001202071944225D16E
:103E00006E68117909B3B2421FBF12889A181079EF
:103E100000281AD0B2421FBF1788DA191179002979
:103E200013D0B2421FBF12889A18107900280CD004
:103E3000B2421CBF11885A18E3D106E005F5CC60E8
:103E400000F093FE002001B0F0BDAA6005F5CC6043
:103E500000F08BFE04F1080001B0F0BD08750420ED
:103E6000002201F00BBF0268531C03601170704701
:103E700070470000F0B5040081B02FD0079E3000DD
:103E80002CD009B9DFF898120AB9DFF894220BB9DF
:103E9000DFF88C3208980027069D6760BC46BE4656
:103EA0000FF22527C4F808C0676104F12407C4F89D
:103EB0000CE0A4F828C084F831E0C7F800C02562FF
:103EC000DFF86052C4F81CC02F782061204684F8C7
:103ED000347000F06AF82046B04738B3002001B0D3
:103EE000F0BD00BF90F834208A421BD0006848B370
:103EF00090F834208A4215D0006818B390F8342026
:103F00008A420FD00068E8B190F834208A4218BF86
:103F1000006815D106E028706868206020466C6053
:103F200001B0F0BD491C84F8341058B194F8340045
:103F3000FF2804BF002184F83410686894F8341016
:103F40000028CFD194F83400FE280CBF0020401C7C
:103F5000E1E770B582B005460C46696820681646F0
:103F600088421FD000906B6833606946304601F08C
:103F70001DFD69463046FEF763FF95F83110002CB1
:103F800001F005020CBF00202068052A686006D1F8
:103F900028B1090703D5291D2846FFF780FA01201B
:103FA00002B070BD002002B070BD2DE9F0410C00E0
:103FB00082B0074616461D4608BF594C06B9584EF2
:103FC00005B9574D002C1CBF2368002B06D16A464B
:103FD00021464FF00108FFF7BCFF01E04FF0000859
:103FE0003068B968884202D006B90020B8602868F5
:103FF000F968884202D005B90020F860B8F1000FD6
:1040000004D16A4621463846FFF7A3FF02B0BDE857
:10401000F08144498860704790B190F83120D10711
:104020000ED442F0010202F00503052B80F8312086
:1040300006D1416821B1120744BF011DFFF72FBA15
:10404000704758B190F83110CA0707D501F0FE014A
:1040500080F83110090748BFFFF71AB8704710B54C
:1040600004001ED094F8310041071AD440F0040037
:1040700084F831002046FDF7CBFD94F8311001F0B3
:104080000502052A07D1606828B1090703D5211D5B
:104090002046FFF704FAE16919B12046BDE8104057
:1040A000084710BD58B190F831104A0707D501F004
:1040B000FB0180F83110C169002918BF084770471B
:1040C00000B1C161704700006FF00B007047010044
:1040D00023D01448406800B390F834305B1CDBB246
:1040E00099421BD00068C0B190F834305B1CDBB241
:1040F000994213D0006880B190F834305B1CDBB279
:1041000099420BD0006840B190F834305B1CDBB2B0
:10411000994218BF0068DED1704700207047000048
:1041200070590108AC9D0420C24318BF002810D06C
:1041300091F8312093070ED54A6890420BD08968D8
:1041400001EA00030A40934202BFC9430840884283
:1041500001D1012070470020704700002DE9F04791
:1041600084B0824689466F469AF800600DF10C08CB
:1041700005E0474554D247F8044B1AF8016FA6F101
:1041800030000A284CD200240A25302E0ED11AF80D
:10419000016F782E14BF582E102505D0082505E094
:1041A00005FB0466A6F130041AF8016FA6F1300091
:1041B0000A28F5D3102D4AD1A6F16101062922BFA4
:1041C000A6F14102062A0A2841D2304601F06FFDCD
:1041D000002814BF612041200A36361A46EA04142A
:1041E000E2E7B4F5803F3FBF0098B0F5807F0198CB
:1041F000B0F5807F14D20099000440EA01600443C6
:1042000019E0B4F5807F3CBF0098B0F5807F07D2FD
:104210000199B1F5807F3CBF0298B0F5807F03D350
:10422000002004B0BDE8F087009A090441EA026169
:1042300041EA00210C43B9F1000F04D02046FFF7FA
:1042400071FCC9F80000012004B0BDE8F0872E2EF3
:104250008FD026B1304601F034FD0028E0D068460A
:104260003F1ABF107F1C042FE5D8DFE807F00603D4
:1042700007050400DFE7C4E7B3E7D1E7B4F1807FC7
:104280003CBF0098B0F5807FCAD244EA0064D2E710
:104290002DE9F0433C4E83B0D6F808900546884699
:1042A00099F80070BF0007F03C07142F66DB68899F
:1042B000042863D369680A78082A5FD1706900F01E
:1042C000F003E02B5AD03168FFF72EFF002855D1BC
:1042D0002889082852D307F10E0421462846FFF703
:1042E0002FFA48B3288939188AB2824246D34FF44C
:1042F000207289B20E20FFF703F904003ED06089D6
:1043000007F1080188420ED360683A46494600F03A
:104310008BFA39462046FFF734FA20B92946204661
:10432000FFF702FB18B12046FFF74CFA26E02846BB
:104330002546FFF747FA04E021462846FFF721FA11
:10434000E0B96C6839462846FFF7FAF9B0B96868F1
:104350007169FF23C160326902610021217000226E
:104360006180FF240472428101200190284600915F
:1043700006F11401CDF8088000F070F9284603B06A
:10438000BDE8F043FFF71EBA6C9D04202DE9F04113
:104390000746884684B04FF4207224212220FFF77C
:1043A000AFF8040022D065687E68032000211C223B
:1043B000287085F80180A980E980606879680830F4
:1043C00000F032FAF068039003A800F045F850B10D
:1043D0000021FF23698003AA02900120019020465A
:1043E000009100F03BF92046FFF7ECF904B0BDE87E
:1043F000F0812DE9F0410746884684B04FF42072E1
:1044000024212220FFF77CF8040022D065687E6812
:104410000B2000211C22287085F80180A980E980EA
:1044200060687968083000F0FFF9F068039003A82D
:1044300000F012F850B10021FF23698003AA029016
:10444000012001902046009100F008F92046FFF776
:10445000B9F904B0BDE8F08170B4B44904680A68E1
:10446000BAB192F8313003F0050105290CD1516839
:1044700051B1956805EA040629408E421BD0990780
:1044800002D4D3689C4216D01268E9E7084670BC93
:104490007047A749096859B191F8313003F0050315
:1044A000052B05D14A68002A1CBF00787F28EDD172
:1044B000002070BC7047104670BC70472DE9F04377
:1044C00081B005466E68884696F800904FEA19104C
:1044D00004284CD170884FEA890909F03C09FFF79C
:1044E0001BFB29890446884203D221462846FFF750
:1044F000C5F8688948453ADB2989A14237D3B9F123
:10450000140F34DB30698B4F7861F0687A69386159
:1045100098F8310002F0F001E02906D1C20702D577
:10452000D8F80400A0B900243CE0C00709D5D8F8A9
:10453000040030B182420BD041461046FFF7F4FD33
:1045400030B9387D00247F282CD078490C6827E0CA
:104550005FEA080426D0386940B14146FFF7E4FD20
:1045600028B9387C00F0F000E02800D02CBB2846A9
:10457000FFF728F9002001B0BDE8F08344450ED0D4
:1045800094F83100C1070AD5606840B17A69824267
:10459000E1D021461046FFF7C7FD0028DBD1246893
:1045A000002CEBD1707A112802BFB11C31F8092020
:1045B000B2F5884FCFD14446D8E7F0884FF63F7127
:1045C000084209D0284601F09FFC050003D10020D5
:1045D00001B0BDE8F0836E683C602846C7F80480EF
:1045E000BE603178890001F03C01B9814946FFF78E
:1045F000C8F8707A01280DD0062806D011280ED1EF
:1046000041462846FEF7FAF91EE04146284601F0E9
:1046100053FE19E041462846FFF73AFE14E0786958
:104620002146FFF781FD60B9387D00F0F000E028F9
:1046300007D049462846FFF7C3F802212846FFF76E
:10464000A5FE2846FFF7BEF8002001B0386078606C
:10465000B860B88138617861BDE8F08370B584B026
:104660000C460A9E22B100291ABF09680029341D90
:104670000999089D019121460296009500F002F8E3
:1046800004B070BD2DE9F0415FEA020882B0064631
:104690000D461C4628D01421FFF752F838BB776826
:1046A0000998089945223C72234C7872D8F800008A
:1046B00038613A7079703089FFF72EFA78800020DF
:1046C000F8802088FFF728FAB8802088401C2080D6
:1046D0002DB91A4908680021F860798110E02A682C
:1046E0000021FA6079810BE07089142804DA6FF0F8
:1046F000010002B0BDE8F0817168E84608690090E9
:104700000A9B188D50B13189884207D2424619461A
:10471000304601F003FD02B0BDE8F08118465B6948
:1047200042463146984702B0BDE8F081B09D042072
:10473000B49D04206C9D0420369704207059010814
:10474000F0B400BF2BA50D242B6800209A681060E0
:104750005E685888F61CB608B600E0B110F0030198
:1047600007D01768491E37601660B3F800C066446A
:10477000F7D180080FD01168316016601F88F119D9
:104780000E60CE1911603160F11916600E60CE19FD
:10479000401E1160EFD12D1D641ED5D1F0BC7047B5
:1047A0000D2810B501DB002010BD00BF11A151F88C
:1047B000204000F0F6F9A1680C680CB122680A608C
:1047C00000F0FAF9204610BD0D2830B581B00C4636
:1047D0000EDA6CB107A151F8205000F0E2F9A96897
:1047E0000A6822600C6001B0BDE8304000F0E4B916
:1047F00001B030BD305701083C5701084857010847
:1048000054570108605701086C5701087857010890
:1048100084570108905701089C570108A8570108C0
:10482000B4570108C057010862B38B0708D0521E65
:1048300011F8013B00F8013B00F024808B07F6D112
:10484000830740F0208000BF103A07D330B4B1E8AE
:104850003810103AA0E83810F9D230BC530724BF02
:10486000B1E80810A0E8081044BF51F8043B40F834
:10487000043BD20724BF31F8022B20F8022B44BF9F
:104880000B7803707047121F17D35B0009D151F8E2
:10489000043B20F8023B1B0C121F20F8023BF6D20F
:1048A0000BE051F8043B00F8013B1B0A20F8023BE7
:1048B0001B0C121F00F8013BF3D238BF121D521E11
:1048C00024BF11F8013B00F8013BF8D87047000005
:1048D00070B504460D4661890F2946DBE07B18B9A7
:1048E00095F83410491CE17363681878C1079E89F4
:1048F00017D501280AD15878002804BF99785E2975
:104900000FD1637B43F0100363730AE05FF006028C
:104910002CA1184602F0A8FD18B9607B40F00800F1
:104920006073082E03D0B6F5C16F0FD01DE095F867
:104930003110080719D50E212046FEF722FFA0B935
:1049400029462046FFF7BAFD002070BD95F83100DA
:1049500001070AD50E212046FEF713FF28B9294684
:104960002046FEF7ABFB002070BD2046FEF72AFF75
:10497000002070BD2DE9F04381B0044608980D4633
:1049800090469946FFF7C8F806460E212846FEF7DE
:10499000D7FE20B16FF0010001B0BDE8F0836F6871
:1049A00006224946BE813846FFF73EFF06224146B1
:1049B000B81DFFF739FFA2692946204601B0BDE8BE
:1049C000F0431047FFFFFFFFFFFF0000F0B585B089
:1049D0007DA36A46044693E8E04082E8E040009107
:1049E0000021684602F09CFE0028206005B00CBF44
:1049F0004FF0FF300020F0BD10B50446206802F0F3
:104A000019FF2068BDE8104002F01CBF00B581B05E
:104A10000068002202F09CFE08B14FF0FF3001B0A8
:104A200000BDF0B583B005460E46144602F057FDB2
:104A3000074629686CB12246684602F0B0FE00982D
:104A4000102802D1019931600AE04FF0FF3003B025
:104A5000F0BD4FF0FF32684602F0A1FE01983060D1
:104A600002F03DFDC01B03B0F0BD10B584B00C4694
:104A700001680022684602F092FE009A102A03BFE5
:104A80000198206000204FF0FF3004B010BD006896
:104A900000B1012070470021016070470000000054
:104AA000F0B500BF4CA283B004460D46D2E90067C2
:104AB000CDE900670121684602F0AEFD206018B91B
:104AC0004FF0FF3003B0F0BD15B9002102F0C7FD73
:104AD000002003B0F0BD70B505460C4602F0FFFCA7
:104AE00006463CB12868214602F0B9FD48B14FF0B6
:104AF000FF3070BD28684FF0FF3102F0B0FD002894
:104B0000F8D102F0ECFC801B70BD006802F0D6BD4D
:104B1000006802F0F8BD006800B101207047002174
:104B20000160704700B581B02DA002F018FD254945
:104B300001B0086000BD000010B500BF2AA182B01E
:104B400004466846D1E90023CDE9002302F007FDC1
:104B50000028206002B00CBF4FF0FF30002010BDD5
:104B600000684FF0FF3102F003BD006802F02FBD76
:104B70002DE9E04388B000270E9E6D46BE46B8463C
:104B8000B946A5E88043A5E88041009068460191B8
:104B90001146ADF80860049302F0A9FC08B0BDE826
:104BA000E08308484FF0FF3100B5006881B002F0A3
:104BB000DFFC012001B000BD0248006802F007BD23
:104BC00000000000FC9D0420000000000400000024
:104BD00000000000000000000000000000000000D5
:104BE00000000000000000000000000000000000C5
:104BF00000B581B0FEF728FFC0F30D00A0F580409E
:104C0000DFF8901901B0088000BD01460120FFF7D0
:104C1000DBBD00B581B000F088FCDFF87C090178CD
:104C2000491C0170C80703D501B05DF804EBF8E238
:104C300001B000BD30B5002983B00446227D3BD0D1
:104C4000042A18BF072A37D1A06F002804BF218D7E
:104C5000B1F5066F30D0208B231D0290E58A0093BA
:104C600023460195626A216D2046DFF8905A03F0D1
:104C7000A2FC204600F0FCFD2869A04202D1C068D9
:104C800028616BE0002869D0C168A14264D00800A7
:104C900064D0C168A1425FD008005FD0C168A14262
:104CA0005AD008005AD0C168A14218BF0846E9D1BD
:104CB00052E02146012065E01AB1022A3CD022D3FD
:104CC00045E0E08A00285BD0DFF8301A8868A0420F
:104CD00002D1C068886051E000284FD0C168A1426D
:104CE0004AD008004AD0C168A14245D0080045D04A
:104CF000C168A14240D0080040D0C168A14218BF9D
:104D00000846E9D138E00FF200420321106800683C
:104D100038B1C36FA34204BF0025C567C06800282F
:104D2000F7D1121D491EF1D12146DFF8D40900F058
:104D3000E1FD2146022025E0DFF8C059214605F1BA
:104D4000100000F0D7FD0120214628701AE020460F
:104D500003B0BDE830401AE0E168C16000200122E4
:104D6000E060DFF8CC1A2A700B68A342A1D102F0F0
:104D700069FB002003B030BDE168C1600020E06045
:104D800021460120FFF720FD002003B030BD30B5E3
:104D900081B00546287D032806D004280CD00728BA
:104DA00016D0002001B030BD284603F09BF8040067
:104DB00007D10520287505E0284603F093F8040084
:104DC000F7D06CB9284603F04AF9204601B030BD4F
:104DD000284603F087F80400F3D109202875F1E78D
:104DE00014F1010FF1D1688B40F0080068830020B6
:104DF00001B030BD10B96FF00F007047017D01297F
:104E000003D0428B42F010024283012112E710B519
:104E1000040002D16FF00F0010BD207D012819D0D1
:104E200089B1608B40F01000608322B101212046DF
:104E3000BDE81040FEE6A06F18B1FEF7C3FC0020ED
:104E4000A067002010BD002AFBD0C01E0128EED9AB
:104E5000001FECD06FF00A0010BD2DE9F04F0600E6
:104E600085B000F08680327D0A2A0BD13146DFF80A
:104E7000C40900F03FFD314605B00120BDE8F04F08
:104E8000FFF7A2BC306D00270390BB46D6F8248004
:104E9000D6F89090D6F810A0F08A02BB50B3DFF895
:104EA0005C188868B04203D1C0688860F76021E070
:104EB000002863D0C168B1425ED008005ED0C168EE
:104EC000B14259D0080059D0C168B14254D008004D
:104ED00054D0C168B14218BF0846E9D14CE00F4632
:104EE0008346DFF81848314604F1100000F002FD57
:104EF00001202070356F55B168682C6808B1FEF745
:104F000061FC29460320FFF75FFC2500F4D1F56E14
:104F100055B168682C6808B1FEF754FC2946032097
:104F2000FFF752FC2500F4D1756F55B168682C6805
:104F300008B1FEF747FC29460320FFF745FC250092
:104F4000F4D15FB1311D308B00910399029033464B
:104F5000CDF804B04246304603F02DFB3146012027
:104F6000FFF732FCB9F1000F03D06FF00C0150468F
:104F7000C84705B0BDE8F08FF168C160F760B9E7D8
:104F800001216AE7F0B50C0081B00646154608BF5E
:104F9000DFF8584A1EB96FF00F0001B0F0BD307D48
:104FA00018B16FF0050001B0F0BD280007D100F086
:104FB0006BF8050019D16FF0010001B0F0BD00BF22
:104FC00050A704233868026862B1D08AA84207D18A
:104FD000DAB11168C9B1C4B12068B0B1814214D04E
:104FE000D268F1E73F1D5B1EECD1002C1EBF20688C
:104FF00000283060F582DFF8F8098168F16086608A
:1050000003F015FC002001B0F0BD6FF0070001B007
:10501000F0BD70B4014640F231460A8D4B6A4C8EA9
:10502000CD6A9818B442A8BF4FF48664401B041B95
:1050300058BF4A8506D5581B0028CCBF0023EB1A61
:105040004B85002070BC704710B504001AD0208D2D
:1050500040F66102091889B2914201DA814201DA0F
:105060004FF4066121852046FFF7D3FFB0F5067F98
:1050700008D3608B40F0020060832046BDE81040FA
:1050800002F0EDBF10BD0000F0B500251DA24FF4E9
:1050900040434FF6FF74DFF8FC6430889446401CB0
:1050A00081B2A14208BF184630800421B6F80070D2
:1050B000DCF800000068F0B1B0F816E0BE4513D08F
:1050C000C068C0B1B0F816E0BE450DD0C06890B160
:1050D000B0F816E0BE4507D0C06860B1B0F816E081
:1050E000BE4518BFC068E6D16D1CA8B2B0F5804FB0
:1050F000D3DB0020F0BD491E0CF1040CD8D138469A
:10510000F0BD000038000020340000203C000020EA
:10511000400000202DE9F0410400984614BF00290A
:105120006FF00F007BD0207D18B16FF00900BDE853
:10513000F081086822836060207A10B1FEF7C7FF13
:1051400002E0201DFFF788F9050003D0216839B976
:10515000281D03D16FF00300BDE8F081686820606E
:10516000E68A3EB9FFF790FFE08218B96FF00100C0
:10517000BDE8F081DFF878780022B96978684118D5
:105180004FF40660B9612165491E6262221D6164A7
:10519000A165E165616A60852085A4F860004FF42F
:1051A0000670E1622946608600F0E1FB608601201E
:1051B000A4F848000221C4F88880204602F0FFFECF
:1051C00005002BD102202075F6B1B868A04202D1AB
:1051D000C068B86016E0A8B1C168A14210D008004C
:1051E00010D0C168A1420BD008000BD0C168A14209
:1051F00006D0080006D0C168A14218BF0846EAD10F
:10520000E168C1600020E0603969E1603C6103F061
:105210000EFB01203870204602F021FF2846BDE831
:10522000F0812DE9F04FDFF8D47483B07978786895
:10523000401C47F6FF787860491C797000253E696C
:1052400001E03546F668002E00F069817878B17F7C
:105250008142F6D0B0774FF0000A307DD146022867
:1052600007D196F842100629A8BF4FF0010A80F234
:105270008F8096F842000C2806DA96F8990090B3D1
:1052800096F89A100C2902DB4FF0010A73E00FF236
:10529000B07296F89810104410F8010C8142BCBF0F
:1052A000491C86F8981096F89810814263DBB6F88E
:1052B00060103046002904D103F04DFA00285AD17D
:1052C00007E002F07DFD20B9304602F0C8FE00285C
:1052D00051D096F8990086F8989006284BD8401C33
:1052E00086F8990047E0B6F93000010003D4404544
:1052F0001CBF401C3086B6F93000B6F94010884219
:1053000039DB304603F018F818B1316F99BBF06EF5
:1053100088B3317D022914D096F84200B6F93E20B8
:105320000FF20C73B6F93C100C2802EBE10228BF17
:105330000C20185602FA00F04045A8BF4046A6F8D7
:105340004000B6F84800B6F86010A6F83090A6F80D
:105350006A90884288BF0846718E400849008BB227
:10536000984238BF0846A6F84A00708EA6F8480052
:10537000304603F015F8307D062809D1B17EC80605
:1053800006D57A68316A521A292A28BF0AF1010A19
:10539000707A01072ED5307D042818BF072829D13F
:1053A0007968306ADFF84C26DFF84C46081AD6F8E0
:1053B00094105218A2FB04431B0A834204D20AF140
:1053C000010A4FF0010915E096F89B20DFF82C3612
:1053D000DFF824C603FB0211A1FB0CC4210A8142A1
:1053E00008D2304603F073F920B996F89B00401CB0
:1053F00086F89B00746FC4B17868316AB6F94020B2
:10540000401A02EB4203B0EB430F0ED36068D4F8AE
:1054100000B008B1FEF7D6F921460320FFF7D4F912
:105420005FEA0B04F2D100207067307D032804D1BD
:105430007868316A401A292805E0092806D1786879
:10544000316A401AF12828BF0AF1010A5FFA8AFA84
:10545000BAF1000F2ED0D6F89040304600F008FA8E
:10546000002D19BFF068E860F1683961B9F1000FEB
:105470000BD0308B321D33460290F18A00923046B9
:105480000191726A316D03F096F8D6F810903146AA
:10549000F6680120FFF798F90021397021003FF4E8
:1054A000D2AE6FF00C014846A047387800287FF450
:1054B000C5AEC8E63546F668287F697F401C287768
:1054C000C0B28842FFF4BFAE002028773870D5F80C
:1054D0008C204AB1286929469047397800297FF401
:1054E000ADAE00287FF4AFAE284602F0B8FDAAE6C4
:1054F0002146E4680120FFF767F99CB17868216ACA
:10550000401AF12808D3204600F0B2F9E068002DD7
:1055100014BFE8607861EBE72546E468EDE7002515
:105520007C69EAE703B0BDE8F08F70B5DFF8C054DE
:105530006878401C68702C6924E0A077608BC107F4
:105540000AD540F002006083204602F088FD618B9E
:105550004FF6FC7211406183608B010706D54FF650
:10556000F772104060832046FFF711FCA06FE668D9
:1055700038B100212046297000F010F82878002862
:10558000D9D134462CB16878A17F8142D5D1E46865
:10559000F8E770BD5C0200200D9E0420F0B5040009
:1055A00081B008BF6FF00F003CD0A56FD4F88460C5
:1055B00000206F7BA0672EB1206900232A46214678
:1055C000B0470BE03DB129892046FFF73DFD284655
:1055D000FEF7F8F804E02046FFF70CFC010016D1B6
:1055E000B8061ED5208DB0F5066F1CBF401C208567
:1055F000D4F88450ADB120690023002221466FF019
:105600000C06A847B0420CD1304601B0F0BD6FF097
:105610000C0188421ABFA5676FF00400084601B06C
:10562000F0BD002001B0F0BD30B5040081B00AD05B
:105630006068256808B1FEF7C5F821460320FFF72A
:10564000C3F82C00F4D101B030BD10B5040009D06E
:10565000606808B1FEF7B6F821460320BDE81040A7
:10566000FFF7B2B810BD30B5054681B00320FFF793
:1056700097F8040008BF002007D010222946FFF742
:10568000D3F86068FEF7E1F8204601B030BD0800AD
:1056900010B5144602D16FF00F0010BD3CB1218946
:1056A000FFF7D2FC2046FEF78DF8002010BD002B3E
:1056B000FBD1BDE81040FFF79DBB00230022B0B432
:1056C000DFF82C4381B021696768002911D00D7D76
:1056D000854205D10D6A7D1B9D4224BF2B460A469B
:1056E000C9680029F3D122B101B01046B0BCFFF760
:1056F000B4BB01B0B0BC7047000000002C0000201B
:1057000038000020F0B5054681B00120FFF748F8C9
:1057100004005FD1B64E306958B1418BC4680A07A6
:1057200005D54FF6F77319404183FFF730FB200092
:10573000F3D1706900210022746800280DD0036A3B
:10574000E31A8B4224BF19460246C0680028F6D1EE
:105750001AB101211046FFF780FB0120FFF720F866
:10576000040037D10920FFF7A8FF0120FFF718F840
:1057700004002FD10820FFF7A0FF0120FFF710F849
:10578000040027D1802DA8BF7F2001DA28001DD07A
:10579000411E3069C9B200230022B8B1447D8C4259
:1057A00007DB0BD17768D0F820C0A7EB0C079F422E
:1057B00004D37168036A0246CB1A2146C0680028E8
:1057C000ECD11AB101211046FFF747FB0120FEF78B
:1057D000E7FF044644B39C212046FEF741FB4FF40B
:1057E00006604FF40672608506232085FF206286DE
:1057F0004FF48661A4F840304FF0FF32E387012375
:10580000E0727B486575A4F864102286A4F84830DD
:10581000426822624078A4F84A107949794AA07710
:10582000C4F88410C4F89420204601B0F0BD0000F4
:10583000F89C042040000020402063E700B1016193
:10584000704708B1C0F88410704708B1C0F88010E4
:10585000704708B1C0F89010704718B1027D012A56
:1058600008BF8161704710B1C0F88C104277704753
:1058700070B505001CBF287D00283AD00A2818BF43
:10588000012836D0A86F18B1FDF79CFF0020A8674B
:105890006C6F64B16068266808B1FDF793FF21461C
:1058A0000320FEF791FF3400F4D100206867EC6E0E
:1058B0004FF0FF31298654B16068266808B1FDF7C2
:1058C00081FF21460320FEF77FFF3400F4D12C6FC7
:1058D00054B16068266808B1FDF774FF21460320C3
:1058E000FEF772FF3400F4D10020E8662867A5F8BF
:1058F000680070BD024610B510680C46A04202D187
:10590000C068106016E0A8B1C168A14210D00800BC
:1059100010D0C168A1420BD008000BD0C168A142D1
:1059200006D0080006D0C168A14218BF0846EAD1D7
:10593000E168C16000222046E260FFF799FF207D08
:105940000A2818BF012808D0608BC10705D540F090
:1059500002006083204602F082FB00202075E08276
:1059600010BD234A9069516808189061704700295A
:105970001CBF098D002907D02829CCBF2839002158
:1059800089B2884288BF0846704730B581B0044666
:1059900051B1084602682368C5689A4204BF0121D4
:1059A000FFF75BFA2800F5D101B030BD70B50400F7
:1059B0000D461CBF2268002A17D00D4E3169FFF733
:1059C000E4FFB1682046FFF7E0FF002D1CBF286808
:1059D00000280AD0F06840B101682268914204BFF3
:1059E0002B680360C0680028F6D170BD70590108AB
:1059F0002C000020B84C0A00986E1283F824010095
:105A00008F56000800DD6D0070B505466C6F64B1FF
:105A10006068266808B1FDF7D5FE21460320FEF731
:105A2000D3FE3400F4D10020686770BD0000000090
:105A30000102030405060707070707070700000020
:105A400003060C183060780030B56C4D81B005F15C
:105A50000C00FFF785F8296821B16868884701E0E4
:105A600002F066FF02F080FF044614F1010F0ED130
:105A700005F10C00FFF779F80022694605F10800EE
:105A8000FEF7CFFF05F10C00FFF76AF813E0002CDA
:105A9000E6D005F10C00FFF768F82246694605F1EB
:105AA0000800FEF7BEFF044605F10C00FFF758F8AA
:105AB00014F1010FD4D000980028D3D004462178E7
:105AC00079B1022901D004D3CCE7A068626890477D
:105AD000C8E7A0686168884721460820FEF774FE81
